:020000040001F9
:10B00000003B002035B101004FB1010051B10100FA
:10B010000000000000000000000000000000000030
:10B0200000000000000000000000000053B101001B
:10B03000000000000000000055B1010057B1010000
:10B0400059B1010059B1010067BD010059B10100BA
:10B0500069BC0100000000005DB4010059B10100AD
:10B0600059B1010059B1010059B1010059B10100B4
:10B0700059B1010059B1010059B1010059B10100A4
:10B0800059B1010085B9010059B1010059B1010060
:10B090007DBC010059B1010085BC010059B101001E
:10B0A00059B1010059B1010000000000000000008A
:10B0B0000000000000000000000000000000000090
:10B0C0000348854600F09AF90048004765F40100FE
:10B0D000003B0020401E00BF00BF00BF00BF00BFFC
:10B0E00000BF00BF00BF00BF00BF00BF00BFF1D165
:10B0F00070470000401E00BF00BF00BF00BF00BF80
:10B1000000BF00BF00BF00BF00BF00BF00BFF1D144
:10B1100070470000401E00BF00BF00BF00BF00BF5F
:10B1200000BF00BF00BF00BF00BF00BF00BFF1D124
:10B13000704700000321094802680A43026008487A
:10B1400002680A4302600748804707480047FEE755
:10B15000FEE7FEE7FEE7FEE7FEE70000240500400D
:10B1600054050040A5BC0100C1B0010030B50B463C
:10B17000014600202022012409E00D46D5409D42D1
:10B1800005D31D469540491B254695404019154657
:10B19000521E002DF1DC30BD70B50024254600287C
:10B1A00001DA01244042002901DA01254942FFF772
:10B1B000DDFFAC4200D04042002C00D0494270BDBF
:10B1C00003460B439B0703D009E008C9121F08C0C0
:10B1D000042AFAD203E00B780370401C491C521E6B
:10B1E000F9D27047D2B201E00270401C491EFBD276
:10B1F00070470022F6E710B513460A460446194682
:10B20000FFF7F0FF204610BD30B50446002003468E
:10B2100000E05B1C934203D2E05CCD5C401BF8D0A5
:10B2200030BD03460A780270401C491C002AF9D13F
:10B2300018467047024670B54A40D30FDB074000FE
:10B240002DD04A002AD0010E140E00021202091954
:10B25000400A520A8418E50104465443000A120ABF
:10B260002E045043A4194219200CC543AA18120CED
:10B270000125AD03521C521912047F39240400D059
:10B28000521C104301D44000491EC2B20C06C00932
:10B290002018401C4008802A02D003E0002070BD26
:10B2A00040084000002900DA0020184370BD70B546
:10B2B00002464A40D50F40004A00ED0740085208B8
:10B2C000002814D0002A12D0C40DD30D4102012051
:10B2D000C0055202490A520AE41A091812187D34AC
:10B2E000914201D3641C00E04900002C01DA0020E7
:10B2F00070BD0023914201D3891A034340084900DD
:10B300000028F7D100290AD0914202D10121C907B2
:10B3100005E0914201D2012101E00121C943E0058C
:10B32000C018401900F028F870BD420005D0420056
:10B33000120E52428A4201DB00207047C9050818EC
:10B34000704710B500229623114600F01DF810BD7D
:10B35000410040020122400AD205090E80187F29CF
:10B3600001DA00207047962903DC9622511AC84062
:10B370007047963988407047002904DA401C49001C
:10B3800001D140084000704770B40024050C05D17D
:10B390001024000402D1002921D01124050E01D16E
:10B3A00000020834050F01D10001241D850F01D1D1
:10B3B0008000A41C002801DB4000641C002908D088
:10B3C00020252E1B0D46F540A14000D00121294328
:10B3D000084301061B1B000ADB1D02D5002070BCC0
:10B3E0007047DB05181880180029F8DA401C49005E
:10B3F000F5D170BC4008400070470000064C0125A4
:10B40000064E05E0E36807CC2B430C3C984710340C
:10B41000B442F7D3FFF758FEE87D0200087E020031
:10B4200030B58C180278401C13071B0F01D103782C
:10B43000401C120906D10278401C03E005780D700B
:10B44000401C491C5B1EF9D101E00B70491C521EC7
:10B45000FBD1A142E6D3002030BD0000F0B50025AD
:10B46000FF248BB0013401262F460195204605F0BC
:10B47000CBF8002808D047484068304204D04648FE
:10B480000021201835430160241D76007F1CA4B2E2
:10B49000042FEBD3FF207D3005F0B6F8002807D04D
:10B4A0003E4800210160400705433D480069019086
:10B4B0003C4C280712D0012700262F420AD03A48D8
:10B4C000B200111808690969C004C00E8903A258A6
:10B4D000890F90477F00761C042EEED3002D57DA9B
:10B4E00000200590401E4DE0A119403108788506E6
:10B4F000AD0E42B2521C39D00121A940089A0091E8
:10B50000114233D080090390284602F0BBF9800035
:10B5100020580490002802D10398032826D10398CC
:10B520000099032802D10598084305901F4AA800F6
:10B5300080180068019A8003800F114202D002280F
:10B5400002D013E0032811D10399032907D102285F
:10B550001CD00221284605F02FF87F1CFFB204986A
:10B56000002803D0049A284603999047761C042E9D
:10B57000BAD3002F0CD00A4800690199884207D03D
:10B580000190059800273E460890ADE70321E1E7CA
:10B590000BB0F0BD00630040006000407C610040E3
:10B5A000000500507428002000650040000700508E
:10B5B000F0B587B00024161A01905D1A601E274668
:10B5C00004940091002E01DD012108E0002E05D039
:10B5D00076420390002D04DD01200BE00021039151
:10B5E000F8E7002D05D06D420290AE4204DD3446EE
:10B5F00003E000200290F8E72C4600200590601C34
:10B60000069005981DE00C9A0099019800F0A4F9A5
:10B6100004987F1980190490A04206DD001B049055
:10B62000039901984018C0B20190A74205DD029924
:10B6300000983F1B4018C0B200900598401CC0B253
:10B64000059006998842DEDD07B0F0BDFFB581B0F8
:10B6500017462AE02038C5B2029802991730C3B2C3
:10B6600001980F30C2B2019800F028F9302045430C
:10B670001048002428180090065D0025300601D5EA
:10B68000049800E00A9800F00FF96D1C7600EDB206
:10B69000082DF3D3641CE4B2302C01D20098EBE700
:10B6A00001981030C0B27F1C019038780028D1D1A9
:10B6B00005B0F0BD101F020010B5122004F09CFF71
:10B6C000642004F01DFE122004F086FF322004F0F6
:10B6D00017FE122004F090FF782004F011FE1120D4
:10B6E00000F045FB782004F00BFEB12000F03FFB9A
:10B6F000052000F066FB3A2000F063FB3A2000F0E2
:10B7000060FB362000F033FB082000F05AFBB2202B
:10B7100000F02DFB052000F054FB3A2000F051FB17
:10B720003A2000F04EFBB32000F021FB052000F092
:10B7300048FB3A2000F045FB3A2000F042FB052090
:10B7400000F03FFB3A2000F03CFB3A2000F039FBD0
:10B75000B42000F00CFB002000F033FBC02000F010
:10B7600006FBAA2000F02DFB0A2000F02AFB842013
:10B7700000F027FBC12000F0FAFAC02000F021FB06
:10B78000C22000F0F4FA0D2000F01BFB002000F0B6
:10B7900018FBC32000F0EBFA8D2000F012FB2A20EA
:10B7A00000F00FFBC42000F0E2FA8D2000F009FB4E
:10B7B000EE2000F006FBC52000F0D9FA062000F0CC
:10B7C00000FBE02000F0D3FA062000F0FAFA1C207B
:10B7D00000F0F7FA102000F0F4FA142000F0F1FA6B
:10B7E000302000F0EEFA2B2000F0EBFA242000F0DD
:10B7F000E8FA292000F0E5FA282000F0E2FA2620F5
:10B8000000F0DFFA2E2000F0DCFA392000F0D9FA3F
:10B81000002000F0D6FA022000F0D3FA012000F058
:10B82000D0FA102000F0CDFAE12000F0A0FA0620B6
:10B8300000F0C7FA1C2000F0C4FA102000F0C1FA92
:10B84000142000F0BEFA302000F0BBFA2B2000F0EC
:10B85000B8FA242000F0B5FA292000F0B2FA282026
:10B8600000F0AFFA262000F0ACFA2E2000F0A9FA82
:10B87000392000F0A6FA002000F0A3FA022000F020
:10B88000A0FA012000F09DFA102000F09AFA3A2068
:10B8900000F06DFA052000F094FA292000F067FA14
:10B8A000782004F02DFD10BD10B504460004000EF4
:10B8B00000F087FAE0B200F084FA10BDF8B5074650
:10B8C0001C4615460E462A2000F051FA002000F0D2
:10B8D00078FABF1CF8B200F074FA002000F071FA98
:10B8E000AD1CE8B200F06DFA2B2000F040FA002009
:10B8F00000F067FA761CF0B200F063FA002000F066
:10B9000060FA641CE0B200F05CFA2C2000F02FFA20
:10B91000F8BD00008307FF22DB0E9A408907090E5D
:10B92000994000280BDA0007000F08388308084800
:10B930009B001818C36993430B43C3617047830886
:10B9400004489B001B181868904308431860704710
:10B9500000ED00E000E400E070B515464A1CD3B2EB
:10B96000421C491E401ED2B2C9B2C0B2FFF7A6FFA8
:10B9700000242846FFF798FF641CE4B2092CF8D392
:10B9800070BD000010B5064900200860486088605E
:10B99000C860034940390860486005F0C5FD10BD26
:10B9A00040110140FFB5114F0446387881B01D4663
:10B9B0001646002801D100F027FA7869A04211D973
:10B9C00018200A4960434118002C06D00298CE6422
:10B9D0000D6588640020886548650A98C865002060
:10B9E00005B0F0BD0020C043FAE700008832002017
:10B9F000FFB5114F0446387881B01D461646002821
:10BA000001D100F001FA3869A04211D918200A4981
:10BA100060434118002C06D00298CE610D62886107
:10BA20000020886248620A98C862002005B0F0BD14
:10BA30000020C043FAE700008832002070B5074BB1
:10BA40000646187814460D46002801D100F0DCF9AE
:10BA500022462946304600F003F870BD88320020A7
:10BA600070B50E4618214843134914464518E86A34
:10BA70001835002804D001280FD0022805D113E082
:10BA8000284600F0F7F9A04201D2002411E0224636
:10BA90003146284600F019FB0BE0284600F0EAF991
:10BAA000A042F4D20446F2E73146284600F0DDFA1F
:10BAB0000446204670BD0000883200200FB408B54F
:10BAC00004A900916A46039900F004F801B008BC8B
:10BAD00004B01847F7B598B007A802904020002599
:10BAE0000495039018980C46059506902178641CDF
:10BAF000002977D0252907D002A800F097FA0598E9
:10BB00000028F3DA1BB0F0BD012200210227134602
:10BB10000826207823281BD02B2816D02D2802D0C9
:10BB2000302806D101E0194300E03943641C002AA3
:10BB3000EFD1002220780346303B0A2B0AD20A2399
:10BB40005A431218303A641CF4E704200143EDE72D
:10BB50003143EBE70023C7B22E2F0AD1641C2078B3
:10BB60000746303F0A2F04D20A277B431B18303B7D
:10BB7000F4E76C280DD068280BD0702852D00BDC6D
:10BB800025285AD058282ED063280CD0642858D1A4
:10BB900010E02078641CECE7732832D0752817D0A9
:10BBA00078284ED11FE01A981A9A0068011D11607A
:10BBB000017843E01A981A9F0068061D3E600068ED
:10BBC0000191009201460A2202A800F05EF938E0D5
:10BBD0001A981A9F0068061D3E6000680092019145
:10BBE0000A2209E02FE01A981A9F0068061D3E609D
:10BBF0000068009201911022014602A800F0AAF903
:10BC00001FE01A981A9A0068011D116006683178C1
:10BC1000761C002915D002A800F008FA0598002823
:10BC2000F5DA0EE01A981A9A00680823011D1160CF
:10BC30000168102200960195DFE7252102A800F097
:10BC4000F5F9641C5BE70598002800DC5AE70498C6
:10BC5000002804D0024607A91898FFF7EFFE0499C0
:10BC60000598401805904DE710B50249024803F0C9
:10BC700012FA10BDBC2900200040004010B505F0AC
:10BC8000E9FB10BD10B506484068002805D0804784
:10BC9000002801D000F01EFC10BD03F08FF910BD8C
:10BCA0009021002010B503F05BFA002805D01F4951
:10BCB0001D484860C8131E4988611E48018CC9B2DE
:10BCC00001290BD1828C120708D1028D1206120FA6
:10BCD000042A03D1828D1206120F0AD0012921D124
:10BCE000818C09071ED1018D0906090F0A2904D08C
:10BCF00007E0114A01219160F5E7828D1206120FCB
:10BD000005D00D290ED1808D0006000F0AD10B48F9
:10BD10000168012904D00A49016001680129FCD1A8
:10BD2000C021416110BD0000DFFF07C000050040D9
:10BD3000006C0040C00F00F00006004000EC064020
:10BD40007593000010B5142004F02EFC132004F0AD
:10BD50002BFC112004F028FC122004F025FC062006
:10BD600004F022FC10BD10B505F0ECFE10BD70B55E
:10BD70000446062004F030FC112004F02DFC0025C0
:10BD8000200603D5142004F037FC02E0142004F050
:10BD900023FC132004F020FC132004F02DFC60068B
:10BDA0006D1C040EEDB2082DEAD3112004F024FC22
:10BDB00070BD10B50C4600F004F8204600F001F804
:10BDC00010BD70B50446062004F016FC112004F0E6
:10BDD00003FC0025200603D5142004F00DFC02E02E
:10BDE000142004F0F9FB132004F0F6FB132004F0F8
:10BDF00003FC60066D1C040EEDB2082DEAD3112081
:10BE000004F0FAFB70BD000010B5124C0220206156
:10BE1000606111A0A0611348E061012080022062EE
:10BE20000020A06260620CA1A1642146E06210398A
:10BE3000E16410212165A0656065E0650AA1E01D4F
:10BE4000FFF7EFF909A12046FFF7EBF92020A071D9
:10BE500010BD0000883200205465726D696E616CFF
:10BE600000000000782E00205254540053454747EC
:10BE7000455200000269C1688A4203D88068401AAE
:10BE8000801800E0501A401E7047FFB583B00E4680
:10BE900070420D9F0C9C0090002900DB0846012594
:10BEA00002E0FFF779F96D1C05998842F9DA0698E6
:10BEB000A84200D90546002C04D0002E01DB7807EB
:10BEC00000D5641EB80702D50698002810D0F807E0
:10BED0000ED1002C0CD0A5420AD22021641E03985A
:10BEE00000F0A4F80398C0680028F2DA07B0F0BDAB
:10BEF0000398C0680028F9DB002E02DA2D21009E8D
:10BF000002E0780707D52B21039800F08FF80398FB
:10BF1000C0680028EADBB807800F022810D1069815
:10BF200000280DD1002C0BD0A54209D23021641E6F
:10BF3000039800F07BF80398C0680028F2DAD5E790
:10BF4000019700943146069B059A039800F002F889
:10BF5000CCE70000FFB581B001261F4634460A9D9C
:10BF6000029802E0FFF702F9641C03998842F9D2B3
:10BF7000A74200D93C460B98C00718D1002D16D017
:10BF80000B98800701D5002F02D0202000900CE0F4
:10BF90003020FBE76D1E0099019800F047F80198EA
:10BFA000C06800283DDB002D01D0AC42F2D30198DF
:10BFB000C068002835DB012F01D97F1E06E031461D
:10BFC0000298FFF7D3F80399884202D303984643B7
:10BFD000F1E7154F31460298FFF7C8F80146029A7B
:10BFE0007143511A0291395C019800F01FF80198D1
:10BFF000C068002805DB30460399FFF7B7F8060054
:10C00000E8D10B98C0070CD0002D0AD0AC4208D262
:10C0100020216D1E019800F009F80198C0680028E1
:10C02000F2DA05B0F0BD0000D87D020010B504467C
:10C0300080686368421C934205D323681954A26048
:10C04000E068401CE060A2686068824209D1216813
:10C050002069FFF7F3FCA168884203D00020C043A9
:10C06000E06010BD0020A06010BDF7B5064682B0AC
:10C0700000200090F46817463069A04201D9051BE2
:10C0800002E0B168201A0D1AB0686D1E001BA842AC
:10C0900000D80546BD4200D33D4670682A460019C7
:10C0A0000399FFF78DF800987F1B401900900398C3
:10C0B000641940190390B068A04200D10024F460D4
:10C0C000002FD9D1009805B0F0BDF7B5C668174666
:10C0D00004468068851B6068BD4206D980190199B5
:10C0E000FFF76EF8F019E060FEBD2A46801901994D
:10C0F000FFF766F801987E1B411932466068FFF72A
:10C100005FF8E660FEBD30B47446641E2578641C9A
:10C11000AB4200D21D46635D5B00E31830BC18479C
:10C1200002E008C8121F08C1002AFAD17047704700
:10C13000002001E001C1121F002AFBD17047F7B5B2
:10C1400084B00025168807461580406B14460028E9
:10C1500013D003780598032E51D302210170218852
:10C160001122491C89B2218042542188491C89B27C
:10C17000218043542088401C2080386B00281DD02B
:10C1800005462088059902461232B24237D811225C
:10C190000A5420881022401C80B220800A54208833
:10C1A000401C20800F202A5C2388401ECA5422880D
:10C1B00040B2521C22800028F5DA00253846203093
:10C1C0000290807B002806D033462246059903F072
:10C1D00013F8050014D10298407B002806D032469F
:10C1E0002146059800F068FE050009D1B8780028BE
:10C1F00023D0059886462088001DB04202D90C2025
:10C2000007B0F0BD684679DF0028F9D12188032006
:10C210007246505420881921401C80B2208011544D
:10C2200020887146401C80B22080411868460088F2
:10C2300005F01CFD218840182080F878002817D0D0
:10C24000218803230A46FB56C91C0598B142D6D85B
:10C250000221815421880122491C89B22180425443
:10C260002188491C89B2218043542088401C2080A9
:10C270007868002817D021880023C3560A46C91CB5
:10C280000598B142BBD80221815421880A22491C59
:10C2900089B2218042542188491C89B221804354AB
:10C2A0002088401C2080388900280AD00094384615
:10C2B0000196062202210830059B05F08DFD050040
:10C2C0009ED1388A00280AD0009438460196072269
:10C2D00003211030059B05F07FFD050090D1388BC0
:10C2E00000280AD0009438460196152214211830EF
:10C2F000059B05F071FD050082D1386A002806D043
:10C3000033462246059901F01DFC0500D8D1786A14
:10C31000002806D033462246059903F0D5F90500DA
:10C32000CED10298007B002807D0334622463846FB
:10C33000059904F0CFFD0500C2D13878002807D058
:10C34000334622463846059903F084FF0500B7D1ED
:10C35000284655E710B501220221002001F0BEF861
:10C36000002801D0072812D107220221012001F064
:10C37000B5F8002801D0072809D100210A22084673
:10C3800001F0ACF8002801D0072800D1002010BD32
:10C3900010B598B0382101A8FEF72BFF022168469E
:10C3A0000171012484710621C17184820E480690B6
:10C3B00024210FA8FEF71DFF10A80472FF202D30C6
:10C3C00013900020149001460090084B0FAA01A87A
:10C3D00000F060FA002801D000F07CF804A10020F1
:10C3E000FFF76CFB18B010BD882000208506020006
:10C3F0006164766572746973696E675F696E69748A
:10C400005F4F4B0D0A000000044842680121890576
:10C410000B46934383600A40C2607047000500509A
:10C4200070B50024064D06E06968E000085C012153
:10C4300003F0A4FF641C28788442F5D3002070BD6B
:10C4400058210020F8B515460C460646052A01D2AB
:10C450000720F8BD04F068F8002803D104F03AF88A
:10C460000028F6D1104900204E600C70C8608D6025
:10C4700008610E4D0DE0E000696880190091817837
:10C480006A46517000780A4A694603F0C7FF0028DF
:10C49000DFD12046641EE4B20028ECD1054A002119
:10C4A000024800F04FF8F8BD58210020D07D02006E
:10C4B000F5EE01000DDD0100BFF34F8F0449034885
:10C4C000C860BFF34F8F00BFFDE700000400FA050E
:10C4D00000ED00E00EB50021029000916A46019146
:10C4E0000148FFF7E9FF0EBD01400000014B1B684A
:10C4F000184700005028002038B50C46A2680C23CD
:10C500005A43064B09789D58054A126A0092024622
:10C51000204608302369A84738BD0000A429002020
:10C520003421002010B5064914230A785A435118C3
:10C53000091DFFF7E1FF042004F094FD10BD000089
:10C54000D8280020094B9B68002B07D0002A07D071
:10C55000002805D00068037C002B03D0082070471A
:10C560000720704741744261002070476C21002011
:10C57000FFB59007002581B014460E46002832D141
:10C580001B4F002C31D004F07DFB04987861032010
:10C59000387033461821224600204B43BC601834C3
:10C5A000C10089180D704D708E704C601C19401CB4
:10C5B0000328F5DBFD607D7001240E48BD70240565
:10C5C000046003211420FFF7A5F90B4804600B4C0D
:10C5D0000198A06003211120FFF79CF96068386181
:10C5E000002005B0F0BD0720FBE7BD60FBE70000C1
:10C5F0006C21002080E200E000E100E00015014035
:10C60000FEB50D461B4917468968044600292AD005
:10C61000002C28D0052D01D20720FEBD606900281E
:10C6200021D0607C012820D0002605F061FBC000ED
:10C630001049019089684018694605F083FB00287D
:10C6400015D0012101700C49446049680830E2C0EE
:10C65000084901988968411868460078487004F0D4
:10C660003BFF0020FEBD0820FEBD2E46DDE7042076
:10C67000FEBD00006C21002000150140F8B5134DEF
:10C680000446A96800291CD0002C1AD06069002833
:10C6900017D00026267405F02BFBC700A868694652
:10C6A000381805F04FFB00280DD0022101704460BE
:10C6B000A868391868460078487004F00DFF3046C5
:10C6C000F8BD0820F8BD0420F8BD00006C21002052
:10C6D000F0B50546007D002493B00E4600280DD02D
:10C6E000012001466846103103940173717B417348
:10C6F000817BF92001406846891C81731C2104A8B4
:10C70000FEF777FD6946087C0221084369460874F4
:10C710002A7DEF21002A02D01022104300E00840B9
:10C720006A461074059407940894287D002800D068
:10C7300003A8099001270A9410469771304A828015
:10C740000094B27B0270F27B42708078F922104034
:10C75000F722801C1040EF2108404108490068463C
:10C760008170317B017214210BA8FEF742FD01A8F4
:10C770000B9068460C908786C486078702A80F90A6
:10C78000A888AB1D0BAA04A9A2DF002835D1B06888
:10C79000002830D0684687711A4981800094317C26
:10C7A000017000200146684641708078F9210840F8
:10C7B000F721801C0840EF210840410849006846E5
:10C7C000817011A8B16800F099FC064614210BA8ED
:10C7D000FEF70FFD01A80B9068460C908686C48674
:10C7E000068711A80F902A46E8880E320BA9A3DF0E
:10C7F000002802D100E0EC81002013B0F0BD000061
:10C80000192A00000829000010B5064C2178481CA0
:10C810002070054800F050FA2078642801D30020E9
:10C82000207010BD8020002050250020F0B50C465F
:10C8300093B01F216A4611800726002791800028A7
:10C8400009D0C17849070DD502A9FFF778FC002867
:10C8500009D102AD01E000251780002C0ED0E07850
:10C86000002802D0304613B0F0BD01AA0AA9204624
:10C87000FFF765FC0028F6D10AAA02E0684600220C
:10C88000878068468088C3B268460088C1B228465F
:10C8900072DFE8E770B50D4604991646040042D0F1
:10C8A000002E40D0424800224271C3600161242220
:10C8B00031464048FEF784FC00F0D4F83D4934315D
:10C8C0000846103801602031816038215C38FEF75D
:10C8D00090FC3848217838380170A1788170E1786F
:10C8E000C170617841706269216942610161E268E9
:10C8F000A168C26081600146E369A269CB618A6177
:10C90000616A002919D00146AC310246B832416251
:10C910008A60636A1B880B80616A436A8988998090
:10C920000021436A06E00E2070BD666AB668765C38
:10C930005654491C9E888E42F7D8A16A00291CD003
:10C940001C4AAC3211460C398A608162A36A9B880A
:10C950008B80A16A836A098819800021836A04E0B8
:10C96000A66AB668765C5654491C9E888E42F7D8F3
:10C970002C210A5D0F4918390A73216A002909D050
:10C980000B4914310162226A52884A80216A026A84
:10C99000098811806168002904D00549891D41601A
:10C9A00061684160034829463838FFF73FFF70BD92
:10C9B000E82000201C26002010B502881C4C102AFC
:10C9C00017D00021112A1AD01B2A11D1007A002871
:10C9D0000ED1607901281ED0022822D0032822D04F
:10C9E000042805D12171E2680846002A00D090474A
:10C9F00010BD817D0129FBD18088208110BD61702F
:10CA0000808821898842F9D1012005E02169002927
:10CA1000F4D0884710BD022000F058F80028F5D166
:10CA200010BD0320F8E7032020710420F4E7000084
:10CA3000E820002010B5022801D003280ED1084CB0
:10CA4000207800280AD000202070607900F03EF89D
:10CA5000002803D02169002900D0884710BD0000BC
:10CA6000E820002010B507210148FEF7C2FB10BDE9
:10CA70000021002010B51348007801281FD1124C66
:10CA8000607800281BD16079002802D074DF00286C
:10CA900016D101200B49607006203839C87009484A
:10CAA00000213838FFF7C2FE002809D1607900F074
:10CAB0000DF8002803D02169002900D08847002004
:10CAC00010BD00001C260020E8200020F0B5784CA6
:10CAD00087B06071002606A8069603F083FE012742
:10CAE000082802D0002808D104E006A802F01EF9A8
:10CAF000002804D10698002801D02770D4E0FFF761
:10CB0000B1FF6C4D6878002802D06079012807D009
:10CB1000A87800280CD06079012801D0022824D1FF
:10CB2000E168002903D0E7700820884700E0E6703C
:10CB30006079012808D16878002809D05C4819304C
:10CB400003F00CFE002803D06079022802D00CE02C
:10CB500002206071A878002805D05548193003F0EC
:10CB6000FDFD002801D103206071287B002804D13D
:10CB70006079032801D104206071287E002804D147
:10CB80006079042801D166712671E16800290AD014
:10CB90006079032801D0042805D12878002802D024
:10CBA0006078002817D0A67018216846FEF721FB90
:10CBB00068460670019606720396607901280ED0C9
:10CBC000022815D03B4E243637465C3F03281BD045
:10CBD00004285DD13AE0A77007208847E4E734488D
:10CBE000183001906846077046820682277152E02D
:10CBF0002F48183001906846077029894182A9881A
:10CC000001820220207146E0A88A69464882288A6B
:10CC100008822848243005F04EF9002805D02878ED
:10CC2000002802D06078002801D003202FE00220E5
:10CC30006946087204200396F8701E4800213838AF
:10CC4000FFF7F4FD002830D1052020E0A88B6946CD
:10CC50000882288C48821748243005F02CF90028D7
:10CC600005D02878002802D06078002801D0042060
:10CC70000DE002206946087204200396F8700D4802
:10CC800000213838FFF7D2FD00280ED10620207190
:10CC90006079002803D0684673DF002805D1E16879
:10CCA000002901D020798847002007B0F0BD00009E
:10CCB000E82000201C26002073B586B004002FD089
:10CCC0006A46217C127F0020914227D00025012650
:10CCD000684600950680458007A80190E188608A33
:10CCE0006A46A4DF002819D16846007F2074608A54
:10CCF0000D49884216D0207D002813D00295039557
:10CD000004950595E1886846018186724188818194
:10CD1000049001980590608A02A9A6DF08B070BD52
:10CD20000E20FBE70820F9E7FFFF000038B50D46AD
:10CD300004001AD0002D18D0286820600020C043BD
:10CD4000608228792075FF20207401216846817057
:10CD500007490180221D69460120A0DF002803D178
:10CD600029462046FFF7B4FC38BD0E2038BD000030
:10CD70000F18000038B5002824D0002922D00A88D6
:10CD8000102A1AD0112A1AD0502A1BD1027D002A4B
:10CD900018D0CA884389891D9A4213D14A89022A28
:10CDA00010D10268002A0DD04B7B0C7B1902214365
:10CDB000C907C90F07D0002106E0898801E00021DA
:10CDC000C943418238BD01216B46197069469047BD
:10CDD00038BD000070B5054601461C220E48FEF71E
:10CDE000EFF90E4C002626702968002906D008228B
:10CDF000201DFEF7E5F9201D7ADF02E00748001D3F
:10CE00007BDF002807D1401E60806670044A002145
:10CE10000448FFF797FB70BD082700200821002079
:10CE20008D1C0200607D0200F8B5214C02880027AD
:10CE30001E4DE689102A15D01E49112A21D0122A2A
:10CE40002DD0502A1CD1C288801DB24218D14289EF
:10CE5000022A15D1427B037B10021843C007C00F82
:10CE60000CD112E0818869800146104808221831EF
:10CE70000C30FEF7A5F96F70002E01D100F0AAFE6C
:10CE8000F8BD0020C04368806F700868FFF7F6FBAC
:10CE90000028F5D0A1690029F2D08847F8BD082202
:10CEA000811802480C30FEF78BF9E7E708210020D3
:10CEB00008270020607D02007CB5054608880C46E6
:10CEC0000930904201D90C207CBD684671DF0028F2
:10CED000FAD121880820685420881B21401C80B288
:10CEE00020802954208800A9401C80B2208040194D
:10CEF00006220131FEF764F920886946801D80B260
:10CF000020800978002900D0012129542088401C64
:10CF1000208000207CBD000070B5044601F020F8A0
:10CF20002046FFF781FF204600F08EF920880F4D44
:10CF3000102802D011280CD108E0072000F0F2FAE6
:10CF4000002801D0FFF7C6FAA08801E00020C04306
:10CF5000A8802046FFF730FD2146054800F03EF846
:10CF6000034821461C30FFF705FF70BD80200020DC
:10CF70003425002030B5184B0D4604000FCB85B08A
:10CF800003936B4607C324D0002D22D00020C0435A
:10CF9000A0822868A0610020A0752146684663DF52
:10CFA000002814D121786846817401210182A21CD5
:10CFB00004A90120A0DF002809D12946204603F05A
:10CFC0009FFE002803D12946204604F065FD05B0E8
:10CFD00030BD0E20FBE70000987D0200F8B504008C
:10CFE0000D4612D0002D10D028880026154F10288D
:10CFF0000CD0112818D0502807D113A10020FEF71B
:10D000005DFD2946204603F05DFBF8BD8888A082BF
:10D0100013A10020FEF752FD3B4617A21721002066
:10D020000096FEF713FBF8BD16A10020FEF746FDA3
:10D030003D463B461AA2172100200096FEF706FB4C
:10D04000A582F8BDFFFF0000424C455F47415454A4
:10D05000535F4556545F57524954450D0A0000002E
:10D06000424C455F4741505F4556545F434F4E4EDB
:10D0700045435445440D0A00434F4E4E454354200A
:10D0800000000000424C455F4741505F4556545FE9
:10D09000444953434F4E4E45435445440D0A000006
:10D0A000444953434F4E540007B584B000280DD077
:10D0B000828A114B9A420BD0827D002A08D06A46A0
:10D0C000128B142A06D9072007B000BD0E20FBE7FB
:10D0D0000820F9E7002200920192029203928289CD
:10D0E0006B461A80039106A9029101219970808AEA
:10D0F0006946A6DFE8E70000FFFF00000A7802703B
:10D10000497841700220704700B51A4887B080689E
:10D11000059000234822184905A804F069F8002862
:10D1200001D0FFF7D7F96A460121002004F048F842
:10D13000002801D0FFF7CEF9104803F03FFE002889
:10D1400001D0FFF7C7F9684603F0BAFF002801D005
:10D15000FFF7C0F90A4803F0A9FF002801D0FFF744
:10D16000B9F9084804F066F8002801D0FFF7B2F9D1
:10D1700007B000BDC81E0200D8240020E81F002010
:10D1800019CF0100291402001CB5044681786A46B3
:10D190000C4803F03BFB002812D160781C21484367
:10D1A00009491C2340181A46694603F0F5FB064856
:10D1B00006494C30807A80000A58214668469047DC
:10D1C0001CBD00002C21002004280020787D0200D6
:10D1D0007CB5154E00250C463060002918D06946F4
:10D1E000002000F0C7F800281DD101A9012000F09F
:10D1F000C1F8002817D1684601790020002901D024
:10D20000022004E069460978002900D00B20207034
:10D210007068002806D1FFF79DF8054603A100209D
:10D22000FEF74CFC28467CBDA4200020656E74658A
:10D230007220636F6E6E656374696F6E20737461C4
:10D24000747573210D0A000010B51C4C01886068CC
:10D2500010290DD011290AD1401E606007D1FFF7B7
:10D2600079F8002803D02168002900D0884710BD34
:10D2700000281ED100210122084600F02FF90028C5
:10D2800001D0072811D107220221012000F026F940
:10D29000002801D0072808D104220221002000F034
:10D2A0001DF9002805D0072803D02168002900D0E7
:10D2B00088476068401C606010BD0000A42000200A
:10D2C00010B5032000F088FA002801D0062800D10C
:10D2D000002010BDF8B507460024234802E0641C76
:10D2E000042C1AD2A2008258BA42F8D1042C14D2CB
:10D2F0001D481E4E0C38002929D001290ED00229C4
:10D300000BD16000201880194578002D05D01848F1
:10D310000169002901D028468847F8BD61006118DD
:10D32000755C8E19717800290CD011490A22496860
:10D33000806851430E4A521CFFF762F9002801D160
:10D340000B4847700A48B17814300155DDE7806812
:10D35000FFF794F906486100611814308919005DDF
:10D360008D78A842D1D0F8BDE01E0200A82500208B
:10D370008C20002004280CD2074A1269074B800039
:10D380001B5C01209840904300D0012008700020D1
:10D3900070470020FAE7000000050050E01E020080
:10D3A000F8B51F260024314DF6020E283DD00CDCC6
:10D3B000042823D007282FD00A2805D12CA100202B
:10D3C000FEF77CFB03F03AFEF8BD0F283DD0102895
:10D3D000FAD1264D14231F3500211A460846009520
:10D3E000FEF7E6F82B4627A2002114200094FEF752
:10D3F0002DF926A10020FEF761FBF8BD25A1002034
:10D40000FEF75CFB29481321808876DF0AE00028BC
:10D41000F3D0FFF75FF8F8BD25A10020FEF74EFB23
:10D42000FFF728FB0828F2D1F8BD142300211A4683
:10D4300008460095FEF7BCF8334612A200211420DE
:10D440000094FEF703F921A1D4E7142300211A4622
:10D4500008460096FEF7ACF82B460AA200211420DD
:10D460000094FEF7F3F81BA1C4E70000E0FF000002
:10D470004253505F4556454E545F534C4545500D01
:10D480000A00000046443230313800006B657933C1
:10D490000D0A00004253505F4556454E545F4449C3
:10D4A00053434F4E4E4543540D0A00008020002048
:10D4B0004253505F4556454E545F57484954454C7A
:10D4C0004953545F4F46460D0A0000006B657931A1
:10D4D0000D0A00006B6579320D0A000070B500235B
:10D4E000042811D2440004190D4D012A02D101294A
:10D4F0000DD0002246008019094E801900290CD059
:10D50000012906D0022906D00723184670BD0D3028
:10D51000C2B22A55F9E74270F7E78270F5E70000DA
:10D52000A825002010B5054A0146127A0020D2072E
:10D5300002D0084600F054F810BD00008C200020F6
:10D5400070B50E46204905464E608D6000200A6188
:10D55000A9071ED50024012211462046FFF7BEFF71
:10D56000641C042C02D20028F5D012E0002810D14F
:10D57000720804211548FEF765FF002809D1FEF75F
:10D580004FFF002805D11148114A00211438FEF739
:10D59000D9FFE90706D00B220E4952058A60002305
:10D5A000CB608A6100280DD108480B4A00211C3845
:10D5B000FEF7C8FF002805D10448084A01211838A1
:10D5C000FEF7C0FF70BD00008C200020F01E02009E
:10D5D00015D80100000500504DF2010009C40100FA
:10D5E000FEB57A4D0522EB6892059A4302936B686B
:10D5F00000939C0006461B19002001210193490558
:10D600000746734C3300FEF77EFD180D151537479E
:10D6100055677C887F8891DE9E9E9E9E9EC7CDD05A
:10D62000D7DEDE140B21029A49059143A160E76021
:10D630002F70FEBDA260E76060680B22520550406B
:10D64000800209D5A160E760022E02D1E120C0006E
:10D650000AE07D20400107E0E160A760022E01D1D1
:10D66000C82001E0FF2091302E706421FDF77EFD7F
:10D670000099414300223FE0A260E76060680B220E
:10D6800052055040800204D5A160E7601920400196
:10D69000EAE7E160A760E3E7A260E76060680B2269
:10D6A00052055040800202D5A160E760D1E7E160F9
:10D6B000A760D7E7A260E76060680B225205504080
:10D6C000800202D5A160E76001E0E160A7602E70F2
:10D6D0000098410000220FE0A260E76060680B2222
:10D6E00052055040800202D5A160E76001E0E16090
:10D6F000A7602E700099002236480068FEF780FF70
:10D70000FEBDA260E7601BE0616801208005024663
:10D710008A43A2600140E16010E060680121890550
:10D720000A468243A2600840E060E3E760680121A6
:10D7300089050A468243A2600840E0600199C9E772
:10D74000E160A7602CE023484068FEF797FF1121B5
:10D750008A1B01D0002807D00B22E968520511402E
:10D76000A160E760EF60FEBD01218905E960012A43
:10D770000BD9C82050436421FDF7F8FC69680022EA
:10D78000414314484068FEF73BFF0B22E96852050D
:10D790001140E160A760FEBD0B214905A160E76073
:10D7A0002E70FEBD05229205ABE709214905A16057
:10D7B000E76001218905C3E701210906A160E7604F
:10D7C00003214905BCE70B214905B9E78C2000205E
:10D7D00000050050D41E0200F0B500210B4C0C4D8A
:10D7E00003273F048A00A258920056193268012389
:10D7F0008B40034000D00323BA431B041343336020
:10D80000491C0429EED30020F0BD0000E01E0200F8
:10D810000007005010B500780221FFF75BFD10BD36
:10D820000022D243830004490428CA5002D30818B6
:10D83000203002777047000074280020F0B50025E2
:10D84000ED43002A02D00023042601E00423082629
:10D850000B4C04E09F00E7597F1C04D05B1CB342D3
:10D86000F8D32846F0BD26185DB2203635709E00EC
:10D87000A151002AF5D1E11820310877F1E7000025
:10D88000742800200249091820200856704700001B
:10D8900074280020F8B53E481422017851430C1832
:10D8A000E0680C2148433A492769CC314018058982
:10D8B00041890091241D466803F03AF80146384634
:10D8C000FDF754FC002932D000200099A2884D4376
:10D8D0006188AE198918CD1900222E4900280A61E5
:10D8E00009D003F025F86188884222D0B54202D1E0
:10D8F000A08800281DD0A06803281AD003F018F8CB
:10D90000A188CA1901461046FDF730FC214C880851
:10D91000E06003F00DF801462846FDF727FC0029DA
:10D9200011D00020B5422FD000280ED02CE00120CD
:10D93000CBE702F0FDFF01463846FDF717FC15491D
:10D940004861032021E00120ECE7ADB2B7B202F05C
:10D95000EFFF01463846FDF709FC064602F0E8FFF6
:10D9600001462846FDF702FC864201D1781B09E0FA
:10D9700002F0DEFF064602F0DBFF01462846FDF717
:10D98000F5FB701A80082061022003F06BFBF8BDE4
:10D99000D82800203421002010B50748142201782F
:10D9A000514308180079042802D000F059F810BD3E
:10D9B000012003F057FB10BDD828002010B50B48FC
:10D9C0001422017851430818094AC188116200796C
:10D9D000012806D0032801D0042801D1FFF75AFFFF
:10D9E00010BD012003F03EFB10BD0000D828002030
:10D9F0003421002014225043054A0021801801716F
:10DA0000C18002220161C260416101817047000052
:10DA1000D8280020F8B5104C069E65780A2D19D03C
:10DA200027787D190A2D00D30A3D14277D432D192F
:10DA300028716A6103C92961E860EB802E816078F2
:10DA4000401C607005480078002801D1FFF7B6FF40
:10DA50000020F8BD0420F8BDD82800203421002083
:10DA600010B50D4C14212078484301190020091DE0
:10DA7000FEF742FD2078FFF7BDFF6078401E607022
:10DA80002078401CC0B220700A2801D100202070EC
:10DA9000002003F0E7FA10BDD8280020F8B523488D
:10DAA000C16800293ED00E6821494C680769C078DA
:10DAB000E11B0D022D0AED1C002814D101201D4A86
:10DAC000000450601B4A403A50601B494000086007
:10DAD0001A4908601A49012008602F20FDF71AFB37
:10DAE00012490120C870B54200D23546E81900023B
:10DAF0000F4B000A403318600D4A5168001B091B88
:10DB00000902090A0002000AC91C814209D95068A9
:10DB100018602F20FDF7FEFA0120074940048039E4
:10DB20000860F8BD03F0AEF8F8BD00006C210020DD
:10DB3000001501404013014080E200E000E100E0F8
:10DB400000100140F8B50646108814468446801D32
:10DB50000D46984201D90C20F8BD32880720062ACC
:10DB6000FAD31927FF01184BBA4201D99A42F3D1CF
:10DB700071880629F0D3B94201D99942ECD19A4271
:10DB800003D0994201D08A42E6D805216046295443
:10DB900020881221401C80B2208029542088401CFB
:10DBA00080B220804119308804F060F82188401844
:10DBB00080B220804119708804F058F821884018FC
:10DBC00020800020F8BD0000FFFF000010B5FEF728
:10DBD00081FC10BDF8B5164801F0B4FA144D0026CA
:10DBE0000C3D144C002807D0616900291CD001208D
:10DBF0006A461070684616E02878002805D06169EA
:10DC0000002911D0684606700DE0687800280DD014
:10DC1000A168094800220068FEF7F2FC002803D042
:10DC2000A169002900D088472E70F8BD6168F0E72F
:10DC30001421002008270020607D020070B5094BE8
:10DC400004469E7A082000250E4207D006488442EA
:10DC500002D01889A04202D10020156070BD0520B5
:10DC600070BD000044280020FFFF00000C21484345
:10DC7000064910B5012240188272911E0181FF21D0
:10DC8000C1720721FDF7B5FA10BD0000442800203D
:10DC900010B5134C207900071FD46069401C6061E7
:10DCA000E068002801D0042004E001F07DFA00289B
:10DCB00003D0022003F0AEFB10BD2069002809D07C
:10DCC0006068C10701D00320F4E7012108436060C8
:10DCD0000020EFE7FFF760FE10BD03F08FFB10BDE3
:10DCE0003421002010B5084841680A0708D48A0783
:10DCF00002D5012211434160022003F08BFB10BDCD
:10DD000003F07CFB10BD000034210020F8B5002694
:10DD10000124154D23E06968F00047183878214642
:10DD20002A698140114218D08A432A6102F0C8FB57
:10DD30003A782146EB689140194003469340994256
:10DD40000BD17978012901D0012100E000217B6805
:10DD50004140002B01D010469847761CF6B2287837
:10DD60008642D8D3F8BD000058210020FEB50E46EB
:10DD7000044681786A46234802F048FD002826D1EF
:10DD800060780C21204F4843C019807A40061FD488
:10DD9000022E1DD0012E1DD01C4DA0781C21484301
:10DDA0001B49002341181C226846A847002813D0AD
:10DDB000022E0CD020780C21484313490C31401816
:10DDC000807A144980000A58214668469047FEBD73
:10DDD000114DE2E7114DE0E7022EF8D060780C21FA
:10DDE0004843C019817ABF221140817260781C219A
:10DDF00048430549403941181C231A466846A8473C
:10DE0000D8E700002C2100204428002081130200C4
:10DE100040270020687D0200E10B0200010B020098
:10DE200070B50546114A124800241C2363431B1891
:10DE30009B7EFF2B04D0641C072CF6D3104670BDCC
:10DE40000A78022A09D01C2262431018FD22827629
:10DE500007221030FDF7B4F904E01C2161430818D3
:10DE6000FE2181762C700022E8E70000438000004C
:10DE700040270020F7B505250F4F06460024002E49
:10DE80000AD01C206043C019072231461030FDF72C
:10DE9000BBF9002807D00AE01C206043C019018BA1
:10DEA0000298814203D101980025046002E0641CBD
:10DEB000072CE4D32846FEBD402700207CB505464C
:10DEC00081B26A46074802F0A1FC040008D174211F
:10DED000684602F0C7FC040002D1284602F04AFC62
:10DEE00020467CBD2C21002010B5100001D0FEF78B
:10DEF000F1FA002010BD00001FB56946087302F05A
:10DF00001DFD002801D0FEF7E5FA03A800F01AFA7B
:10DF1000002801D0FEF7DEFA01A805210130FDF747
:10DF200068F9694649790120014381221140303165
:10DF30004A06520E69464A7107228A711022CA7136
:10DF40000549009169460871044800F021FB00284A
:10DF500001D0FEF7BFFA1FBDE9DE010082200020DC
:10DF6000F0B591B00546FF24002007940290E948DF
:10DF70000078002849D0E84F3868002845D001A82B
:10DF800000F0D2F9002801D0FEF7A4FA281D059070
:10DF90002C2069460883FF20002688710E710396A5
:10DFA000DD4C28880C3C10280ED0A88803AA02213A
:10DFB000FFF744FE002807D103980C2141430919BB
:10DFC000CA7A69468A7148712A881320192A7DD035
:10DFD0000FDC102A1BD0112A55D0132A77D0142A0F
:10DFE00013D103980C2148430019C07AFF286FD041
:10DFF000A1E0CA491A2A6CD01E2A65D0522A04D13F
:10E00000B87A8000095801A8884711B0F0BDC44F04
:10E0100003AA01213846FFF711FE0028F5D1039924
:10E020000C20484302220019827211236A4613749D
:10E030005171A98801812946083107220091FDF715
:10E04000BFF8E87DC10707D04108B2480830405CFE
:10E05000FF2808D0079006E03A4607A90098FFF786
:10E0600009FF002837D103990C2251430919079859
:10E07000C8728A7A08231A438A726946887101A88D
:10E08000FFF782F827E003980C2148430119887AAA
:10E09000FD2210408872010706D5C0090DD000216D
:10E0A00001A8FFF763FE08E068468079FF2804D0E6
:10E0B00002F060FBFF206946887103980C225043F0
:10E0C0001021001981721220694603E08BE043E0C1
:10E0D00014E0E4E00874324604A901A8FEF706FA49
:10E0E0006846007C122890D103980C2141430919FD
:10E0F000897A012989D0FFF7B9FD86E72A8A07A91D
:10E100000020FFF7B7FE00280ED103990C225143DF
:10E1100009190798C8728A7A08231A438A726946CD
:10E12000887101A8FFF730F803980C2148430019C3
:10E13000C07AFF2806D003981C21484376494C3901
:10E140004018029003981C21484376494218A88839
:10E150000023029986DF58E76946087403980C216A
:10E1600048430119887A042210438872CA7AFF2A28
:10E170000BD0402210438872162069460874002391
:10E18000A8881A4685217FDF21E007A8FFF748FE0F
:10E1900000281FD0064600200D9003990C224A4308
:10E1A0001219D27A1C235A435E4B0F90D2180E924A
:10E1B0001C2251431A46C4328918109009910A90C2
:10E1C0000B900C903A1DA88809AB00217FDF002836
:10E1D00093D180E769460798887103990C225143CF
:10E1E0000919C872D7E7787A0C2140084000787284
:10E1F00003986F4602464843011984468B7AFB20F8
:10E2000003408B7214203874287A002806D05806F0
:10E21000DFD4C87AFFF752FE2E7A5CE7687A4007AF
:10E22000D7D5B879FF28D4D008273B438B726B7BB6
:10E230009B0708D51C2503466B433A4D5B199D7E11
:10E240006D086D009D76CB7AFF2BC2D06346E35CF0
:10E25000022B10D01C225043324D0722401910309F
:10E26000FCF7AEFF684680791C2148434019817E47
:10E27000FD2211400DE01C214A4327494C39511819
:10E280004A8A1C214843274940180283817E490855
:10E2900049008176012101A8FFF768FD1BE7287A74
:10E2A0000209012A23D10007000F01281FD103987A
:10E2B0000C2242431219927A120718D5242148439E
:10E2C0001549303940181A210830FCF792FF162002
:10E2D0006946087403980C2148430119887A602222
:10E2E00010438872787A0221084378720FE003980D
:10E2F0000C2250430019827A80231A43827215201F
:10E300006A461074B87A8000095801A88847002628
:10E31000E1E600001C21002050280020887D02003A
:10E32000FFFF000040270020002806D0FF210170D9
:10E3300041708170C1700020704701487047000033
:10E340000E800000F0B585B0040036D029480025C5
:10E350000560457285722846FFF788FC2548242110
:10E360003038FCF746FF0026FF27304602F002FA5D
:10E3700021488755761C072EF7D374216846818083
:10E380000721C1801D481C4900900831684602F0F1
:10E3900059FB00280FD1184E0120083E307020781C
:10E3A00000280CD069468888C988484381B2304625
:10E3B000103002F057FA05B0F0BD1148FBE7114FDD
:10E3C00000240D48A1B202AA083002F01FFA00286A
:10E3D00009D11C206043C01900231C2202A902F0AD
:10E3E000DBFA002801D03570E5E7641C072CE8D380
:10E3F000E1E70000502800202421002009E401006A
:10E400000E80000040270020FFB55C4891B00068F6
:10E410001A9F1E46002873D0742F71D86846FFF7E4
:10E4200083FF002801D0FEF755F8002468460470E9
:10E430000471254605970696A9B20FAA504802F026
:10E44000E5F9002806D108220FA91198FCF7DCFE97
:10E45000002817D06D1C072DEED368468578FF2D58
:10E460004ED01298032810D046481C21301AFCF7D1
:10E470007DFE012707281ED204A8029013980028C9
:10E480000BD011E068468570E7E7742F03D0402079
:10E49000694608716BE02020FAE738463849A84001
:10E4A00010394968084260D0284603F0E5FB202077
:10E4B0006946087149E031481C214C38301AFCF794
:10E4C00055FE00281DD02D4824213038301AFCF785
:10E4D0004DFE01002C482BD040216A4611712B497A
:10E4E0008E4244D0274AA9001C3A5158B1423CD12F
:10E4F00004A90291C07A854227D16846447024E07D
:10E5000033E004A802902020694608714C701B4932
:10E510000B940C310C9158390791694689781C226B
:10E520005143184A05908918089107A906910CE0F3
:10E53000302269460A714C70CF70807A800704D40B
:10E54000114824212438FCF754FE12986946022809
:10E55000087910D0022108436946087104A8029086
:10E5600001A96846139AFDF7C1FF15B0F0BD6946D1
:10E5700008790321EFE73843EFE700005028002037
:10E580002C2100204027002044280020647D020028
:10E5900070B5064618480D46007800280ED0174979
:10E5A000002E0ED0002D0CD02868002809D0144C65
:10E5B0002168002907D011480A3870BD0F48801F14
:10E5C00070BD084670BD20600522691D201DFCF746
:10E5D000F7FD2879A072207A022140084000084304
:10E5E000FB2210402072E0790123184308431040B9
:10E5F000E0710020307070BD1C2100200E800000F2
:10E600005028002008B5002809D020216846017054
:10E6100028214170302181703821C17004E0A3228B
:10E6200004216846FCF7DEFD6A460421024801F039
:10E63000E5FD01F005FB08BD9E0A0000FEB504469D
:10E6400005206946087095204870C6258D701220F7
:10E65000C8706A460421682001F0D0FDA3206946F5
:10E660000870610607D5C02269464A70C8228A70C0
:10E67000C222CA7003E0694648708870C870E60517
:10E68000B10F06D0C42269460A71CC224A718D713D
:10E6900003E06946087148718871C8710872487250
:10E6A0000A460A214C4801F0A9FDA007D8250028F8
:10E6B00003D020206946087001E06846057046488E
:10E6C0006A4601210F3001F099FDA00601D5012015
:10E6D00000E0002000F08AF8B00F19D0E00508D55E
:10E6E000B221684601708B214170B62181709B2157
:10E6F00007E0B0216846017080214170B42181702B
:10E700009021C170024634480421401F01F076FD7B
:10E710003248E10721D0F8216A461170012101F049
:10E720006DFDFA21072000F0BBF9072000F08AF9FF
:10E73000012000F0A2F9642000F04AFAFF20F53031
:10E7400000F055FAC821264800F048F9282000F0CA
:10E750005BF90A2000F067F905E069460D706A462A
:10E76000012101F04BFDA00703D5D92069460870AF
:10E7700001E0684605706A4601211A4801F03EFD35
:10E78000600701D5012000E0002000F04FF8E0060E
:10E7900001D5012000E00020FFF734FF0820124DD2
:10E7A0002043688101F04CFA0020A873600601D56F
:10E7B0000620A873B00F02D0A87B801DA873142078
:10E7C000044202D0A87B1030A873A00702D0A87B17
:10E7D000001DA8730020FEBDA70A0000B0080000BD
:10E7E00012C695053D070000D42500200EB59723DD
:10E7F000DB00002802D007A107C901E008A207CA70
:10E800000292019100906A460921184601F0F6FC37
:10E810000EBD0000B8AAB38DB4980D355D000000A0
:10E82000B8AAAAAAB088C3C5C700000008B50028C6
:10E8300009D0C02168460170C2214170C421817095
:10E84000C621C17004E08B2204216846FCF7CAFC93
:10E850006A460421024801F0D1FC01F0F1F908BD3B
:10E86000980A000010B5012264239202024903486D
:10E8700001F018F910BD000068710200F60B0000ED
:10E8800030B5044613A207CA85B06B46002507C3FE
:10E89000ED43642C16D821466420FCF767FC401E2B
:10E8A000020A69460A73487303AA02210C4801F060
:10E8B000A5FC002806D16A460C210A4801F09EFCFE
:10E8C000002802D0284605B030BD074884810020CA
:10E8D000F9E70000FEF2ABC4AAF1DFDFBBAFDFDF78
:10E8E00016020000C10A0000D4250020F0B504463D
:10E8F00085B034A00068029033A00068039033A074
:10E90000076833A0A607B60F02A905688A5D6846A6
:10E910000270E006830FCA5C684642702006820FD0
:10E92000895C6846817003A98E5D0671CB5C43717A
:10E93000895C81716A460321264801F05FFC00264C
:10E94000F643002836D1234801AA0321001D01F017
:10E9500055FC00282ED16007012100970195002861
:10E9600006DA684602780A43027002790A430271A5
:10E97000A00606D5684642780A43427042790A43A7
:10E980004271E00506D5684682780A438270827932
:10E990000A43827111206A460321800101F02EFC96
:10E9A000002807D10B4801AA03210B3001F026FCF7
:10E9B000002802D0304605B0F0BD07480481002091
:10E9C000F9E700004CCD6C000CC92C0036567600DF
:10E9D0002646660026040000D425002038B50C46E3
:10E9E0007D21C900FCF7D8FB6043020E69460A701E
:10E9F00002144A7002128A70C870FF206A4604210D
:10EA00005D3001F0FBFB38BD08B50A21FCF7AEFB19
:10EA1000020A69460A704870FF206A4602215B308C
:10EA200001F0ECFB08BD08B50A21FCF79FFB020AC8
:10EA300069460A704870FF206A460221593001F089
:10EA4000DDFB08BD08B500216A461170C10701D081
:10EA500030211170810704D511780C2211436A46C8
:10EA60001170400703D51078032108431070FF2070
:10EA70000121493001F0C2FB08BD08B500280CD0C7
:10EA8000042800D904206946401E0870FF206A4609
:10EA90000121503001F0B2FB08BD0120F3E7000076
:10EAA000FEB50546444E40077DD0192080018142C5
:10EAB0007ED80846FCF745FC4049FCF7F8FB0746C2
:10EAC00001A800F039FF68460079022806D0042822
:10EAD0000DD008282CD010286AD132E00E213846FB
:10EAE000FCF723FCFCF734FC84B2354907E00D2128
:10EAF0003846FCF71AFCFCF72BFC324984B2384646
:10EB0000FCF798FBFCF724FC220A69460A7080B2E5
:10EB10004C70020A8A70C870E8070C4622D00A4678
:10EB2000FF200221D53001F069FB002840D111E01F
:10EB30000C213846FCF7F9FBFCF70AFC84B22249A9
:10EB4000DDE70B213846FCF7F0FBFCF701FC84B253
:10EB50001E49D4E7FF20A21C0221253001F04EFB04
:10EB6000002825D1A8070FD5FF206A460221D930F9
:10EB700001F044FB00281BD1FF20A21C02212930F8
:10EB800001F03CFB002813D1680713D5FF206A462B
:10EB90000221DD3001F032FB002809D1A21C022144
:10EBA000FF202D3000E003E001F028FB002801D019
:10EBB0003046FEBD0020FEBDFFFFFFFF0000C84243
:10EBC000000040460000C045000040450000C04431
:10EBD00008B50A21FCF7CAFA020A69460A704870A9
:10EBE000FF206A460221DF3001F008FB08BD08B5AE
:10EBF0000A21FCF7BBFA020A69460A704870FF2036
:10EC00006A460221DB3001F0F9FA08BDF8B5064684
:10EC100000213F237F220846FCF750FE0025370ADB
:10EC20000024F1B2F8B2FDF7C4F8641C802CF8D3CC
:10EC30006D1C402DF4D3F8BD10B50E4900234A7861
:10EC40008C78A24212D0521CD2B24A70022A00D151
:10EC50004B704A78074B920018339A580260086943
:10EC600010180002000A0861012010BD0360002096
:10EC700010BD00006C21002010B5002803D0112821
:10EC800002D0FDF74FFC10BD024808224168114335
:10EC9000416010BD3421002010B51C4C2178204665
:10ECA0004068012906D0022929D0032912D1000782
:10ECB00017D513E0000711D41548142201785143E9
:10ECC0000818C188A28B891A0904090CC18002D0D6
:10ECD00002F058FB10BDFEF7C3FE10BD00F0E8FCCB
:10ECE00010BD6069401C606100F05EFA002803D02E
:10ECF000207802F0B7F910BDFEF74EFE10BD607827
:10ED0000044980000858804710BD000034210020CD
:10ED1000D8280020BC7D020010B528DFFFF7ACFF2B
:10ED200010BD10B529DFFFF7A7FF10BD002804D0E4
:10ED30000349496D016000207047032070470000BF
:10ED4000042A0020002070470020704700207047F0
:10ED5000F8B506464078242104464C4324490C2249
:10ED600050436118224A00254B6824328018AE4671
:10ED70002F469C46002B0CD0827A1346D20908D02D
:10ED80005A0606D40D461A4A614689B21759083503
:10ED90008E46174C008924343B4672462946A9DF2B
:10EDA0000B2819D0002800D01248012F13D17078F9
:10EDB0000C214843001900890F4AA7DF00280AD018
:10EDC0000E49884212D0082810D0891C88420DD0E4
:10EDD00011280BD00020F8BD70780C214843012386
:10EDE0000019008972462946A9DFE0E70148F8BD0D
:10EDF0002028002041800000FFFF000002300000BA
:10EE000070B50C46014660782422084D50434019E5
:10EE1000382301F0C1FD002807D161782422514335
:10EE200049194A68521C00D14A6070BD2028002050
:10EE3000F3B589B00D461A206946888368780C219D
:10EE400003274843224E3B468019008907AA69469A
:10EE5000AADF002838D1687824214843741A0019A1
:10EE600069468A8B0830FCF7CFF90028687807D00C
:10EE7000242148430119496800290DD0154E0CE0A2
:10EE80000C2141438919897A89071DD424214843DB
:10EE90000019FCF7AEF917E00F4E27506846828B39
:10EEA0006878242148430019426068784843001973
:10EEB00069460830FCF784F9687824214843011931
:10EEC000382324220998B04700200BB0F0BD000081
:10EED00044280020E10B0200010B020010B5FFF7EF
:10EEE00037FF10BD10B5FFF78BFF10BD10B5FFF752
:10EEF0009FFF10BDF8B50746104E0125BD40306894
:10EF0000FDF7BCFB00280DD10D4C2069284207D12C
:10EF1000384601F0D5FA0028E06804D0284303E021
:10EF2000A8432061F8BDA843E0602069002228437F
:10EF30002061A1683068FDF763FBF8BDD07D020059
:10EF40005821002070B51B4C207900072ED41A4898
:10EF50001422017851430D182E6901F0E9FC014695
:10EF6000E8882A89761E80188019FCF7FFF8216945
:10EF70000025002909D06169814206D1E5606068F9
:10EF800001210843606000200AE000F00DF900282C
:10EF900002D00220E56003E02069002803D00320AE
:10EFA00002F038FA70BDFEF7F7FC70BD02F026FAE9
:10EFB00070BD000034210020D8280020F8B51C4C7A
:10EFC0002078002833D02069002807D00026E06888
:10EFD000002805D00025002E04D011E00126F6E718
:10EFE0000125F8E7684652DF052804D0002804D040
:10EFF000FDF770FA04E0012602E0216900988847D5
:10F00000002D10D1608869460880A06861DF05285E
:10F0100004D0002804D0FDF75DFA04E0012502E0E9
:10F02000E168A0688847002EDCD0002DD3D0F8BD61
:10F030009021002010B5034600F00DF80446D81CBE
:10F0400000F009F8C2002243981D00F004F8800186
:10F05000104380B210BD00214156002901DD00207F
:10F060007047002901DA0420704701214156002928
:10F0700001DD01207047002901DA052070470221D7
:10F080004156002901DD02207047002901DA0620DF
:10F090007047072070477FB50C460D462035064661
:10F0A000697828780191009022462632D11E304698
:10F0B000E36902F012FC002819D1E87800281DD17C
:10F0C000207B022801D0032818D12269E1699142EE
:10F0D00014D16269E261E37B2B70217E8906C90F3E
:10F0E0006970032804D03146204602F099FB7FBDA9
:10F0F00000913146204602F073FC7FBD20460C3063
:10F1000007C801AB07C3E878002100280ED009200A
:10F11000C0013218506C5064820701D5012002E012
:10F12000400705D502206A46107001E0684601706C
:10F130002971207E4007E0D42268684661689047C4
:10F140007FBD0000418805480288914204D3408871
:10F15000814201D801207047002070470C21002017
:10F160001048018CC9B2012917D1818C090714D12B
:10F17000018D09060A0F03D1828D1206120F0ED0DF
:10F18000090F012903D1828D1206120F07D003291E
:10F1900003D1808D0006000F01D0002070470120B0
:10F1A00070470000C00F00F070B50E4814220178BF
:10F1B00051430C18256901F0BBFB0146E088228908
:10F1C0006D1E80184019FBF7D1FF07494A6982423A
:10F1D00006D3824202D10869002801D0002070BD08
:10F1E000012070BDD828002034210020800701D0E4
:10F1F000002070470120704730B51588EC1C9C42F8
:10F2000001D90C2030BD02244C5513881C255B1CF1
:10F210009BB21380CD5413885B1C9BB213800128D2
:10F2200007D0022807D0032807D0042807D00720DA
:10F2300030BD002004E0012002E0CC5401E00320B6
:10F24000C8541088401C1080002030BD10B5044800
:10F25000017AC90702D00078FEF7C2F910BD00009C
:10F260008C200020F8B52C49C8680A690C780F7901
:10F2700089688646944600913EE00099E200551860
:10F280002A7836E0182353436968521CC918AB78B2
:10F29000D2B2934200D100220B78022B02D0032B72
:10F2A00027D123E04E680346014603E0B14204D073
:10F2B0000B46C96900291CD0F8E7002919D08B42F8
:10F2C00008D1C069002805D1144F0126BE60002670
:10F2D000B44601270E68C969D961002909D00B68B5
:10F2E0009B190B6005E00174C06900E00021002853
:10F2F000F9D169789142C5D12146641EE4B2002952
:10F30000BBD1054962460A61C8600F71704501D0E2
:10F310000120F8BD0020F8BD6C2100200010014044
:10F32000F8B5044631480026C168009107784EE0E0
:10F330002E48F90080680D1843E0002C02D02046CA
:10F34000E4691FE02878182141436A68401CC0B274
:10F3500051182870AA78904200D12E700A78486817
:10F36000012A30D1027C002A2DD18A684260CA6805
:10F3700082600A69C260496981611C490979002972
:10F3800000D04660194943680A699C46991A0902E7
:10F39000174B090A994202D28268891807E0614630
:10F3A000511A09028268090A8A4202D9511A016077
:10F3B00000E006604660012186600174C66102F0CB
:10F3C00093F8002CB9D1287869788842BAD13846A8
:10F3D0007F1EFFB20028ABD10448C168009881426B
:10F3E00001D00120F8BD0020F8BD00006C210020F4
:10F3F000FFFF7F0038B50E4C2078002801D0002098
:10F4000038BD0125AB020B4A0BA100200095FCF78B
:10F41000EFFA002807D11023094A0AA10090FCF74F
:10F42000C1FA002801D0082038BD2570E7E70000A8
:10F430008C210020672A00204E6F726D616C0000E5
:10F44000672E0020496E7075740000000FB408B577
:10F4500004A900916A460399FCF73CFB01B008BC83
:10F4600004B0184788B0042001F093F80121192056
:10F4700001F086F800210A2001F082F81A2001F03C
:10F4800088F80023714A09211846FDF771F8002811
:10F4900001D0FDF71FF86E4A01216E48FDF752F8C2
:10F4A000002801D0FDF716F86A486B4A0121001DBB
:10F4B000FDF748F8002801D0FDF70CF8674A6849C5
:10F4C0000320FEF73DF8002801D0FDF703F801A95D
:10F4D0000020FDF77DFE002801D0FCF7FBFF684609
:10F4E0000079022871D0002168460170FCF72AFCDF
:10F4F000FCF7E2F802F098F8FDF706FE684600789F
:10F50000FEF7FAFC01200146103168460172102214
:10F5100054A102A87CDF002801D0FCF7DBFF002407
:10F5200000945021684601940180A0214180FF2170
:10F5300084809131C1807ADF002801D0FCF7CAFFB6
:10F54000FCF726FF01F00EFD1C216846FBF751FE7B
:10F550000520C00301900F200004029000940321B5
:10F5600068460173C481047443480590434806907B
:10F570006846FDF72FFC002801D0FCF7ABFF354DA6
:10F58000002221216868FDF73BF8002801D0FCF734
:10F59000A1FF3B4E0127192001F026F8012816D0C3
:10F5A0000020FFF733FB374E37A2334600211420EB
:10F5B0000094FCF74BF8682000F0BAF8002822D03D
:10F5C000334633A200941AE0FFE701218CE71920AB
:10F5D00001F00AF8012802D1F078002806D0F0786E
:10F5E0000228D8D12C4940068860D9E7F770D2E7C5
:10F5F0002AA10020FCF762FA33462BA200941821BE
:10F600001420FCF723F800F04BF90200F0D1334648
:10F610001FA2182114200094FCF718F801210022E1
:10F62000C9032868FCF7ECFF002801D0FCF752FF63
:10F630000320FDF74BFA03E0322000F061FE48DFC3
:10F640000028F9D0FCF746FFF6E70000F021002083
:10F6500009C80100C81E02006D1D0200A1D30100EF
:10F66000CD0C00004E6F726469635F556172745F08
:10F670005465737400000000A5060200CDDB010094
:10F6800080200020FFFF0000464432303138000067
:10F69000747275650000000000050050746D7020E4
:10F6A0003D2025640D0A000066616C736500000052
:10F6B00010B504480822416891434160007801F088
:10F6C000D1FC10BD3421002070B5144682880E464E
:10F6D00005462088111D4118921C994201D8FE2A26
:10F6E00001D90C2070BD521C32542088FF21401CCF
:10F6F00080B2208031542088401C80B22080811943
:10F70000288802F0B3FA2188401880B22080AA88A5
:10F71000002A09D0A968002908D08019FBF750FDFC
:10F720002088A98840182080002070BD072070BD67
:10F7300010B50649400008700721682000F03EF827
:10F74000044600F049F8204010BD0000AC20002025
:10F750007FB50C4D1C4616460023012201A92878CE
:10F7600001F0EEFF2878012108430B46324621467E
:10F7700001F0E6FF002802D0002004B070BD012097
:10F78000FBE70000AC200020F7B50B4C15460E46F9
:10F79000002301226946207801F0D2FF0746207835
:10F7A000012108430B462A46314601F0C9FF0146B4
:10F7B00039400846FEBD0000AC20002008B56A466E
:10F7C000107051700348012302226946007801F04D
:10F7D000B7FF08BDAC20002008B50122694675209E
:10F7E000FFF7D2FF002804D068460078682801D0CF
:10F7F000002008BD012008BD70B586B00E461D462C
:10F80000144614216846FBF7F4FC68460670002095
:10F81000694604E02A5C0B18401C5A70C0B2A04232
:10F82000F8D30748641CE2B20123007801F088FF96
:10F83000002802D0002006B070BD0120FBE70000C8
:10F84000AC200020F8B54108144800250079490093
:10F85000002801D00020F8BD104C0026203CA07AE2
:10F86000F64300280FD00840277C2074884200D03F
:10F870003546002909D0012001F0AEFB00F0E0F987
:10F88000002808D027743046F8BD207D002800D01D
:10F89000012001F0A1FB2846F8BD0000D020002087
:10F8A00010B500F069F8002801D00A2010BD7820BA
:10F8B00000F046FC0006000E01D0012010BD7820AB
:10F8C000FFF7C0FF0006000E01D0022010BD64202B
:10F8D00000F0ECFB0006000E01D0032010BDFEF787
:10F8E000C1FF0006000E01D0042010BD1148FFF733
:10F8F000A1FBFEF7FBFF0006000E01D0052010BDA6
:10F90000FF207430FEF79AFE0006000E01D006209C
:10F9100010BD6420FEF7B4FF0006000E01D00720E2
:10F9200010BD012000F0E4FA0006000EF8D0092016
:10F9300010BD0000DC2000200E494A7A002A08D0C1
:10F94000012A08D0022A10D0032A10D00020C04378
:10F950007047022200E004220270C97C002902D014
:10F960001106C90D0170002070470822F4E710222B
:10F97000F2E70000B0200020FEB580206946484C28
:10F98000087020686B46817C606801220078FFF770
:10F9900033FF0027FF4300287AD1642000F0B0FC39
:10F9A00000256846057020686B46817C60680122EE
:10F9B0000078FFF721FF00286AD120686B46817D1F
:10F9C000606806220078FFF7C3FE002860D1694610
:10F9D0004879C978C007C907400F890F08436946AD
:10F9E00049780126C907C90F0843002804D0012817
:10F9F00035D0022811D04BE020686B46C178606892
:10FA000001220078FFF7A4FE002841D16846007863
:10FA10000007000F3CD0042821D0E574FF20A0721D
:10FA2000207260720021E072C943E1812074A074E9
:10FA3000314626731A4E2036B170F5706575304622
:10FA400025750C210A38FBF7D4FB357175717D20C3
:10FA5000E584000100F088FA002819D101E0E6747D
:10FA6000DCE7022000F0A2F9002811D12A2000F0E2
:10FA7000E7FA00280CD1322000F018FB002807D14B
:10FA8000FFF7E0FE002803D100F0C4F9002801D000
:10FA90003846FEBD002000F053FB0020FEBD0000F4
:10FAA000B0200020FFB5254E074670798BB0154673
:10FAB00000283AD10C98002837D0002423E0381BC6
:10FAC000102800DD102080B201900C9801990219D5
:10FAD0000392204600F092FB002826D105AA20467A
:10FAE000019900F081F800281FD105A9019A039817
:10FAF000FBF78AFB002803D00120C0430FB0F0BD04
:10FB00000198201884B2BC42D9D3290A68460B4C0C
:10FB100001744574203C206804AB817E6068022239
:10FB20000078FFF769FE002802D00020C043E5E717
:10FB3000012070710E98E0840020DFE7D0200020C3
:10FB4000F8B50546282840D80026264C002D0DD0B3
:10FB5000012000F041FA2020694601270870012D9C
:10FB600017D0052D17D84F7005201DE0002000F09C
:10FB700033FA684606700721417020686B46817C25
:10FB8000606802220078FFF737FE00281DD1267535
:10FB900025E04E70E8E7142D03D8022048700A20B3
:10FBA00002E003204870142000F04AFA69464878C1
:10FBB0006B468001C01D487020680222817C60680D
:10FBC0000078FFF719FE002802D00020C043F8BDDE
:10FBD0000820A072267327750020FFF733FE00204F
:10FBE000F8BD0000B0200020F8B5134F16000D46F8
:10FBF00020D0124CA17A00291CD0020A69460A7052
:10FC0000C0B24870411960684289914212D8216897
:10FC10000078097E6B460222FFF7EEFD002809D12D
:10FC20002068EAB2417D606833460078FFF790FDB6
:10FC3000002800D03846F8BDFFFFFFFFB0200020AD
:10FC4000F8B5594C0026A07AF64300287ED000254E
:10FC50006846057020686B46C17B606801220078A9
:10FC6000FFF7CAFD002871D120686B4641796068B2
:10FC700001220078FFF7C0FD002867D120686B469D
:10FC80000179606801220078FFF7B6FD00285DD198
:10FC900020462030007900283DD00C2069460870AD
:10FCA00020686B460179606801220078FFF7A4FDA7
:10FCB000002876D1322000F023FBC020694608706E
:10FCC000A07AC00701D0E020087020686B46017957
:10FCD000606801220078FFF78FFD002861D1607C09
:10FCE000002803D002206946087001E068460570CC
:10FCF00020686B46C17B606801220078FFF77CFDBD
:10FD000000284ED16846057020686B4641796068CE
:10FD10000122007841E004206946087020686B46A3
:10FD20000179606801220078FFF766FD002838D16C
:10FD3000A07C002812D1A07AC0070FD060206946AD
:10FD40000870206801796068007800E029E06B465F
:10FD50000122FFF751FD002823D101E04020EEE70A
:10FD6000322000F0CDFA607C002803D001206946E3
:10FD7000087001E06846057020686B46C17B6068CA
:10FD800001220078FFF738FD00280AD12068064BD1
:10FD900041796068103300780122FFF72DFD0028BB
:10FDA00000D03046F8BD0000B020002038B5184C17
:10FDB0000025A17AED43002923D0022806D004288B
:10FDC00006D008280DD010281BD10CE0002000E040
:10FDD0000820694608700978607AC908884204D00A
:10FDE00005E01020F5E71820F3E7002038BD206873
:10FDF0006B46C179606801220078FFF7FDFC00289E
:10FE000001D0284638BD68460078C0086072ECE72B
:10FE1000B0200020F8B5354C0646A07CB04201D198
:10FE20000020F8BD314DDF27296868682035097941
:10FE30000078002E6B4628D00122FFF789FC0028AD
:10FE40003DD1694608786B46384008702068012229
:10FE5000017960680078FFF7CFFC00282FD10320DC
:10FE600000F04EFA022069460870A878002832D0C7
:10FE700082202FE020686B46017D606801220078B7
:10FE8000FFF7BAFC00281AD12EE00122FFF760FC30
:10FE9000002814D1A07A6946C007087803D0202131
:10FEA0000843694600E03840087020686B460179D5
:10FEB000606801220078FFF79FFC002802D0002034
:10FEC000C043F8BD032000F01BFAA878002800D03A
:10FED000802069460870E8780028CBD00878302167
:10FEE000084369460870C5E7A67499E7B02000206A
:10FEF000F8B51C4D297981421FD02C460026203CA4
:10FF000000281FD06879002819D0002001F064F87B
:10FF10000020FFF77FFFE08C00F0C8F8684606700D
:10FF200060686B46007801222321FFF765FC012001
:10FF3000287101F051F8FFF783FE0020F8BD002082
:10FF4000C043F8BD002001F047F8207C69460870E6
:10FF500060686B46007801222321FFF74DFC2E716B
:10FF6000E9E70000D020002038B51A4C0025A17A1E
:10FF7000ED43002926D0FA280BD0FF38F5380AD0F7
:10FF8000FF38F53810D07D21C90088421AD11820D9
:10FF900002E0002000E00820694608700978207A15
:10FFA000C908884202D003E01020F5E7002038BDE0
:10FFB00020686B468179606801220078FFF71CFC9D
:10FFC000002801D0284638BD68460078C008207255
:10FFD000ECE70000B020002038B5184C0546E0786A
:10FFE000A84201D1002038BD002D01D0302000E012
:10FFF00000206946087011482038817C002905D00E
:020000040002F8
:100000006A461178022211436A461170A1780029CC
:1000100005D06A461178802211436A461170016842
:100020004068097D00786B460122FFF7E5FB002858
:1000300002D00020C04338BDE570D3E7D0200020B7
:1000400038B5194C0025A17AED43002926D0BC28EB
:1000500001D3012010E0622801D302200CE02A28FD
:1000600001D3032008E0142801D3042004E00A2867
:1000700001D3052000E0062069460870E07A09787F
:10008000884201D1002038BD20686B4681786068C5
:1000900001220078FFF7B0FB002801D0284638BDC8
:1000A00068460078E072EDE7B0200020F8B5234DF7
:1000B0000446A87A0027FF43002830D02846203085
:1000C000007900282BD1287D7D26F60000280AD053
:1000D000002C0CD0282C03D8E0B2FFF731FD2AE029
:1000E0000020FFF72DFD042C05D2042406E000209B
:1000F000FFF726FDF9E7B44200D9344621463046E1
:10010000FBF734F86946401E087028686B46417852
:10011000686801220078FFF76FFB002801D038469D
:10012000F8BD684601783046491CFBF71FF8E881A6
:100130004008FFF785FF0020F8BD0000B020002038
:10014000F8B505464006400F01270026002802D0DA
:100150006846077007E0002D02D06846067002E08E
:10016000402069460870244C6B4620680122817C3F
:1001700060680078FFF740FB00282BD168460078C4
:10018000BF210840207368460670680602D4042028
:1001900069460870A80605D4694608780221084314
:1001A00069460870E80603D4694608783843087041
:1001B000280705D46946087838210843694608703D
:1001C00020686B46C17C606801220078FFF714FB51
:1001D000002803D00020A672C043F8BD002D04D033
:1001E000082D02D00020FFF7F7FEA57226753220F9
:1001F00000F086F80020F8BDB0200020F8B5134FBD
:1002000016000D4620D0124CA17A00291CD0020AFB
:1002100069460A70C0B248704119606842899142CB
:1002200012D821680078097E6B460222FFF7E4FAB3
:10023000002809D12068EAB2417D60683346007821
:10024000FFF7DAFA002800D03846F8BDFFFFFFFFBD
:10025000B0200020F8B50F46017814460546012964
:1002600002D16878002806D02088821C9A422DD8B6
:10027000012902D006E00720F8BD69784118891CE1
:10028000994223D8181A801E86B2684606802188B3
:10029000B81C081869467DDF0028EDD128780228AF
:1002A00005D169460988B14201D809210AE008212F
:1002B000012805D16878B04202D86A46108001E072
:1002C0006846068068460088FE2801D90C20F8BDE3
:1002D0002288401CB8542088401C80B220803954A9
:1002E00020886946401C2080098840182080002012
:1002F000F8BD0020704700207047002070470000C4
:1003000031B5054C04E0401E00902046FAF7F2FE9D
:1003100000980028F7D138BDE70300008207D30E0C
:10032000FF229A408907090E10B5994000280BDA80
:1003300003071B0F083B9C080C4BA400E318DC6967
:1003400094430C43DC6107E08408094BA400E418E3
:10035000236893430B432360C106C90E01208840E4
:10036000044908600449086010BD000000ED00E089
:1003700000E400E080E200E000E100E0F3B581B0DD
:100380000F46019800F016FA012400281E4E01982D
:1003900017D0FDF777FA80192030007F80090328F5
:1003A00002D0012806D007E01848006901998C4066
:1003B000204201D1022100E00321019800F0FCF865
:1003C000FEBD00F003FA0028FAD00198FDF75AFAB2
:1003D00005468100C81D0E4AF93089180A6980B2A5
:1003E00022430A610B49401800210160002FE7D029
:1003F0000198FDF747FA800030580028E0D0064801
:10040000AC404460FEBD0000742800200005005090
:10041000006500400060004000630040FEB50446F7
:1004200023480E460019202141560027C8171346BD
:10043000401C01D0082738E0F27819462046FDF725
:10044000FDF90546401C2FD0B078002807D0194888
:10045000A1000918086802229043086007E0002103
:100460007378204600910A46019100F077F8F07801
:10047000002810D01048AA001018317802690F4BDC
:100480001A400261E206D20C8907890B0A4301690E
:100490000A43026109E00648327840192030017FA2
:1004A00092011143017700E004273846FEBD0000A9
:1004B000742800200007005000650040FFE0FCFFAA
:1004C00003490969C140C807C00F00D00120704727
:1004D0000005005070B5124D2879002801D0082081
:1004E00070BD0F4900204039421E0B182033401CBC
:1004F000C0B21A702028F8D300242046FDF790F9E6
:10050000641CE4B2082CF8D303210620FFF706FF91
:1005100001200449C007486001202871002070BDF7
:10052000B42800200063004002480079002800D071
:1005300001207047B428002030B552000A439900CA
:10054000039C0A432102049D0A4329040A430249E9
:1005500080004018026030BD0007005030B55200E6
:100560000A439900039C0A432102049D0A4329047B
:100570000A43024980004018026030BD0007005065
:100580001CB500220B46009211460192FFF7D4FFE2
:100590001CBD1CB5002100910B46012201911146A2
:1005A000FFF7CAFF1CBD0000024A0321800080182B
:1005B000016070470007005082000648101802686A
:1005C00003231B049A430260026809040A43026081
:1005D0007047000000070050012181400148C160C0
:1005E000704700000005005002490969C140C80772
:1005F000C00F704700050050012181400148816013
:1006000070470000000500500349401800680128A9
:1006100000D00020704700000060004040580028D3
:1006200000D0012070474058002800D001207047BA
:100630000322120280184068084000D00120704751
:10064000F8B516460D4600240AE02A5D0AA10020EE
:10065000FBF734FA291932460848FCF725FD641CDB
:10066000B442F2D30020A855054B2A46014600901B
:10067000FAF7ECFFF8BD00002578000034250020D3
:10068000FFFF000010B5002809D0032806D1022082
:10069000FCF748FF002801D0FBF71CFF10BD00F05D
:1006A000CDFC10BD10B50078002807D104483B21CF
:1006B000808876DF002801D0FBF70CFF10BD00001A
:1006C0008020002070B505468C1DC888298A884284
:1006D00002D16189022910D0A98888420CD1A86969
:1006E000002809D00CA10020FBF7E8F92146AB69EE
:1006F00062890C312846984770BD10A10020FBF795
:10070000DDF9607B217B00020843C007C00F00D0E9
:100710000120A87570BD0000705F6E75732D3E746A
:10072000785F68616E646C65732E76616C75655F69
:1007300068616E646C65200D0A000000705F6E7564
:10074000732D3E72785F68616E646C65732E6363AF
:1007500063645F68616E646C650D0A000021425C31
:10076000002A01D001207047491C0629F7D3002038
:100770007047000070B505461C200D4968434418B9
:10078000204611300621FAF734FD20461021FAF7F1
:1007900030FDFF2121740020A176C043208328462C
:1007A00001F06AFA024A0020A9001C3A505070BDBC
:1007B000402700200449081820214156042901DB64
:1007C0000120704700207047742800200449081851
:1007D00020214156042901D2012070470020704792
:1007E0007428002007490979490701D40820704777
:1007F000002804D0044949780160002070470E2089
:100800007047000034210020D828002070B5134B19
:100810001B795B0701D4082070BD002817D0002A7F
:1008200015D00368022B10D20C240D4D5C432E59B9
:10083000002E0AD0466860190489458940686143E2
:10084000654371182818884203D8072070BD0E2010
:1008500070BD13600020516070BD00003421002085
:10086000A4290020FEB5044626480E46007940071C
:1008700001D40820FEBD002C25D02068022836D2E5
:100880000C21214D48432958002930D04019418975
:1008900002894068514309186068814227D9FEF7F0
:1008A000A5FC002811D06068019021680C225143FA
:1008B0004F1979680091401A39890D46FAF756FCAC
:1008C000002914D103E00E20FEBD1020FEBD2946F4
:1008D0003046FAF74BFC002909D1002E07D0788961
:1008E00000994543019849198019884201D9072088
:1008F000FEBD002002460090334621460320FDF74E
:1009000089F8FEBD34210020A429002010B5074835
:100910004469601C06D000F00BF801462046FAF747
:1009200025FC10BD01200007406910BD001000101B
:1009300001200007006980B27047000070B50024F4
:1009400013482546047044702846FDF753F86D1C83
:100950000A2DF9D30F4D6C80FFF7D8FFC61EFFF7A5
:10096000E7FF46430A4A0020AE60CC326C610C219E
:100970004143545089180C81401C4C810228F6D305
:100980002C70AC610420EC616860002070BD000038
:10099000D828002034210020FFB5284881B00079F4
:1009A0001F4616460C46400702D4082005B0F0BD8D
:1009B000002C1DD0019800281AD02068022815D2DA
:1009C0000C211F4D4843295800290FD041194A894D
:1009D00008894968424351186268914206D9002E3D
:1009E00004D0B04202D3F119814203D90720DDE7D8
:1009F0000E20DBE70198FEF7F9FB00281BD03846F4
:100A0000FEF7F4FB002816D06068FEF7EFFB002825
:100A100011D060683246C1190198FAF7D1FB0096EF
:100A200020680C2148432D58002202212046019BBA
:100A3000A8470020BAE71020B8E7000034210020C2
:100A4000A4290020F8B52C4D044628790E4640070D
:100A500001D40820F8BD002C20D0002E1ED0206824
:100A600000281BD0FFF764FF0146A088814213D302
:100A7000102811D3E08800280ED0FFF747FF471E4B
:100A8000FFF756FF4743E288A188A8684A43121837
:100A9000974201D3890703D00720F8BD0E20F8BD87
:100AA0006988022926D031600C22144B51437060B2
:100AB000CA18506020685850A0881081E088508182
:100AC000FFF736FF0646FFF733FFA188E288401E96
