:020000040001F9
:10B00000203B002035B101004FB1010051B10100DA
:10B010000000000000000000000000000000000030
:10B0200000000000000000000000000053B101001B
:10B03000000000000000000055B1010057B1010000
:10B0400059B1010059B10100D5CA010059B101003F
:10B0500009C9010000000000C5BA010059B1010092
:10B0600059B1010059B1010059B1010059B10100B4
:10B0700059B1010059B1010059B1010059B10100A4
:10B0800059B1010069C5010059B1010059B1010070
:10B090001DC9010059B1010025C9010059B10100C4
:10B0A00059B1010059B1010000000000000000008A
:10B0B0000000000000000000000000000000000090
:10B0C0000348854600F06CFC00480047E50A020092
:10B0D000203B0020401E00BF00BF00BF00BF00BFDC
:10B0E00000BF00BF00BF00BF00BF00BF00BFF1D165
:10B0F00070470000401E00BF00BF00BF00BF00BF80
:10B1000000BF00BF00BF00BF00BF00BF00BFF1D144
:10B1100070470000401E00BF00BF00BF00BF00BF5F
:10B1200000BF00BF00BF00BF00BF00BF00BFF1D124
:10B13000704700000321094802680A43026008487A
:10B1400002680A4302600748804707480047FEE755
:10B15000FEE7FEE7FEE7FEE7FEE70000240500400D
:10B16000540500407DC90100C1B0010030B50B4657
:10B17000014600202022012409E00D46D5409D42D1
:10B1800005D31D469540491B254695404019154657
:10B19000521E002DF1DC30BD70B50024254600287C
:10B1A00001DA01244042002901DA01254942FFF772
:10B1B000DDFFAC4200D04042002C00D0494270BDBF
:10B1C00003460B439B0703D009E008C9121F08C0C0
:10B1D000042AFAD203E00B780370401C491C521E6B
:10B1E000F9D27047D2B201E00270401C491EFBD276
:10B1F00070470022F6E710B513460A460446194682
:10B20000FFF7F0FF204610BD30B50446002003468E
:10B2100000E05B1C934203D2E05CCD5C401BF8D0A5
:10B2200030BD03460A780270401C491C002AF9D13F
:10B2300018467047F8B502464A40D40F42004B000A
:10B2400052085B089A4202D20246084611464A005A
:10B2500023D0C30D4A00DDB2120EAD1A202D35DA0F
:10B2600049020126490AF6058A19002C00D05242EB
:10B2700020214F1B1146B9402A411018C20D9A4295
:10B2800021D0002C17D0012D08DCDA05801AD20F4E
:10B290008019D207DBB200F0D4FAF8BDDA05801AC3
:10B2A000012340001B06C01880185A428018CA0F9C
:10B2B0001043490007E04908C2071143DA05801A24
:10B2C00080194008801800F0B4FAF8BD610001222E
:10B2D000511A001BF7E70122D2075140AAE70122C9
:10B2E000D2075040A6E7024670B54A40D30FDB07AD
:10B2F00040002DD04A002AD0010E140E0002120286
:10B300000919400A520A8418E50104465443000A08
:10B31000120A2E045043A4194219200CC543AA183E
:10B32000120C0125AD03521C521912047F3924045A
:10B3300000D0521C104301D44000491EC2B20C067A
:10B34000C0092018401C4008802A02D003E00020D9
:10B3500070BD40084000002900DA0020184370BD8D
:10B3600070B502464A40D50F40004A00ED0740083C
:10B370005208002814D0002A12D0C40DD30D410267
:10B380000120C0055202490A520AE41A091812188B
:10B390007D34914201D3641C00E04900002C01DAA5
:10B3A000002070BD0023914201D3891A0343400855
:10B3B00049000028F7D100290AD0914202D1012189
:10B3C000C90705E0914201D2012101E00121C943F1
:10B3D000E005C018401900F02CFA70BD420005D0FD
:10B3E0004200120E52428A4201DB00207047C9051A
:10B3F00008187047F0B507460846584087B0C00F98
:10B40000049048000E46590040084908BC1A88417B
:10B4100005D2384631461E4617460B4602465800AE
:10B42000400810434CD0300D039040055900400DAA
:10B43000490D0590401A0290402872DA1803012144
:10B44000000B09050843019004980092002805D0DC
:10B4500001995242002088410092019002984021B7
:10B460000A1A0199009800F0C1F905460C466B468E
:10B4700007CB00F0CBF9C0197141039A0E0D0023E0
:10B48000D71756401A467A40164344D0049A002AE9
:10B490002DD0029A012A039A15DC1205C01A914197
:10B4A00001263605001C7141D20F059ED20700937C
:10B4B000019202962A46234600F009FA07B0F0BD31
:10B4C00038463146FAE71605224A0F46B218C01A26
:10B4D000B74101210905001C4F4100187F41114669
:10B4E00018187941E20F10436D19644113E0E20727
:10B4F0006D0815436408C2071443039A0126120518
:10B50000C01A91413605001C7141CE0740083043F6
:10B510004908C01851412A46234600F0CBF9CDE72F
:10B52000FFE7049801224000C117121A00238B4143
:10B5300004983146C417381AA141EEE730B401240B
:10B54000E407634030BC55E730B40124E4076140B0
:10B5500030BC4FE70000E0FFF0B51FB488B00B9996
:10B560000998002448400999C00F490049080991E9
:10B57000C0070B990090490049080B910999089858
:10B58000A64608431CD00B990A98084318D009987E
:10B5900001244000420D4800410D09982405000394
:10B5A000000B204309900B980003000B20430B90E5
:10B5B00050181C494018002201901446104605E01E
:10B5C000002001460DB0F0BD032801DA034600E07B
:10B5D00003239C46C11A0AAE0AE05F0008ADED5B8A
:10B5E0004F00F75B7D430027AA187C41491C5B1E76
:10B5F0006145F2DD410004AB5A522104120C0A43AA
:10B60000240C401C0828DFDB01980290009970464A
:10B6100001910090059B049A0799069800F057F94C
:10B62000D0E700000DFCFFFFF0B50C465C4085B094
:10B63000E40FE40703944C00002664085900944684
:10B64000490802460296224321D062460A431ED090
:10B650006200570D4A000E032303550D01240246D4
:10B660002C492405781B1B0B360B4018234326431B
:10B67000614600901C46501AB44103D30098401C08
:10B68000009002E0921800985B41002803DA002045
:10B69000014605B0F0BD0020012109050746864698
:10B6A00011E064461D46141BB54106D36546521B86
:10B6B000B341744607430C43A646CD0740084908EA
:10B6C000284392185B4105460D43EAD110461843C2
:10B6D00013D06046194650407140084306D060467A
:10B6E000101AB34106D20122002306E000220123F2
:10B6F000DB0702E00122D243531000987446010593
:10B70000381C6141029C039D0019694100F0D2F888
:10B71000BFE70000FD030000C217C10F504010B585
:10B720004018CA079623002100F08BF810BD10B511
:10B7300000229623114600F084F810BD0EB5C21702
:10B74000C10F5040CA0740180021054B02930192D7
:10B7500000910A460B4600F0BAF803B000BD0000A5
:10B7600033040000410040020122400AD205090EC4
:10B7700080187F2901DA00207047962903DC962281
:10B78000511AC8407047963988407047C20FD20797
:10B79000400040080BD0C10D0723DB01C91840024F
:10B7A0000905400A1143C2084007114370470020B1
:10B7B00001467047CB0FDB07490010B54908024628
:10B7C0000A4307D00A0D07240903E401090B121BE1
:10B7D000002A01DC002010BDC900440F0C43C10049
:10B7E000E018D205801800F024F810BD10B5202A0A
:10B7F00004DB0146203A9140002010BD91402023F7
:10B800009C1A0346E3401943904010BD10B5202A0E
:10B8100006DBCB170846203A1041C1170B4306E060
:10B820000B461341D0402024A21A914008431946E8
:10B8300010BD002904DA401C490001D14008400035
:10B84000704770B40024050C05D11024000402D107
:10B85000002921D01124050E01D100020834050F62
:10B8600001D10001241D850F01D18000A41C0028F6
:10B8700001DB4000641C002908D020252E1B0D464A
:10B88000F540A14000D001212943084301061B1BBC
:10B89000000ADB1D02D5002070BC7047DB051818BC
:10B8A00080180029F8DA401C4900F5D170BC400826
:10B8B0004000704710B5002B08DA0024401C61419D
:10B8C00092185B411A4301D14008400010BDF0B509
:10B8D0001FB482B005460C0003D0084601F0F3FA0D
:10B8E00002E001F0F0FA203002460090214628469E
:10B8F000FFF77CFF049B059A04460F46184311434B
:10B90000084314D0184610431BD0009840210A1A4F
:10B910001846059900F056F805460E46009A059916
:10B920000498FFF763FF084305D0012004E0204698
:10B93000394607B0F0BD0020C11705430E432C4324
:10B94000374300990E986305401A7905E40A0022EE
:10B950000C43FD0A0A3002D500200146E9E7010543
:10B96000101969410C9C0D9D00196941FFF7A2FF58
:10B97000DFE770B54B005B0803430BD04B005C0D59
:10B98000002633466542B341D417AD1AA34102DB0A
:10B990000020014670BD12053018514170BD0000F5
:10B9A000064C0125064E05E0E36807CC2B430C3C12
:10B9B00098471034B442F7D3FFF786FB60A2020029
:10B9C00080A2020010B5202A04DB0846203AD040AD
:10B9D000002110BD0B46D340D0402024A21A914034
:10B9E0000843194610BDFEB500231A461B1A8A41AA
:10B9F00003DB0020014603B0F0BD4A000D03012126
:10BA00002D0B0905520D0D43D10702D100186D41D0
:10BA1000521E5110FF31FF310131002704463E46CE
:10BA20003846009701910246012100200905FFF7E1
:10BA3000C9FFC3197141F818324684468E464A41FF
:10BA400061462846611A904104D36046241A954104
:10BA500076461F46241900986D41401C00903428FA
:10BA6000E1DDF91930467041091BA84103D20022DB
:10BA7000D243134601E00022134601980105381C09
:10BA80007141FFF717FFB6E730B58C180278401CFC
:10BA900013071B0F01D10378401C120906D102784D
:10BAA000401C03E005780D70401C491C5B1EF9D159
:10BAB00001E00B70491C521EFBD1A142E6D30020CD
:10BAC00030BD0000F0B50025FF248BB00134012605
:10BAD0002F460195204606F0E3FA002808D0474893
:10BAE0004068304204D046480021201835430160A8
:10BAF000241D76007F1CA4B2042FEBD3FF207D30E1
:10BB000006F0CEFA002807D03E4800210160400729
:10BB100005433D48006901903C4C280712D001279D
:10BB200000262F420AD03A48B20011180869096964
:10BB3000C004C00E8903A258890F90477F00761C6D
:10BB4000042EEED3002D57DA00200590401E4DE064
:10BB5000A119403108788506AD0E42B2521C39D089
:10BB60000121A940089A0091114233D08009039025
:10BB7000284603F013F9800020580490002802D1D1
:10BB80000398032826D103980099032802D1059829
:10BB9000084305901F4AA80080180068019A800396
:10BBA000800F114202D0022802D013E0032811D1E5
:10BBB0000399032907D102281CD00221284606F048
:10BBC00037FA7F1CFFB20498002803D0049A284655
:10BBD00003999047761C042EBAD3002F0CD00A4844
:10BBE00000690199884207D00190059800273E46D8
:10BBF0000890ADE70321E1E70BB0F0BD0063004022
:10BC0000006000407C610040000500509428002046
:10BC10000065004000070050F0B587B00024161AF8
:10BC200001905D1A601E274604940091002E01DDEC
:10BC3000012108E0002E05D076420390002D04DD9E
:10BC400001200BE000210391F8E7002D05D06D42A3
:10BC50000290AE4204DD344603E000200290F8E793
:10BC60002C4600200590601C069005981DE00C9A5B
:10BC70000099019800F05CFC04987F1980190490E9
:10BC8000A04206DD001B0490039901984018C0B241
:10BC90000190A74205DD029900983F1B4018C0B2F1
:10BCA00000900598401CC0B2059006998842DEDDE0
:10BCB00007B0F0BDFFB581B017462AE02038C5B205
:10BCC000029802991730C3B201980F30C2B201989E
:10BCD00000F0E0FB30204543104800242818009075
:10BCE000065D0025300601D5049800E00A9800F0B2
:10BCF000C7FB6D1C7600EDB2082DF3D3641CE4B2D3
:10BD0000302C01D20098EBE701981030C0B27F1CB4
:10BD1000019038780028D1D105B0F0BDEC40020088
:10BD2000FFB581B017462AE02038C5B202980299C3
:10BD30000B30C3B20198C01DC2B2019800F0AAFB3B
:10BD40000C2045431048002428180090065D00256B
:10BD5000300601D5049800E00A9800F091FB6D1CB4
:10BD60007600EDB2082DF3D3641CE4B20C2C01D2A2
:10BD70000098EBE701980830C0B27F1C019038783A
:10BD80000028D1D105B0F0BDB43A0200FFB583B0B0
:10BD90000E9F0F9E0D9C1546100005D00A21FFF73F
:10BDA000E5F90028FAD120E00C98694691C13022CB
:10BDB000069B0499039800F02FF807B0F0BD0A2104
:10BDC0002846FFF7D3F905460A460C98694691C103
:10BDD000204670430399761E4018001B3032C0B2D3
:10BDE000F6B2069B049900F017F8002DE7D10FE09A
:10BDF0000C98694691C12046039968434018001B7E
:10BE0000C0B23A22069B049900F006F86D1CEDB210
:10BE1000B542EDD3D1E70000FFB581B0303AD2B2E0
:10BE20000C9F0092CA190B9C521ED3B20219521ECB
:10BE3000D2B200F02FFB002424E00C2F0ED0102FE4
:10BE400011D0182F20D10098182148430F494018CD
:10BE5000055D002628060BD504980AE000980C2101
:10BE600048430B49F3E7009808490001B039EEE771
:10BE70000A9800F005FB761C6D00F6B2082EE9D397
:10BE8000641CE4B2BC42D8D305B0F0BDE43F02006C
:10BE9000B43A020070B504460B2006F0F9F83220DF
:10BEA00005F04EFF0B2006F0DBF8962005F048FF6A
:10BEB000032006F05FFFDA4D6870042006F05AFF99
:10BEC000A8700021062006F060FF0121072006F07F
:10BED0005CFF7F21092006F058FF05210A2006F0AB
:10BEE00054FFF2210B2006F050FFF5210C2006F044
:10BEF0004CFFFD210D2006F048FF00210E2006F02A
:10BF000044FF40211D2006F040FF230000F0F2FF17
:10BF100006042EDBFEFDFC5A2021702006F035FFC2
:10BF20001B211C2006F031FF8321202006F02DFF6D
:10BF3000C021212006F029FF1321222006F025FF31
:10BF4000A921232006F021FF0021242006F01DFF57
:10BF50000321252006F019FF18212A2006F015FFDD
:10BF600009216E2006F011FFD52128E02021702044
:10BF700006F00BFF1B211C2006F007FF41212020AB
:10BF800006F003FF6021212006F0FFFE272122207A
:10BF900006F0FBFE5221232006F0F7FE00212420AC
:10BFA00006F0F3FE0721252006F0EFFE18212A20D7
:10BFB00006F0EBFE13216E2006F0E7FEA9216F20AC
:10BFC00006F0E3FE8C21302006F0DFFEFF21322058
:10BFD00006F0DBFE4221332006F0D7FE402134205C
:10BFE00006F0D3FE2021352006F0CFFE2D2136208D
:10BFF00006F0CBFED421372006F0C7FE0021382002
:10C0000006F0C3FE0021392006F0BFFE73213A205E
:10C0100006F0BBFE6F213B2006F0B7FE6E213C20F0
:10C0200006F0B3FE67213D2006F0AFFE11213E2051
:10C0300006F0ABFE73213F2006F0A7FE6F214020E3
:10C0400006F0A3FE6E21412006F09FFE67214220EC
:10C0500006F09BFEFF21432006F097FEFF214420BF
:10C0600006F093FEFF21452006F08FFEFF214620BB
:10C0700006F08BFE07216D2006F087FE0021792057
:10C0800006F083FE00217A2006F07FFE2221712037
:10C0900006F07BFE3821722006F077FE0021732027
:10C0A00006F073FE0021742006F06FFE5321752008
:10C0B00006F06BFE6421762006F067FE00217720F3
:10C0C00006F063FE70BD2021702006F05EFE1B218D
:10C0D0001C2006F05AFEA121202006F056FE202149
:10C0E000212006F052FE4E21222006F04EFEA52110
:10C0F000232006F04AFE0021242006F046FE1821E7
:10C10000252006F042FE02E05FE034E009E018215D
:10C110002A2006F03AFE27216E2006F036FE522134
:10C120004DE72021702006F030FE1C21084606F065
:10C130002CFED021202006F028FE0021212006F030
:10C1400024FE9D21222006F020FE4921232006F016
:10C150001CFE0021242006F018FE5821252006F0A0
:10C1600014FE1A212A2006F010FE4E216E2006F041
:10C170000CFEA52123E72021702006F006FE1D21DC
:10C180001C2006F002FE5321202006F0FEFD0121B6
:10C19000212006F0FAFD8921222006F0F6FD372144
:10C1A000232006F0F2FD0221242006F0EEFD1F21DF
:10C1B000252006F0EAFD1E212A2006F0E6FDC42116
:10C1C0006E2006F0E2FD9C21F9E60021702006F0C9
:10C1D000DCFD06211C2006F0D8FD5021202006F0B1
:10C1E000D4FD0121212006F0D0FD9921222006F066
:10C1F000CCFD9A21232006F0C8FD0421242006F05E
:10C20000C4FD9421252006F0C0FD2D212A2006F032
:10C21000BCFD0C216E2006F0B8FDCD21CFE600005C
:10C22000E520002030B585B00C460546142168464F
:10C23000FEF7DFFF00F0A8F92146284600F0B0F92C
:10C240000A2005F07DFD0021684601700121417042
:10C25000022181700321C170042101710521417106
:10C26000062181710721C1710821017209214172E2
:10C27000102181721121C1721221017313214173A6
:10C28000142181731521C17300F0F2FB05B030BD9C
:10C2900010B5122005F0F4FE642005F051FD1220C7
:10C2A00005F0D6FE322005F04BFD122005F0E8FE29
:10C2B000782005F045FD112000F03AFC782005F0CB
:10C2C0003FFDB12000F034FC052000F05BFC3A207B
:10C2D00000F058FC3A2000F055FC362000F028FC15
:10C2E000082000F04FFCB22000F022FC052000F0F6
:10C2F00049FC3A2000F046FC3A2000F043FCB32011
:10C3000000F016FC052000F03DFC3A2000F03AFC5D
:10C310003A2000F037FC052000F034FC3A2000F011
:10C3200031FC3A2000F02EFCB42000F001FC00208B
:10C3300000F028FCC02000F0FBFBAA2000F022FC4B
:10C340000A2000F01FFC842000F01CFCC12000F03B
:10C35000EFFBC02000F016FCC22000F0E9FB0D202E
:10C3600000F010FC002000F00DFCC32000F0E0FB0A
:10C370008D2000F007FC2A2000F004FCC42000F00F
:10C38000D7FB8D2000F0FEFBEE2000F0FBFBC5206C
:10C3900000F0CEFB062000F0F5FBE02000F0C8FB2B
:10C3A000062000F0EFFB1C2000F0ECFB102000F05A
:10C3B000E9FB142000F0E6FB302000F0E3FB2B202B
:10C3C00000F0E0FB242000F0DDFB292000F0DAFB88
:10C3D000282000F0D7FB262000F0D4FB2E2000F010
:10C3E000D1FB392000F0CEFB002000F0CBFB022077
:10C3F00000F0C8FB012000F0C5FB102000F0C2FBDC
:10C40000E12000F095FB062000F0BCFB1C2000F0B2
:10C41000B9FB102000F0B6FB142000F0B3FB302075
:10C4200000F0B0FB2B2000F0ADFB242000F0AAFBB5
:10C43000292000F0A7FB282000F0A4FB262000F014
:10C44000A1FB2E2000F09EFB392000F09BFB00207A
:10C4500000F098FB022000F095FB012000F092FB19
:10C46000102000F08FFB3A2000F062FB052000F066
:10C4700089FB292000F05CFB782005F061FC10BDF1
:10C4800010B504460004000E00F07CFBE0B200F0A2
:10C4900079FB10BDF8B507461C4615460E462A2006
:10C4A00000F046FB002000F06DFBBF1CF8B200F06E
:10C4B00069FB002000F066FBAD1CE8B200F062FBF7
:10C4C0002B2000F035FB002000F05CFB761CF0B266
:10C4D00000F058FB002000F055FB641CE0B200F0B7
:10C4E00051FB2C2000F024FBF8BD00008307FF2245
:10C4F000DB0E9A408907090E994000280BDA0007E5
:10C50000000F0838830808489B001818C369934334
:10C510000B43C3617047830804489B001B181868CD
:10C52000904308431860704700ED00E000E400E02D
:10C5300070B515464A1CD3B2421C491E401ED2B2E9
:10C54000C9B2C0B2FFF7A6FF00242846FFF798FF44
:10C55000641CE4B2092CF8D370BD10B52921042065
:10C56000FFF760FE10BD000010B50649002008600E
:10C5700048608860C860034940390860486006F038
:10C58000A5FD10BD401101400449002002460A707B
:10C59000401CC0B2491C1628F9D37047EC25002076
:10C5A00070B504460D460B2005F05AFD0A2005F033
:10C5B000C7FB2046FFF76EFC072000F0D9F928469C
:10C5C00000F0C0F900F04EFA70BD1CB50F2005F068
:10C5D00025FD0E2005F022FD0D2005F01FFD0B208E
:10C5E00005F01CFD0023102000931A461946019304
:10C5F00005F0D4FC1CBD000010B50121072006F099
:10C60000C4FB11217E2006F0C0FB0321082006F0A8
:10C61000BCFB0021082006F0B8FB0521072006F02E
:10C62000B4FB0221052006F0B0FB032006F0A2FBBC
:10C63000034C6070042006F09DFBA07010BD00004C
:10C64000E5200020FFB5114F0446387881B01D4623
:10C650001646002801D100F0B7FA7869A04211D936
:10C6600018200A4960434118002C06D00298CE6475
:10C670000D6588640020886548650A98C8650020B3
:10C6800005B0F0BD0020C043FAE70000A83200204A
:10C69000FFB5114F0446387881B01D461646002874
:10C6A00001D100F091FA3869A04211D918200A4945
:10C6B00060434118002C06D00298CE610D6288615B
:10C6C0000020886248620A98C862002005B0F0BD68
:10C6D0000020C043FAE70000A832002070B5074BE5
:10C6E0000646187814460D46002801D100F06CFA71
:10C6F00022462946304600F003F870BDA8320020DB
:10C7000070B50E4618214843134914464518E86A87
:10C710001835002804D001280FD0022805D113E0D5
:10C72000284600F087FAA04201D2002411E02246F8
:10C730003146284600F0A9FB0BE0284600F07AFAC3
:10C74000A042F4D20446F2E73146284600F06DFBE1
:10C750000446204670BD0000A83200200FB408B582
:10C7600004A900916A46039900F004F801B008BCDE
:10C7700004B01847F7B598B007A8029040200025EC
:10C780000495039018980C46059506902178641C32
:10C79000002977D0252907D002A800F027FB0598AB
:10C7A0000028F3DA1BB0F0BD012200210227134656
:10C7B0000826207823281BD02B2816D02D2802D01D
:10C7C000302806D101E0194300E03943641C002AF7
:10C7D000EFD1002220780346303B0A2B0AD20A23ED
:10C7E0005A431218303A641CF4E704200143EDE781
:10C7F0003143EBE70023C7B22E2F0AD1641C207807
:10C800000746303F0A2F04D20A277B431B18303BD0
:10C81000F4E76C280DD068280BD0702852D00BDCC0
:10C8200025285AD058282ED063280CD0642858D1F7
:10C8300010E02078641CECE7732832D0752817D0FC
:10C8400078284ED11FE01A981A9A0068011D1160CD
:10C85000017843E01A981A9F0068061D3E60006840
:10C860000191009201460A2202A800F0EEF938E098
:10C870001A981A9F0068061D3E6000680092019198
:10C880000A2209E02FE01A981A9F0068061D3E60F0
:10C890000068009201911022014602A800F03AFAC5
:10C8A0001FE01A981A9A0068011D11600668317815
:10C8B000761C002915D002A800F098FA05980028E7
:10C8C000F5DA0EE01A981A9A00680823011D116023
:10C8D0000168102200960195DFE7252102A800F0EB
:10C8E00085FA641C5BE70598002800DC5AE7049889
:10C8F000002804D0024607A91898FFF7EFFE049914
:10C900000598401805904DE710B50249024803F01C
:10C9100002FF10BDDC2900200040004010B506F0E9
:10C920006BFB10BD10B506484068002805D0804755
:10C93000002801D000F056FD10BD03F07FFE10BDB1
:10C940009421002070B581280FD241004418074D72
:10C950007520295D06F019FA64196178762006F0D1
:10C9600014FAA178772006F010FA70BD3A9F020001
:10C9700010B501466D2006F008FA10BD10B503F0A1
:10C980002FFF002805D01F491D484860C8131E49C5
:10C9900088611E48018CC9B201290BD1828C120713
:10C9A00008D1028D1206120F042A03D1828D1206BD
:10C9B000120F0AD0012921D1818C09071ED1018DC6
:10C9C0000906090F0A2904D007E0114A01219160E4
:10C9D000F5E7828D1206120F05D00D290ED1808D3C
:10C9E0000006000F0AD10B480168012904D00A494A
:10C9F000016001680129FCD1C021416110BD000026
:10CA0000DFFF07C000050040006C0040C00F00F0D1
:10CA10000006004000EC06407593000010B514209D
:10CA200005F0F4FA132005F0F1FA112005F0EEFA02
:10CA3000122005F0EBFA062005F0E8FA10BD000020
:10CA400010B5032006F096F9054C6070042006F03E
:10CA500091F9A0700121072006F097F910BD0000A0
:10CA6000E520002010B5FFF7EBFFFFF7C5FD10BD77
:10CA700070B506461025FFF7E3FF0321082006F0F6
:10CA800084F90021082006F080F94021342006F0C6
:10CA90007CF929463E2006F078F90024315D7F209C
:10CAA00006F073F9641CE4B2AC42F7D3042105200C
:10CAB00006F06BF9032006F05DF9054C6070042068
:10CAC00006F058F9A0700921072006F05EF970BD44
:10CAD000E520002010B506F007FE10BD70B5044635
:10CAE00008250D2005F0D4FA0E2005F0B9FA0D2026
:10CAF00005F0B6FA13E0200606D50E2005F0B0FAD0
:10CB00000F2005F0C5FA05E00E2005F0A9FA0F2068
:10CB100005F0A6FA0E2005F0BBFA6006040E2846C2
:10CB20006D1EEDB20028E6D10E2005F099FA70BD19
:10CB300070B50446062005F08BFA112005F088FA3E
:10CB40000025200603D5142005F09AFA02E01420EF
:10CB500005F07EFA132005F07BFA132005F090FA19
:10CB600060066D1C040EEDB2082DEAD3112005F00D
:10CB700087FA70BD10B50C4600F004F8204600F0AE
:10CB800001F810BD70B50446062005F079FA1120B1
:10CB900005F05EFA0025200603D5142005F070FA92
:10CBA00002E0142005F054FA132005F051FA132086
:10CBB00005F066FA60066D1C040EEDB2082DEAD38E
:10CBC000112005F05DFA70BD10B5124C02202061F5
:10CBD000606111A0A0611348E06101208002206221
:10CBE0000020A06260620CA1A1642146E0621039BD
:10CBF000E16410212165A0656065E0650AA1E01D82
:10CC0000FEF70FFB09A12046FEF70BFB2020A071C9
:10CC100010BD0000A83200205465726D696E616C11
:10CC200000000000982E00205254540053454747FE
:10CC3000455200000269C1688A4203D88068401AE0
:10CC4000801800E0501A401E7047FFB583B00E46B2
:10CC500070420D9F0C9C0090002900DB08460125C6
:10CC600002E0FEF799FA6D1C05998842F9DA0698F8
:10CC7000A84200D90546002C04D0002E01DB78071D
:10CC800000D5641EB80702D50698002810D0F80712
:10CC90000ED1002C0CD0A5420AD22021641E03988C
:10CCA00000F0A4F80398C0680028F2DA07B0F0BDDD
:10CCB0000398C0680028F9DB002E02DA2D21009EBF
:10CCC00002E0780707D52B21039800F08FF803982E
:10CCD000C0680028EADBB807800F022810D1069848
:10CCE00000280DD1002C0BD0A54209D23021641EA2
:10CCF000039800F07BF80398C0680028F2DAD5E7C3
:10CD0000019700943146069B059A039800F002F8BB
:10CD1000CCE70000FFB581B001261F4634460A9DCE
:10CD2000029802E0FEF722FA641C03998842F9D2C5
:10CD3000A74200D93C460B98C00718D1002D16D049
:10CD40000B98800701D5002F02D0202000900CE026
:10CD50003020FBE76D1E0099019800F047F801981C
:10CD6000C06800283DDB002D01D0AC42F2D3019811
:10CD7000C068002835DB012F01D97F1E06E031464F
:10CD80000298FEF7F3F90399884202D303984643C9
:10CD9000F1E7154F31460298FEF7E8F90146029A8D
:10CDA0007143511A0291395C019800F01FF8019803
:10CDB000C068002805DB30460399FEF7D7F9060066
:10CDC000E8D10B98C0070CD0002D0AD0AC4208D295
:10CDD00020216D1E019800F009F80198C068002814
:10CDE000F2DA05B0F0BD00005CA1020010B5044607
:10CDF00080686368421C934205D323681954A2607B
:10CE0000E068401CE060A2686068824209D1216845
:10CE10002069FFF763FCA168884203D00020C0436B
:10CE2000E06010BD0020A06010BDF7B5064682B0DE
:10CE300000200090F46817463069A04201D9051B14
:10CE400002E0B168201A0D1AB0686D1E001BA842DE
:10CE500000D80546BD4200D33D4670682A460019F9
:10CE60000399FEF7ADF900987F1B401900900398D5
:10CE7000641940190390B068A04200D10024F46006
:10CE8000002FD9D1009805B0F0BDF7B5C668174698
:10CE900004468068851B6068BD4206D980190199E7
:10CEA000FEF78EF9F019E060FEBD2A46801901995F
:10CEB000FEF786F901987E1B411932466068FEF73D
:10CEC0007FF9E660FEBD2021020C01D01021104642
:10CED000020A01D010460839020901D01046091F84
:10CEE000820801D01046891E420801D0881E704772
:10CEF000081A704730B47446641E2578641CAB422F
:10CF000000D21D46635D5B00E31830BC184700008B
:10CF10004900CA020243100000D004204A0D01D08B
:10CF200001221043044A490D914201D102210843D4
:10CF3000012800D105207047FF070000F8B504461E
:10CF40004F1EC8000838211815461E460868496853
:10CF50003A4606239A4310D02A463346FEF7FCFA97
:10CF60003A46D200083AA3181A687F1E5B68FEF79B
:10CF700041FA06223B469343EED1022F23D0042FE1
:10CF800011D0062F2FD12A463346FEF7E5FAE36A81
:10CF9000A26AFEF72FFA2A463346FEF7DDFA636AE5
:10CFA000226AFEF727FA2A463346FEF7D5FAE369E6
:10CFB000A269FEF71FFA2A463346FEF7CDFA6369E7
:10CFC0002269FEF717FA2A463346FEF7C5FAE368E8
:10CFD000A268FEF70FFA2A463346FEF7BDFA6368E9
:10CFE0002268FEF707FAF8BD10B50122FEF7C1FC72
:10CFF00010BD10B5FEF7FEF910BD002210B51346A6
:10D0000010461146FEF710FB10BD0000034A10B594
:10D0100000201107FEF7ADFC10BD000001FDFFFF71
:10D0200002E008C8121F08C1002AFAD170477047F1
:10D03000002001E001C1121F002AFBD1704700004F
:10D040000149086070470000B4210020F7B584B0A2
:10D050000025168807461580406B1446002813D01B
:10D0600003780598032E51D30221017021881122E3
:10D07000491C89B2218042542188491C89B22180EF
:10D0800043542088401C2080386B00281DD0054662
:10D090002088059902461232B24237D811220A542A
:10D0A00020881022401C80B220800A542088401C16
:10D0B00020800F202A5C2388401ECA54228840B258
:10D0C000521C22800028F5DA0025384620300290D4
:10D0D000807B002806D033462246059903F0CCFB1E
:10D0E000050014D10298407B002806D03246214624
:10D0F000059801F06DF9050009D1B878002823D012
:10D10000059886462088001DB04202D90C2007B041
:10D11000F0BD684679DF0028F9D1218803207246E6
:10D12000505420881921401C80B22080115420883E
:10D130007146401C80B2208041186846008806F085
:10D1400067FB218840182080F878002817D02188B4
:10D1500003230A46FB56C91C0598B142D6D80221C2
:10D16000815421880122491C89B22180425421889E
:10D17000491C89B2218043542088401C2080786853
:10D18000002817D021880023C3560A46C91C0598D9
:10D19000B142BBD80221815421880A22491C89B29C
:10D1A000218042542188491C89B22180435420881F
:10D1B000401C2080388900280AD000943846019607
:10D1C000062202210830059B06F0D8FB05009ED1FF
:10D1D000388A00280AD00094384601960722032195
:10D1E0001030059B06F0CAFB050090D1388B002853
:10D1F0000AD0009438460196152214211830059B58
:10D2000006F0BCFB050082D1386A002806D0334600
:10D210002246059901F022FF0500D8D1786A00283E
:10D2200006D033462246059903F0ECFD0500CED129
:10D230000298007B002807D03346224638460599DD
:10D2400005F0DEFB0500C2D13878002807D0334650
:10D2500022463846059904F01DFD0500B7D1284641
:10D2600055E710B501220221002001F0C3FB002880
:10D2700001D0072812D107220221012001F0BAFBB8
:10D28000002801D0072809D100210A22084601F010
:10D29000B1FB002801D0072800D1002010BD0000FC
:10D2A00010B598B0382101A8FDF7A3FF0221684608
:10D2B0000171012484710621C17184820E48069097
:10D2C00024210FA8FDF795FF10A80472FF202D3030
:10D2D00013900020149001460090084B0FAA01A85B
:10D2E00000F064FD002801D000F07CF804A10020CB
:10D2F000FFF734FA18B010BD882000202121020069
:10D300006164766572746973696E675F696E69746A
:10D310005F4F4B0D0A000000044842680121890557
:10D320000B46934383600A40C2607047000500507B
:10D3300070B50024064D06E06968E000085C012134
:10D3400004F03CFD641C28788442F5D3002070BDB5
:10D350005C210020F8B515460C460646052A01D288
:10D360000720F8BD04F000FE002803D104F0D2FD30
:10D370000028F6D1104900204E600C70C8608D6006
:10D3800008610E4D0DE0E000696880190091817818
:10D390006A46517000780A4A694604F05FFD002829
:10D3A000DFD12046641EE4B20028ECD1054A0021FA
:10D3B000024800F04FF8F8BD5C21002054A10200A3
:10D3C0007505020025F20100BFF34F8F04490348A1
:10D3D000C860BFF34F8F00BFFDE700000400FA05EF
:10D3E00000ED00E00EB50021029000916A46019127
:10D3F0000148FFF7E9FF0EBD01400000014B1B682B
:10D40000184700007028002038B50C46A2680C238D
:10D410005A43064B09789D58054A126A0092024603
:10D42000204608302369A84738BD0000C4290020E1
:10D430003821002010B5064914230A785A435118A0
:10D44000091DFFF7E1FF042005F0A2FB10BD00005D
:10D45000F8280020094B9B68002B07D0002A07D032
:10D46000002805D00068037C002B03D008207047FB
:10D4700007207047417442610020704770210020EE
:10D48000FFB59007002581B014460E46002832D122
:10D490001B4F002C31D005F061F90498786103200E
:10D4A000387033461821224600204B43BC601834A4
:10D4B000C10089180D704D708E704C601C19401C95
:10D4C0000328F5DBFD607D7001240E48BD70240546
:10D4D000046003211420FFF709F80B4804600B4C8B
:10D4E0000198A06003211120FFF700F860683861FF
:10D4F000002005B0F0BD0720FBE7BD60FBE70000A2
:10D500007021002080E200E000E100E00015014011
:10D51000FEB50D461B4917468968044600292AD0E6
:10D52000002C28D0052D01D20720FEBD60690028FF
:10D5300021D0607C012820D0002606F0ABF9C00085
:10D540001049019089684018694606F0CDF9002815
:10D5500015D0012101700C49446049680830E2C0CF
:10D56000084901988968411868460078487005F0B4
:10D5700085FD0020FEBD0820FEBD2E46DDE704200F
:10D58000FEBD00007021002000150140F8B5134DCC
:10D590000446A96800291CD0002C1AD06069002814
:10D5A00017D00026267406F075F9C700A8686946EA
:10D5B000381806F099F900280DD002210170446056
:10D5C000A868391868460078487005F057FD30465D
:10D5D000F8BD0820F8BD0420F8BD0000702100202F
:10D5E000F0B504464F008E488FB07F080D460D9170
:10D5F000874228DB4042381820430CD089488742B4
:10D6000003DC874218D1002C16D020462946FFF7AC
:10D61000EBFC0FB0F0BD844A844B20462946FDF751
:10D620009BFF07460E46824A824B20462946FDF75D
:10D6300093FF3A46334649E00120FFF701FDFFF72B
:10D64000DCFC0FB0F0BD7C48874243DAF92080054E
:10D6500087420BDA20462946FFF75AFC042801D1FD
:10D66000FFF7D4FC204629460FB0F0BD22462B46DA
:10D6700010462946FDF770FF064602466F480F46E2
:10D680000B4606217844FFF759FC32463B46FDF72E
:10D6900063FF06906A48079132463B46042178446E
:10D6A000FFF74CFC32463B46FDF756FF00225C4B31
:10D6B000FDF7A0FE02460B4607990698FDF7B4FF5A
:10D6C00022462B46FDF748FF22462B46FDF792FEE9
:10D6D0000FB0F0BD2046524C690049080022234695
:10D6E000FDF732FF0022D243FEF743F9054602461A
:10D6F00054480E460B4606217844FFF71FFC2A4685
:10D700003346FDF729FF06904F4807912A463346D6
:10D7100004217844FFF712FC2A463346FDF71CFF2C
:10D7200000222346FDF766FE059104902846314607
:10D7300005F038FB089045480C46874219DB059BED
:10D74000049A07990698FDF76FFF02460B4621469B
:10D750000898FDF701FF2346089AFDF74BFE0122CA
:10D76000FEF707F9304A314BFDF7E8FE304A314BFE
:10D770004AE000273A460B460898FDF73BFE3A463A
:10D7800023460A910E9010461946FDF7E5FE2A46FB
:10D790003346FDF7D9FE0A9B0E9AFDF745FF054675
:10D7A0000E46059B049A07990698FDF73DFF0091E8
:10D7B0000490012228463146FEF7DBF81A4A1B4B3B
:10D7C000FDF7C2FE0E460546012221460898FEF7E7
:10D7D000D0F8009B049AFDF7BFFE2A463346FDF7BA
:10D7E000ADFE05460E46012238462146FEF7C1F839
:10D7F0000F4C174F22463B46FDF7A6FE2A463346FE
:10D80000FDF7A2FE22463B46FDF79EFE0D9A002A3A
:10D8100000DD5DE70122D20751400FB0F0BD0000EE
:10D820000000F03F0000F07F075C143326A6913C17
:10D83000182D4454FB21F93F0000E03FE8CA0000E6
:10D84000FECA000074CA00008ACA00003333EF3FEA
:10D85000FB21E93FF0B589B004460D46480006912A
:10D8600072494008884215DB7149884203DC8842CE
:10D8700007D1002C05D020462946FFF7B5FB09B09B
:10D88000F0BD6C48002D02DD6B4909B0F0BD6B495D
:10D8900009B0F0BD6A49884211DA6A4988420BDA58
:10D8A00020462946FFF734FB042801D1FFF7AEFBE1
:10D8B0002046294609B0F0BD0026F6435DE06D0024
:10D8C00061496D08884232DA6049884219DA0026D7
:10D8D000012332469B0720462946FDF78BFD07466C
:10D8E0000191012220462946FEF743F80022584BB9
:10D8F000FDF724FE3A46019BFDF796FE04460D46D1
:10D900003BE001260022524B20462946FDF772FDDE
:10D910000746009100224E4B20462946FDF70EFE99
:10D920003A46009BFDF780FE04460D4625E0494936
:10D93000884219DA02260022474B20462946FDF785
:10D940000BFE0022424BFDF755FD074602910022D7
:10D95000414B20462946FDF7F1FD3A46029BFDF773
:10D9600063FE04460D4608E0032622462B460020AF
:10D970003A49FDF759FE04460D4622462B4610460D
:10D980001946FDF7E9FD07460B4602460191FDF7F2
:10D99000E3FD0246029032480B460391062178448B
:10D9A000FFF7CCFA3A46019BFDF7D6FD00902D48D3
:10D9B000019105217844039B029AFFF7BFFA039B6C
:10D9C000029AFDF7C9FD02460B4601990098002E08
:10D9D0000BDAFDF70FFD22462B46FDF7BDFD224673
:10D9E0002B46FDF7B1FD09B0F0BDFDF703FD224662
:10D9F0002B46FDF7B1FD1C4AF6007A4493191A68CC
:10DA00005B68FDF79BFD22462B46FDF797FD174A05
:10DA10007A4493191A685B68FDF796FD069A002A06
:10DA2000E1DA0122D207514009B0F0BD00001044F4
:10DA30000000F07F182D4454FB21F93FFB21F9BF72
:10DA40000000DC3F0000203E0000F33F0000E63F06
:10DA50000000F03F008003400000F83F0000F0BFEE
:10DA600086C8000048C80000E2C70000ACC700003C
:10DA7000F0B51FB4039B54425D00164626439C46F6
:10DA8000F40F6D084B004E4E5B082C438E46B4429B
:10DA900005D847420743FC0F1C43B44204D96346F0
:10DAA000FFF7A7FA05B0F0BD464E6644164309D00D
:10DAB000CC0F6646B61702273E40264304461C4359
:10DAC00004D00BE0FFF7C6FE05B0F0BD002EFBD082
:10DAD000012EF9D0022E32D0032E34D014462C431E
:10DAE0000BD0374CA54216D1A3420AD10121890798
:10DAF0008D438B43194603950DE0704600280FDBDC
:10DB000025E0314F7F44002E0ED0012E10D0022E82
:10DB100015D0032E17D0A3421DD17046002816DA67
:10DB20002A482B4905B0F0BD7968386805B0F0BDCA
:10DB300001227968D2073868514005B0F0BD23480A
:10DB4000244905B0F0BD2148234905B0F0BD1F4868
:10DB5000224905B0F0BD5B1B1B153C2B02DD1B48A9
:10DB60001E490FE06446002C05DA3C24E34202DA49
:10DB70000020014606E0039BFDF756FD49004908D9
:10DB8000FFF768FE002EE4D0012E0BD0144A154B8F
:10DB9000022E0CD0FDF7D2FC0C4A0E4BFDF7CEFC4A
:10DBA00005B0F0BD0122D207514005B0F0BDFDF730
:10DBB000C5FC064A074BFDF7C7FC05B0F0BD0000E9
:10DBC0000000F07F000010C050C70000182D445422
:10DBD000FB21F9BFFB210940FB2109C0FB21F93FD3
:10DBE000075C143326A6A13CF0B50546007D002451
:10DBF00093B00E4600280DD0012001466846103132
:10DC000003940173717B4173817BF9200140684665
:10DC1000891C81731C2104A8FDF7EBFA6946087C76
:10DC200002210843694608742A7DEF21002A02D0A8
:10DC30001022104300E008406A46107405940794CF
:10DC40000894287D002800D003A8099001270A9491
:10DC500010469771304A82800094B27B0270F27B4A
:10DC600042708078F9221040F722801C1040EF218A
:10DC700008404108490068468170317B01721421D7
:10DC80000BA8FDF7B6FA01A80B9068460C908786A2
:10DC9000C486078702A80F90A888AB1D0BAA04A909
:10DCA000A2DF002835D1B068002830D068468771DF
:10DCB0001A4981800094317C017000200146684639
:10DCC00041708078F9210840F721801C0840EF213D
:10DCD0000840410849006846817011A8B16800F009
:10DCE00099FC064614210BA8FDF783FA01A80B90B6
:10DCF00068460C908686C486068711A80F902A462F
:10DD0000E8880E320BA9A3DF002802D100E0EC81E5
:10DD1000002013B0F0BD0000192A000008290000FF
:10DD200010B5064C2178481C2070054800F050FAC8
:10DD30002078642801D30020207010BD80200020AE
:10DD400058250020F0B50C4693B01F216A4611807B
:10DD5000072600279180002809D0C17849070DD5F2
:10DD600002A9FFF773F9002809D102AD01E00025EF
:10DD70001780002C0ED0E078002802D0304613B077
:10DD8000F0BD01AA0AA92046FFF760F90028F6D1E4
:10DD90000AAA02E068460022878068468088C3B2EB
:10DDA00068460088C1B2284672DFE8E770B50D46C4
:10DDB00004991646040042D0002E40D0424800226A
:10DDC0004271C3600161242231464048FDF7F8F9F1
:10DDD00000F0D4F83D493431084610380160203154
:10DDE000816038215C38FDF704FA384821783838EA
:10DDF0000170A1788170E178C170617841706269C9
:10DE0000216942610161E268A168C26081600146E6
:10DE1000E369A269CB618A61616A002919D0014670
:10DE2000AC310246B83241628A60636A1B880B805B
:10DE3000616A436A898899800021436A06E00E205E
:10DE400070BD666AB668765C5654491C9E888E42E0
:10DE5000F7D8A16A00291CD01C4AAC3211460C39F3
:10DE60008A608162A36A9B888B80A16A836A098821
:10DE700019800021836A04E0A66AB668765C56546D
:10DE8000491C9E888E42F7D82C210A5D0F4918390B
:10DE90000A73216A002909D00B4914310162226AF0
:10DEA00052884A80216A026A0988118061680029C3
:10DEB00004D00549891D41606168416003482946D5
:10DEC0003838FFF73FFF70BDEC2000203C260020D3
:10DED00010B502881C4C102A17D00021112A1AD024
:10DEE0001B2A11D1007A00280ED1607901281ED09A
:10DEF000022822D0032822D0042805D12171E2680B
:10DF00000846002A00D0904710BD817D0129FBD131
:10DF10008088208110BD6170808821898842F9D174
:10DF2000012005E021690029F4D0884710BD0220B6
:10DF300000F058F80028F5D110BD0320F8E70320C1
:10DF400020710420F4E70000EC20002010B5022826
:10DF500001D003280ED1084C207800280AD00020D8
:10DF60002070607900F03EF8002803D02169002974
:10DF700000D0884710BD0000EC20002010B507211C
:10DF80000148FDF736F910BD0421002010B51348F3
:10DF9000007801281FD1124C607800281BD16079CD
:10DFA000002802D074DF002816D101200B496070D0
:10DFB00006203839C870094800213838FFF7C2FEFA
:10DFC000002809D1607900F00DF8002803D02169FC
:10DFD000002900D08847002010BD00003C2600200A
:10DFE000EC200020F0B5784C87B06071002606A8C0
:10DFF000069604F045F90127082802D0002808D128
:10E0000004E006A802F0D2F9002804D106980028FE
:10E0100001D02770D4E0FFF7B1FF6C4D687800287D
:10E0200002D06079012807D0A87800280CD0607948
:10E03000012801D0022824D1E168002903D0E7702B
:10E040000820884700E0E6706079012808D16878E8
:10E05000002809D05C48193004F0CEF8002803D01D
:10E060006079022802D00CE002206071A8780028B4
:10E0700005D05548193004F0BFF8002801D103201D
:10E080006071287B002804D16079032801D1042025
:10E090006071287E002804D16079042801D166715E
:10E0A0002671E16800290AD06079032801D004288C
:10E0B00005D12878002802D06078002817D0A670F3
:10E0C00018216846FDF795F86846067001960672B5
:10E0D0000396607901280ED0022815D03B4E2436D5
:10E0E00037465C3F03281BD004285DD13AE0A77077
:10E0F00007208847E4E734481830019068460770E5
:10E1000046820682277152E02F48183001906846F7
:10E11000077029894182A98801820220207146E086
:10E12000A88A69464882288A08822848243005F04F
:10E1300094FC002805D02878002802D060780028B8
:10E1400001D003202FE002206946087204200396C4
:10E15000F8701E4800213838FFF7F4FD002830D150
:10E16000052020E0A88B69460882288C4882174841
:10E17000243005F072FC002805D02878002802D051
:10E180006078002801D004200DE002206946087262
:10E1900004200396F8700D4800213838FFF7D2FDAF
:10E1A00000280ED1062020716079002803D068462F
:10E1B00073DF002805D1E168002901D02079884764
:10E1C000002007B0F0BD0000EC2000203C2600201D
:10E1D00073B586B004002FD06A46217C127F0020E0
:10E1E000914227D00025012668460095068045808B
:10E1F00007A80190E188608A6A46A4DF002819D147
:10E200006846007F2074608A0D49884216D0207DC0
:10E21000002813D00295039504950595E18868467A
:10E220000181867241888181049001980590608AFD
:10E2300002A9A6DF08B070BD0E20FBE70820F9E7B1
:10E24000FFFF000038B50D4604001AD0002D18D08D
:10E25000286820600020C043608228792075FF2054
:10E26000207401216846817007490180221D69469A
:10E270000120A0DF002803D129462046FFF7B4FC87
:10E2800038BD0E2038BD00000F18000038B500283A
:10E2900024D0002922D00A88102A1AD0112A1AD094
:10E2A000502A1BD1027D002A18D0CA884389891DB3
:10E2B0009A4213D14A89022A10D10268002A0DD04D
:10E2C0004B7B0C7B19022143C907C90F07D00021E2
:10E2D00006E0898801E00021C943418238BD01215F
:10E2E0006B4619706946904738BD000070B5054609
:10E2F00001461C220E48FCF763FF0E4C00262670D8
:10E300002968002906D00822201DFCF759FF201D8E
:10E310007ADF02E00748001D7BDF002807D1401E9E
:10E3200060806670044A00210448FFF793F870BDCE
:10E33000282700200C21002031380200E4A0020030
:10E34000F8B5214C028800271E4DE689102A15D009
:10E350001E49112A21D0122A2DD0502A1CD1C28840
:10E36000801DB24218D14289022A15D1427B037B1B
:10E3700010021843C007C00F0CD112E081886980D9
:10E3800001461048082218310C30FCF719FF6F7055
:10E39000002E01D100F0AAFEF8BD0020C043688025
:10E3A0006F700868FFF7F2F80028F5D0A16900291E
:10E3B000F2D08847F8BD0822811802480C30FCF7DB
:10E3C000FFFEE7E70C21002028270020E4A0020040
:10E3D0007CB5054608880C460930904201D90C20CE
:10E3E0007CBD684671DF0028FAD121880820685476
:10E3F00020881B21401C80B220802954208800A93D
:10E40000401C80B22080401906220131FCF7D8FE62
:10E4100020886946801D80B220800978002900D0BC
:10E42000012129542088401C208000207CBD000050
:10E4300070B5044601F020F82046FFF781FF204622
:10E4400000F08EF920880F4D102802D011280CD131
:10E4500008E0072000F0F2FA002801D0FEF7C2FF22
:10E46000A08801E00020C043A8802046FFF730FDCF
:10E470002146054800F03EF8034821461C30FFF7CE
:10E4800005FF70BD802000203C25002030B5184BD2
:10E490000D4604000FCB85B003936B4607C324D011
:10E4A000002D22D00020C043A0822868A061002057
:10E4B000A0752146684663DF002814D1217868469C
:10E4C000817401210182A21C04A90120A0DF00287F
:10E4D00009D12946204604F07FF9002803D12946B6
:10E4E000204605F0ABF805B030BD0E20FBE700007C
:10E4F0001CA10200F8B505000C4613D0002C11D069
:10E5000020883F2700267F0110280CD0112818D022
:10E51000502807D112A10020FEF720F921462846F5
:10E5200003F01EFEF8BD8888A88213A10020FEF724
:10E5300015F93B4616A2102108200096FDF7F0FBC6
:10E54000F8BD16A10020FEF709F93B461AA21021DA
:10E5500008200096FDF7E4FB0020C043A882F8BD28
:10E56000424C455F47415454535F4556545F5752A0
:10E570004954450D0A000000424C455F4741505F39
:10E580004556545F434F4E4E45435445440D0A0093
:10E59000434F4E4E4543542000000000424C455F1F
:10E5A0004741505F4556545F444953434F4E4E4593
:10E5B000435445440D0A0000444953434F4E540010
:10E5C00007B584B000280DD0828A114B9A420BD037
:10E5D000827D002A08D06A46128B142A06D90720A9
:10E5E00007B000BD0E20FBE70820F9E700220092EB
:10E5F00001920292039282896B461A80039106A9C6
:10E60000029101219970808A6946A6DFE8E700003F
:10E61000FFFF00000A7802704978417002207047BD
:10E6200000B51A4887B08068059000234822184931
:10E6300005A804F073FB002801D0FEF7D3FE6A465C
:10E640000121002004F052FB002801D0FEF7CAFE91
:10E65000104804F01FF9002801D0FEF7C3FE6846F9
:10E6600004F0C4FA002801D0FEF7BCFE0A4804F00A
:10E67000B3FA002801D0FEF7B5FE084804F070FB9D
:10E68000002801D0FEF7AEFE07B000BD6C3A0200D4
:10E69000E0240020E81F002031E40100CD2F02001B
:10E6A0001CB5044681786A460C4803F0FDFD00283D
:10E6B00012D160781C21484309491C2340181A468E
:10E6C000694603F0B7FE064806494C30807A800060
:10E6D0000A582146684690471CBD000030210020A2
:10E6E00024280020FCA002007CB5154E00250C4615
:10E6F0003060002918D06946002000F0C7F80028D3
:10E700001DD101A9012000F0C1F8002817D16846E9
:10E7100001790020002901D0022004E0694609782F
:10E72000002900D00B2020707068002806D1FEF769
:10E7300098FD054603A10020FEF710F828467CBD91
:10E74000A4200020656E74657220636F6E6E656331
:10E7500074696F6E20737461747573210D0A000003
:10E7600010B51C4C0188606810290DD011290AD100
:10E77000401E606007D1FEF774FD002803D02168B9
:10E78000002900D0884710BD00281ED10021012299
:10E79000084600F02FF9002801D0072811D10722E0
:10E7A0000221012000F026F9002801D0072808D115
:10E7B00004220221002000F01DF9002805D00728BE
:10E7C00003D02168002900D088476068401C606041
:10E7D00010BD0000A420002010B5032000F088FA2E
:10E7E000002801D0062800D1002010BDF8B507464A
:10E7F0000024234802E0641C042C1AD2A200825890
:10E80000BA42F8D1042C14D21D481E4E0C380029EF
:10E8100029D001290ED002290BD1600020188019BF
:10E820004578002D05D018480169002901D02846F7
:10E830008847F8BD61006118755C8E1971780029F0
:10E840000CD011490A224968806851430E4A521C73
:10E85000FEF75EFE002801D10B4847700A48B178E8
:10E8600014300155DDE78068FEF790FE0648610030
:10E87000611814308919005D8D78A842D1D0F8BD97
:10E88000843A0200B02500208C20002004280CD2FD
:10E89000074A1269074B80001B5C01209840904397
:10E8A00000D001200870002070470020FAE7000027
:10E8B00000050050843A0200F8B51F260024314DAF
:10E8C000F6020E283DD00CDC042823D007282FD0D8
:10E8D0000A2805D12CA10020FDF740FF04F044F9DF
:10E8E000F8BD0F283DD01028FAD1264D14231F352E
:10E8F00000211A4608460095FDF78EF92B4627A2FF
:10E90000002114200094FDF7D5F926A10020FDF781
:10E9100025FFF8BD25A10020FDF720FF2948132180
:10E92000808876DF0AE00028F3D0FEF75BFDF8BDB3
:10E9300025A10020FDF712FFFFF728FB0828F2D1E0
:10E94000F8BD142300211A4608460095FDF764F926
:10E95000334612A2002114200094FDF7ABF921A147
:10E96000D4E7142300211A4608460096FDF754F90F
:10E970002B460AA2002114200094FDF79BF91BA14D
:10E98000C4E70000E0FF00004253505F4556454E8B
:10E99000545F534C4545500D0A0000004644323048
:10E9A000313800006B6579330D0A00004253505F27
:10E9B0004556454E545F444953434F4E4E4543548C
:10E9C0000D0A0000802000204253505F4556454EFE
:10E9D000545F57484954454C4953545F4F46460D80
:10E9E0000A0000006B6579310D0A00006B65793211
:10E9F0000D0A000070B50023042811D24400041948
:10EA00000D4D012A02D101290DD0002246008019A6
:10EA1000094E801900290CD0012906D0022906D000
:10EA20000723184670BD0D30C2B22A55F9E742706F
:10EA3000F7E78270F5E70000B025002010B5054A21
:10EA40000146127A0020D20702D0084600F054F89E
:10EA500010BD00008C20002070B50E4620490546F0
:10EA60004E608D6000200A61A9071ED50024012296
:10EA700011462046FFF7BEFF641C042C02D200287A
:10EA8000F5D012E0002810D1720804211548FEF7D5
:10EA900061FC002809D1FEF74BFC002805D1114884
:10EAA000114A00211438FEF7D5FCE90706D00B22E5
:10EAB0000E4952058A600023CB608A6100280DD17F
:10EAC00008480B4A00211C38FEF7C4FC002805D179
:10EAD0000448084A01211838FEF7BCFC70BD00004C
:10EAE0008C200020943A02002DED0100000500501A
:10EAF000CD08020019D30100FEB57A4D0522EB685E
:10EB000092059A4302936B6800939C0006461B197A
:10EB100000200121019349050746734C3300FEF79D
:10EB2000E9F9180D1515374755677C887F8891DE00
:10EB30009E9E9E9E9EC7CDD0D7DEDE140B21029AEC
:10EB400049059143A160E7602F70FEBDA260E760B8
:10EB500060680B2252055040800209D5A160E76031
:10EB6000022E02D1E120C0000AE07D20400107E032
:10EB7000E160A760022E01D1C82001E0FF209130A2
:10EB80002E706421FCF7F2FA0099414300223FE025
:10EB9000A260E76060680B2252055040800204D5F5
:10EBA000A160E76019204001EAE7E160A760E3E7C0
:10EBB000A260E76060680B2252055040800202D5D7
:10EBC000A160E760D1E7E160A760D7E7A260E760F6
:10EBD00060680B2252055040800202D5A160E760B8
:10EBE00001E0E160A7602E700098410000220FE074
:10EBF000A260E76060680B2252055040800202D597
:10EC0000A160E76001E0E160A7602E70009900223A
:10EC100036480068FEF77CFCFEBDA260E7601BE0A2
:10EC200061680120800502468A43A2600140E160DC
:10EC300010E06068012189050A468243A26008400D
:10EC4000E060E3E76068012189050A468243A2602B
:10EC50000840E0600199C9E7E160A7602CE0234823
:10EC60004068FEF793FC11218A1B01D0002807D0D1
:10EC70000B22E96852051140A160E760EF60FEBD1C
:10EC800001218905E960012A0BD9C820504364217C
:10EC9000FCF76CFA69680022414314484068FEF7AB
:10ECA00037FC0B22E96852051140E160A760FEBD08
:10ECB0000B214905A160E7602E70FEBD052292057B
:10ECC000ABE709214905A160E76001218905C3E798
:10ECD00001210906A160E76003214905BCE70B217A
:10ECE0004905B9E78C20002000050050783A020061
:10ECF000F0B500210B4C0C4D03273F048A00A258AD
:10ED000092005619326801238B40034000D0032340
:10ED1000BA431B0413433360491C0429EED300207B
:10ED2000F0BD0000843A02000007005010B50078E2
:10ED30000221FFF75BFD10BD0022D243830004498E
:10ED40000428CA5002D30818203002777047000008
:10ED500094280020F0B50025ED43002A02D00023BE
:10ED6000042601E0042308260B4C04E09F00E75929
:10ED70007F1C04D05B1CB342F8D32846F0BD261894
:10ED80005DB2203635709E00A151002AF5D1E11800
:10ED900020310877F1E70000942800200249091883
:10EDA000202008567047000094280020F8B53E48FF
:10EDB0001422017851430C18E0680C2148433A4969
:10EDC0002769CC314018058941890091241D466886
:10EDD00003F0FCFA01463846FCF7C8F9002932D0A6
:10EDE00000200099A2884D436188AE198918CD1979
:10EDF00000222E4900280A6109D003F0E7FA618851
:10EE0000884222D0B54202D1A08800281DD0A06837
:10EE100003281AD003F0DAFAA188CA19014610466D
:10EE2000FCF7A4F9214C8808E06003F0CFFA014612
:10EE30002846FCF79BF9002911D00020B5422FD0BD
:10EE400000280ED02CE00120CBE703F0BFFA0146EA
:10EE50003846FCF78BF915494861032021E0012071
:10EE6000ECE7ADB2B7B203F0B1FA01463846FCF7B1
:10EE70007DF9064603F0AAFA01462846FCF776F922
:10EE8000864201D1781B09E003F0A0FA064603F0A0
:10EE90009DFA01462846FCF769F9701A800820613E
:10EEA000022003F075FEF8BDF8280020382100206C
:10EEB00010B5074814220178514308180079042836
:10EEC00002D000F059F810BD012003F061FE10BD22
:10EED000F828002010B50B48142201785143081877
:10EEE000094AC18811620079012806D0032801D09F
:10EEF000042801D1FFF75AFF10BD012003F048FE9E
:10EF000010BD0000F82800203821002014225043B2
:10EF1000054A002180180171C18002220161C2608E
:10EF20004161018170470000F8280020F8B5104CBD
:10EF3000069E65780A2D19D027787D190A2D00D3F1
:10EF40000A3D14277D432D1928716A6103C929617F
:10EF5000E860EB802E816078401C60700548007886
:10EF6000002801D1FFF7B6FF0020F8BD0420F8BD4E
:10EF7000F82800203821002010B50D4C14212078ED
:10EF8000484301190020091DFEF73EFA2078FFF7DB
:10EF9000BDFF6078401E60702078401CC0B22070B9
:10EFA0000A2801D100202070002003F0F1FD10BDDF
:10EFB000F8280020F8B52348C16800293ED00E6823
:10EFC00021494C680769C078E11B0D022D0AED1C30
:10EFD000002814D101201D4A000450601B4A403A09
:10EFE00050601B49400008601A4908601A49012016
:10EFF00008602F20FCF78EF812490120C870B54236
:10F0000000D23546E81900020F4B000A4033186061
:10F010000D4A5168001B091B0902090A0002000A77
:10F02000C91C814209D9506818602F20FCF772F87A
:10F0300001200749400480390860F8BD03F08EFBC9
:10F04000F8BD000070210020001501404013014070
:10F0500080E200E000E100E000100140F8B5064663
:10F06000108814468446801D0D46984201D90C2014
:10F07000F8BD32880720062AFAD31927FF01184B5A
:10F08000BA4201D99A42F3D171880629F0D3B94224
:10F0900001D99942ECD19A4203D0994201D08A42D7
:10F0A000E6D805216046295420881221401C80B2F0
:10F0B000208029542088401C80B22080411930884B
:10F0C00004F0A6FB2188401880B220804119708886
:10F0D00004F09EFB2188401820800020F8BD00002D
:10F0E000FFFF000010B5FEF77DF910BDF8B516481A
:10F0F00001F068FB144D00260C3D144C002807D08D
:10F10000616900291CD001206A461070684616E02B
:10F110002878002805D06169002911D0684606705A
:10F120000DE0687800280DD0A16809480022006829
:10F13000FEF7EEF9002803D0A169002900D0884726
:10F140002E70F8BD6168F0E7182100202827002004
:10F15000E4A0020070B5094B04469E7A0820002501
:10F160000E4207D00648844202D01889A04202D13C
:10F170000020156070BD052070BD000064280020CF
:10F18000FFFF00000C214843064910B5012240183A
:10F190008272911E0181FF21C1720721FCF729F8BB
:10F1A00010BD00006428002010B5134C2079000722
:10F1B0001FD46069401C6061E068002801D0042011
:10F1C00004E001F031FB002803D0022003F0F4FE3C
:10F1D00010BD2069002809D06068C10701D0032054
:10F1E000F4E70121084360600020EFE7FFF760FECD
:10F1F00010BD03F0D5FE10BD3821002010B5084821
:10F2000041680A0708D48A0702D5012211434160E8
:10F21000022003F0D1FE10BD03F0C2FE10BD0000BD
:10F2200038210020F8B500260124154D23E0696837
:10F23000F0004718387821462A698140114218D0D9
:10F240008A432A6102F05CFE3A782146EB689140DD
:10F2500019400346934099420BD17978012901D096
:10F26000012100E000217B684140002B01D01046C5
:10F270009847761CF6B228788642D8D3F8BD0000AD
:10F280005C210020FEB50E46044681786A4623487C
:10F2900003F00AF8002826D160780C21204F48435B
:10F2A000C019807A40061FD4022E1DD0012E1DD019
:10F2B0001C4DA0781C2148431B49002341181C22E7
:10F2C0006846A847002813D0022E0CD020780C21C5
:10F2D000484313490C314018807A144980000A5879
:10F2E000214668469047FEBD114DE2E7114DE0E72B
:10F2F000022EF8D060780C214843C019817ABF22D1
:10F300001140817260781C214843054940394118F9
:10F310001C231A466846A847D8E700003021002081
:10F3200064280020252F020060270020ECA00200A6
:10F330007D2602009D25020070B50546114A12483F
:10F3400000241C2363431B189B7EFF2B04D0641CEA
:10F35000072CF6D3104670BD0A78022A09D01C2269
:10F3600062431018FD22827607221030FBF728FF37
:10F3700004E01C2161430818FE2181762C700022D4
:10F38000E8E700004380000060270020F7B505256E
:10F390000F4F06460024002E0AD01C206043C019DF
:10F3A000072231461030FBF72FFF002807D00AE074
:10F3B0001C206043C019018B0298814203D101983F
:10F3C0000025046002E0641C072CE4D32846FEBD3F
:10F3D000602700207CB5054681B26A46074802F0E6
:10F3E00063FF040008D17421684602F089FF04001D
:10F3F00002D1284602F00CFF20467CBD30210020BF
:10F4000010B5100001D0FDF7EDFF002010BD000089
:10F410001FB56946087302F0DFFF002801D0FDF731
:10F42000E1FF03A800F01AFA002801D0FDF7DAFF87
:10F4300001A805210130FBF7DCFE6946497901206E
:10F4400001438122114030314A06520E69464A7109
:10F4500007228A711022CA71054900916946087114
:10F46000044800F021FB002801D0FDF7BBFF1FBDC1
:10F4700001F4010082200020F0B591B00546FF2480
:10F48000002007940290E9480078002849D0E84F0E
:10F490003868002845D001A800F0D2F9002801D032
:10F4A000FDF7A0FF281D05902C2069460883FF204A
:10F4B000002688710E710396DD4C28880C3C1028BC
:10F4C0000ED0A88803AA0221FFF744FE002807D126
:10F4D00003980C2141430919CA7A69468A71487117
:10F4E0002A881320192A7DD00FDC102A1BD0112A5C
:10F4F00055D0132A77D0142A13D103980C214843EE
:10F500000019C07AFF286FD0A1E0CA491A2A6CD02E
:10F510001E2A65D0522A04D1B87A8000095801A861
:10F52000884711B0F0BDC44F03AA01213846FFF748
:10F5300011FE0028F5D103990C204843022200193E
:10F54000827211236A4613745171A9880181294678
:10F55000083107220091FBF733FEE87DC10707D091
:10F560004108B2480830405CFF2808D0079006E008
:10F570003A4607A90098FFF709FF002837D10399F9
:10F580000C22514309190798C8728A7A08231A4332
:10F590008A726946887101A8FFF782F827E003980C
:10F5A0000C2148430119887AFD2210408872010716
:10F5B00006D5C0090DD0002101A8FFF763FE08E0C1
:10F5C00068468079FF2804D002F022FEFF206946B9
:10F5D000887103980C225043102100198172122067
:10F5E000694603E08BE043E014E0E4E0087432464F
:10F5F00004A901A8FDF702FF6846007C122890D1FB
:10F6000003980C2141430919897A012989D0FFF710
:10F61000B9FD86E72A8A07A90020FFF7B7FE002870
:10F620000ED103990C22514309190798C8728A7A9E
:10F6300008231A438A726946887101A8FFF730F8D7
:10F6400003980C2148430019C07AFF2806D003987C
:10F650001C21484376494C394018029003981C21DC
:10F66000484376494218A8880023029986DF58E764
:10F670006946087403980C2148430119887A0422CA
:10F6800010438872CA7AFF2A0BD040221043887236
:10F690001620694608740023A8881A4685217FDF52
:10F6A00021E007A8FFF748FE00281FD006460020EB
:10F6B0000D9003990C224A431219D27A1C235A4303
:10F6C0005E4B0F90D2180E921C2251431A46C43240
:10F6D0008918109009910A900B900C903A1DA888F7
:10F6E00009AB00217FDF002893D180E769460798A6
:10F6F000887103990C2251430919C872D7E7787AA7
:10F700000C2140084000787203986F460246484337
:10F71000011984468B7AFB2003408B7214203874C5
:10F72000287A002806D05806DFD4C87AFFF752FEA0
:10F730002E7A5CE7687A4007D7D5B879FF28D4D00D
:10F7400008273B438B726B7B9B0708D51C25034620
:10F750006B433A4D5B199D7E6D086D009D76CB7AAB
:10F76000FF2BC2D06346E35C022B10D01C22504317
:10F77000324D072240191030FBF722FD6846807990
:10F780001C2148434019817EFD2211400DE01C21BF
:10F790004A4327494C3951184A8A1C214843274972
:10F7A00040180283817E490849008176012101A821
:10F7B000FFF768FD1BE7287A0209012A23D1000719
:10F7C000000F01281FD103980C2242431219927A8C
:10F7D000120718D5242148431549303940181A21F9
:10F7E0000830FBF706FD16206946087403980C21C3
:10F7F00048430119887A602210438872787A02217E
:10F80000084378720FE003980C2250430019827A63
:10F8100080231A43827215206A461074B87A8000D9
:10F82000095801A888470026E1E6000020210020B1
:10F83000702800200CA10200FFFF000060270020BC
:10F84000002806D0FF21017041708170C170002036
:10F8500070470148704700000E800000F0B585B089
:10F86000040036D029480025056045728572284677
:10F87000FFF788FC254824213038FBF7BAFC002626
:10F88000FF27304602F0C4FC21488755761C072E1E
:10F89000F7D37421684681800721C1801D481C4927
:10F8A00000900831684602F01BFE00280FD1184E68
:10F8B0000120083E3070207800280CD069468888E6
:10F8C000C988484381B23046103002F019FD05B0B6
:10F8D000F0BD1148FBE7114F00240D48A1B202AA68
:10F8E000083002F0E1FC002809D11C206043C01957
:10F8F00000231C2202A902F09DFD002801D03570D2
:10F90000E5E7641C072CE8D3E1E70000702800203D
:10F910002821002021F901000E800000602700202E
:10F92000FFB55C4891B000681A9F1E46002873D04E
:10F93000742F71D86846FFF783FF002801D0FDF7C8
:10F9400051FD00246846047004712546059706960B
:10F95000A9B20FAA504802F0A7FC002806D108223D
:10F960000FA91198FBF750FC002817D06D1C072D2C
:10F97000EED368468578FF2D4ED01298032810D01C
:10F9800046481C21301AFBF7F1FB012707281ED23D
:10F9900004A80290139800280BD011E068468570E7
:10F9A000E7E7742F03D04020694608716BE0202000
:10F9B000FAE738463849A84010394968084260D00B
:10F9C000284603F02BFF20206946087149E03148A2
:10F9D0001C214C38301AFBF7C9FB00281DD02D48DC
:10F9E00024213038301AFBF7C1FB01002C482BD002
:10F9F00040216A4611712B498E4244D0274AA90002
:10FA00001C3A5158B1423CD104A90291C07A8542B6
:10FA100027D16846447024E033E004A802902020F7
:10FA2000694608714C701B490B940C310C91583984
:10FA30000791694689781C225143184A0590891814
:10FA4000089107A906910CE0302269460A714C70B2
:10FA5000CF70807A800704D4114824212438FBF722
:10FA6000C8FB129869460228087910D00221084381
:10FA70006946087104A8029001A96846139AFDF727
:10FA8000BDFC15B0F0BD694608790321EFE73843A6
:10FA9000EFE70000702800203021002060270020C0
:10FAA00064280020E8A0020070B5064618480D46FC
:10FAB000007800280ED01749002E0ED0002D0CD053
:10FAC0002868002809D0144C2168002907D0114863
:10FAD0000A3870BD0F48801F70BD084670BD206099
:10FAE0000522691D201DFBF76BFB2879A072207A87
:10FAF0000221400840000843FB2210402072E079B8
:10FB00000123184308431040E0710020307070BD9D
:10FB1000202100200E8000007028002008B5002859
:10FB200009D0202168460170282141703021817060
:10FB30003821C17004E0A32204216846FBF752FB80
:10FB40006A460421024802F079F801F099FD08BDE7
:10FB50009E0A0000FEB504460520694608709520FF
:10FB60004870C6258D701220C8706A46042168202E
:10FB700002F064F8A32069460870610607D5C02228
:10FB800069464A70C8228A70C222CA7003E0694678
:10FB900048708870C870E605B10F06D0C422694667
:10FBA0000A71CC224A718D7103E06946087148716F
:10FBB0008871C871087248720A460A214C4802F0DE
:10FBC0003DF8A007D825002803D0202069460870FA
:10FBD00001E06846057046486A4601210F3002F090
:10FBE0002DF8A00601D5012000E0002000F08AF8E1
:10FBF000B00F19D0E00508D5B221684601708B21FD
:10FC00004170B62181709B2107E0B02168460170E8
:10FC100080214170B42181709021C1700246344826
:10FC20000421401F02F00AF83248E10721D0F821F0
:10FC30006A461170012102F001F8FA21072000F054
:10FC40006FFA072000F03EFA012000F056FA642017
:10FC500000F0FEFAFF20F53000F009FBC82126482D
:10FC600000F0FCF9282000F00FFA0A2000F01BFA3F
:10FC700005E069460D706A46012101F0DFFFA0072B
:10FC800003D5D9206946087001E0684605706A46C8
:10FC900001211A4801F0D2FF600701D5012000E0E0
:10FCA000002000F04FF8E00601D5012000E0002020
:10FCB000FFF734FF0820124D2043688101F0E0FC7B
:10FCC0000020A873600601D50620A873B00F02D0EB
:10FCD000A87B801DA8731420044202D0A87B10309A
:10FCE000A873A00702D0A87B001DA8730020FEBD4A
:10FCF000A70A0000B008000012C695053D070000E5
:10FD0000DC2500200EB59723DB00002802D007A1D8
:10FD100007C901E008A207CA0292019100906A4651
:10FD20000921184601F08AFF0EBD0000B8AAB38D64
:10FD3000B4980D355D000000B8AAAAAAB088C3C562
:10FD4000C700000008B5002809D0C021684601702E
:10FD5000C2214170C4218170C621C17004E08B2290
:10FD600004216846FBF73EFA6A460421024801F086
:10FD700065FF01F085FC08BD980A000010B501225E
:10FD8000642392020249034801F05EFB10BD0000AB
:10FD900044930200F60B0000FFB589B01646129D91
:10FDA0000024139A54480F462C80807B694601F04A
:10FDB000EDFB002803D00020C0430DB0F0BD4E483D
:10FDC0001421408908423CD000996C4609BA0B0ABC
:10FDD000E1781B020B43336001991B1409BA0A0A2C
:10FDE000E17912020A4372600299E47A09BA090AB7
:10FDF000090221438C46B16003996C4609BA090A8D
:10FE0000E47B09022143F1600E4661461214091495
:10FE100036145B435243494376439A188919511863
:10FE2000F12212068918354A1024914204D301F0B8
:10FE300027FC00202880BEE72988FF2201321143D9
:10FE400029804206694617D50A19537816781B028D
:10FE500033435BBA3B80D37896781B0233435BBA5B
:10FE60007B80537916791A02324352BABA802A88B3
:10FE700008231A432A80A41D1F4EC205920F1AD0D0
:10FE80000A19537817781B023B43099F5BBA3B80E2
:10FE9000D37897781B023B43099F5BBA7B805379E9
:10FEA00017791A023A43099B52BA9A802A8870231A
:10FEB0001A432A80A41D800718D00C19E078850900
:10FEC00081066078AD01890EC00707D0C8084907D0
:10FED000490F3268491C002A00D09047607800071B
:10FEE00004D57168002901D0A80988470C9800F052
:10FEF000BDFF002061E70000DC25002001000002BA
:10FF000030B5044613A207CA85B06B46002507C367
:10FF1000ED43642C16D821466420FBF727F9401ED8
:10FF2000020A69460A73487303AA02210C4801F0C9
:10FF300085FE002806D16A460C210A4801F07EFEA3
:10FF4000002802D0284605B030BD07488481002033
:10FF5000F9E70000FEF2ABC4AAF1DFDFBBAFDFDFE1
:10FF600016020000C10A0000DC250020F0B504469E
:10FF700085B034A00068029033A00068039033A0DD
:10FF8000076833A0A607B60F02A905688A5D684610
:10FF90000270E006830FCA5C684642702006820F3A
:10FFA000895C6846817003A98E5D0671CB5C4371E4
:10FFB000895C81716A460321264801F03FFE0026D4
:10FFC000F643002836D1234801AA0321001D01F081
:10FFD00035FE00282ED160070121009701950028E9
:10FFE00006DA684602780A43027002790A4302710F
:10FFF000A00606D5684642780A43427042790A4311
:020000040002F8
:100000004271E00506D5684682780A43827082799B
:100010000A43827111206A460321800101F00EFE1D
:10002000002807D10B4801AA03210B3001F006FE7E
:10003000002802D0304605B0F0BD074804810020FA
:10004000F9E700004CCD6C000CC92C003656760048
:100050002646660026040000DC25002038B50C4644
:100060007D21C900FBF798F86043020E69460A70CB
:1000700002144A7002128A70C870FF206A46042176
:100080005D3001F0DBFD38BD08B50A21FBF76EF8E5
:10009000020A69460A704870FF206A4602215B30F6
:1000A00001F0CCFD08BD08B50A21FBF75FF8020A94
:1000B00069460A704870FF206A460221593001F0F3
:1000C000BDFD08BD08B500216A461170C10701D009
:1000D00030211170810704D511780C2211436A4632
:1000E0001170400703D51078032108431070FF20DA
:1000F0000121493001F0A2FD08BD08B500280CD04F
:10010000042800D904206946401E0870FF206A4672
:100110000121503001F092FD08BD0120F3E70000FD
:10012000FEB50546444E40077DD01920800181422E
:100130007ED80846FBF7FBFA4049FBF711F9074662
:1001400001A801F0CBF868460079022806D00428FF
:100150000DD008282CD010286AD132E00E21384664
:10016000FBF73CF9FBF7FEFA84B2354907E00D21B5
:100170003846FBF733F9FBF7F5FA324984B23846D3
:10018000FBF7B1F8FBF7EEFA220A69460A7080B273
:100190004C70020A8A70C870E8070C4622D00A46E2
:1001A000FF200221D53001F049FD002840D111E0A7
:1001B0000C213846FBF712F9FBF7D4FA84B2224936
:1001C000DDE70B213846FBF709F9FBF7CBFA84B2E0
:1001D0001E49D4E7FF20A21C0221253001F02EFD8C
:1001E000002825D1A8070FD5FF206A460221D93063
:1001F00001F024FD00281BD1FF20A21C0221293080
:1002000001F01CFD002813D1680713D5FF206A46B2
:100210000221DD3001F012FD002809D1A21C0221CB
:10022000FF202D3000E003E001F008FD002801D0A0
:100230003046FEBD0020FEBDFFFFFFFF0000C842AC
:10024000000040460000C045000040450000C0449A
:1002500008B50A21FAF78AFF020A69460A7048704F
:10026000FF206A460221DF3001F0E8FC08BD08B536
:100270000A21FAF77BFF020A69460A704870FF20DC
:100280006A460221DB3001F0D9FC08BDF8B506460C
:1002900000213F237F220846FCF7FCF80025370A9F
:1002A0000024F1B2F8B2FCF765FC641C802CF8D392
:1002B0006D1C402DF4D3F8BD10B50E4900234A78CB
:1002C0008C78A24212D0521CD2B24A70022A00D1BB
:1002D0004B704A78074B920018339A5802600869AD
:1002E00010180002000A0861012010BD0360002000
:1002F00010BD00007021002010B5002803D0112887
:1003000002D0FDF797F810BD02480822416811435A
:10031000416010BD3821002010B51C4C21782046CA
:100320004068012906D0022929D0032912D10007EB
:1003300017D513E0000711D4154814220178514352
:100340000818C188A28B891A0904090CC18002D03F
:1003500002F0EAFD10BDFEF70FFE10BD00F046FDF5
:1003600010BD6069401C606100F05EFA002803D097
:10037000207802F00DFC10BDFEF79AFD10BD6078EC
:10038000044980000858804710BD00003821002033
:10039000F828002040A1020010B528DFFFF7ACFFCD
:1003A00010BD10B529DFFFF7A7FF10BD002804D04E
:1003B0000349496D01600020704703207047000029
:1003C000242A00200020704700207047002070473A
:1003D000F8B506464078242104464C4324490C22B3
:1003E00050436118224A00254B6824328018AE46DB
:1003F0002F469C46002B0CD0827A1346D20908D097
:100400005A0606D40D461A4A614689B2175908356C
:100410008E46174C008924343B4672462946A9DF94
:100420000B2819D0002800D01248012F13D1707862
:100430000C214843001900890F4AA7DF00280AD081
:100440000E49884212D0082810D0891C88420DD04D
:1004500011280BD00020F8BD70780C2148430123EF
:100460000019008972462946A9DFE0E70148F8BD76
:100470004028002041800000FFFF00000230000003
:1004800070B50C46014660782422084D504340194F
:10049000382301F0CFFF002807D16178242251438F
:1004A00049194A68521C00D14A6070BD402800209A
:1004B000F3B589B00D461A206946888368780C2107
:1004C00003274843224E3B468019008907AA694604
:1004D000AADF002838D1687824214843741A00190B
:1004E00069468A8B0830FAF78FFE0028687807D0B3
:1004F000242148430119496800290DD0154E0CE00C
:100500000C2141438919897A89071DD42421484344
:100510000019FAF76EFE17E00F4E27506846828BDF
:1005200068782421484300194260687848430019DC
:1005300069460830FAF744FE6878242148430119D7
:10054000382324220998B04700200BB0F0BD0000EA
:10055000642800207D2602009D25020010B5FFF7CB
:1005600037FF10BD10B5FFF78BFF10BD10B5FFF7BB
:100570009FFF10BDF8B50746104E0125BD403068FD
:10058000FDF704F800280DD10D4C2069284207D151
:10059000384601F0B5FC0028E06804D0284303E0A9
:1005A000A8432061F8BDA843E060206900222843E9
:1005B0002061A1683068FCF7ABFFF8BD54A10200D0
:1005C0005C21002070B51B4C207900072ED41A48FE
:1005D0001422017851430D182E6901F0F7FE0146EF
:1005E000E8882A89761E80188019FAF7BFFD2169EC
:1005F0000025002909D06169814206D1E560606863
:1006000001210843606000200AE000F00DF9002895
:1006100002D00220E56003E02069002803D0032017
:1006200002F0CAFC70BDFEF743FC70BD02F0B8FCDE
:1006300070BD000038210020F8280020F8B51C4CBF
:100640002078002833D02069002807D00026E068F1
:10065000002805D00025002E04D011E00126F6E781
:100660000125F8E7684652DF052804D0002804D0A9
:10067000FCF7B8FE04E0012602E0216900988847F3
:10068000002D10D1608869460880A06861DF0528C8
:1006900004D0002804D0FCF7A5FE04E0012502E008
:1006A000E168A0688847002EDCD0002DD3D0F8BDCB
:1006B0009421002010B5034600F00DF80446D81C24
:1006C00000F009F8C2002243981D00F004F88001F0
:1006D000104380B210BD00214156002901DD0020E9
:1006E0007047002901DA0420704701214156002992
:1006F00001DD01207047002901DA05207047022141
:100700004156002901DD02207047002901DA062048
:100710007047072070477FB50C460D4620350646CA
:10072000697828780191009022462632D11E304601
:10073000E36902F0A4FE002819D1E87800281DD151
:10074000207B022801D0032818D12269E169914257
:1007500014D16269E261E37B2B70217E8906C90FA7
:100760006970032804D03146204602F02BFE7FBD7D
:1007700000913146204602F005FF7FBD20460C3037
:1007800007C801AB07C3E878002100280ED0092074
:10079000C0013218506C5064820701D5012002E07C
:1007A000400705D502206A46107001E068460170D6
:1007B0002971207E4007E0D422686846616890472E
:1007C0007FBD0000418805480288914204D34088DB
:1007D000814201D80120704700207047102100207D
:1007E0001048018CC9B2012917D1818C090714D195
:1007F000018D09060A0F03D1828D1206120F0ED049
:10080000090F012903D1828D1206120F07D0032987
:1008100003D1808D0006000F01D000207047012019
:1008200070470000C00F00F070B50E481422017828
:1008300051430C18256901F0C9FD0146E088228961
:100840006D1E80184019FAF791FC07494A698242E7
:1008500006D3824202D10869002801D0002070BD71
:10086000012070BDF828002038210020800701D029
:10087000002070470120704730B51588EC1C9C4261
:1008800001D90C2030BD02244C5513881C255B1C5B
:100890009BB21380CD5413885B1C9BB2138001283C
:1008A00007D0022807D0032807D0042807D0072044
:1008B00030BD002004E0012002E0CC5401E0032020
:1008C000C8541088401C1080002030BD10B504486A
:1008D000017AC90702D00078FEF70EF910BD0000BA
:1008E0008C200020F8B52C49C8680A690C780F796B
:1008F00089688646944600913EE00099E2005518CA
:100900002A7836E0182353436968521CC918AB781B
:10091000D2B2934200D100220B78022B02D0032BDB
:1009200027D123E04E680346014603E0B14204D0DC
:100930000B46C96900291CD0F8E7002919D08B4261
:1009400008D1C069002805D1144F0126BE600026D9
:10095000B44601270E68C969D961002909D00B681E
:100960009B190B6005E00174C06900E000210028BC
:10097000F9D169789142C5D12146641EE4B20029BB
:10098000BBD1054962460A61C8600F71704501D04C
:100990000120F8BD0020F8BD7021002000100140AA
:1009A000F8B5044631480026C168009107784EE04A
:1009B0002E48F90080680D1843E0002C02D0204634
:1009C000E4691FE02878182141436A68401CC0B2DE
:1009D00051182870AA78904200D12E700A78486881
:1009E000012A30D1027C002A2DD18A684260CA686F
:1009F00082600A69C260496981611C4909790029DC
:100A000000D04660194943680A699C46991A090250
:100A1000174B090A994202D28268891807E0614699
:100A2000511A09028268090A8A4202D9511A0160E0
:100A300000E006604660012186600174C66102F034
:100A400025FB002CB9D1287869788842BAD138467C
:100A50007F1EFFB20028ABD10448C16800988142D4
:100A600001D00120F8BD0020F8BD00007021002059
:100A7000FFFF7F0038B50E4C2078002801D0002001
:100A800038BD0125AB020B4A0BA100200095FBF7F6
:100A9000FFFD002807D11023094A0AA10090FBF7A7
:100AA000D1FD002801D0082038BD2570E7E70000FF
:100AB00090210020872A00204E6F726D616C00002B
:100AC000872E0020496E7075740000000FB408B5C1
