:020000040001F9
:10B00000B83A002035B101004FB1010051B1010043
:10B010000000000000000000000000000000000030
:10B0200000000000000000000000000053B101001B
:10B03000000000000000000055B1010057B1010000
:10B0400059B1010059B1010067C0010059B10100B7
:10B0500069BF0100000000005DB7010059B10100A7
:10B0600059B1010059B1010059B1010059B10100B4
:10B0700059B1010059B1010059B1010059B10100A4
:10B0800059B1010085BC010059B1010059B101005D
:10B090007DBF010059B1010085BF010059B1010018
:10B0A00059B1010059B1010000000000000000008A
:10B0B0000000000000000000000000000000000090
:10B0C0000348854600F026FB0048004735F10100A3
:10B0D000B83A0020401E00BF00BF00BF00BF00BF45
:10B0E00000BF00BF00BF00BF00BF00BF00BFF1D165
:10B0F00070470000401E00BF00BF00BF00BF00BF80
:10B1000000BF00BF00BF00BF00BF00BF00BFF1D144
:10B1100070470000401E00BF00BF00BF00BF00BF5F
:10B1200000BF00BF00BF00BF00BF00BF00BFF1D124
:10B13000704700000321094802680A43026008487A
:10B1400002680A4302600748804707480047FEE755
:10B15000FEE7FEE7FEE7FEE7FEE70000240500400D
:10B1600054050040A5BF0100C1B0010030B50B4639
:10B17000014600202022012409E00D46D5409D42D1
:10B1800005D31D469540491B254695404019154657
:10B19000521E002DF1DC30BD70B50024254600287C
:10B1A00001DA01244042002901DA01254942FFF772
:10B1B000DDFFAC4200D04042002C00D0494270BDBF
:10B1C00003460B439B0703D009E008C9121F08C0C0
:10B1D000042AFAD203E00B780370401C491C521E6B
:10B1E000F9D27047D2B201E00270401C491EFBD276
:10B1F00070470022F6E710B513460A460446194682
:10B20000FFF7F0FF204610BD30B50446002003468E
:10B2100000E05B1C934203D2E05CCD5C401BF8D0A5
:10B2200030BD03460A780270401C491C002AF9D13F
:10B2300018467047024670B54A40D30FDB074000FE
:10B240002DD04A002AD0010E140E00021202091954
:10B25000400A520A8418E50104465443000A120ABF
:10B260002E045043A4194219200CC543AA18120CED
:10B270000125AD03521C521912047F39240400D059
:10B28000521C104301D44000491EC2B20C06C00932
:10B290002018401C4008802A02D003E0002070BD26
:10B2A00040084000002900DA0020184370BD00006B
:10B2B000F0B507460846584087B0C00F04904800D4
:10B2C0000E46590040084908BC1A884105D2384644
:10B2D00031461E4617460B460246580040081043AA
:10B2E0004CD0300D039040055900400D490D05909C
:10B2F000401A0290402872DA18030121000B090558
:10B300000843019004980092002805D00199524208
:10B310000020884100920190029840210A1A019968
:10B32000009800F033F905460C466B4607CB00F059
:10B330003DF9C0197141039A0E0D0023D7175640ED
:10B340001A467A40164344D0049A002A2DD0029A15
:10B35000012A039A15DC1205C01A9141012636050F
:10B36000001C7141D20F059ED207009301920296F4
:10B370002A46234600F07BF907B0F0BD3846314637
:10B38000FAE71605224A0F46B218C01AB741012142
:10B390000905001C4F4100187F41114618187941DA
:10B3A000E20F10436D19644113E0E2076D08154385
:10B3B0006408C2071443039A01261205C01A91417A
:10B3C0003605001C7141CE07400830434908C018BB
:10B3D00051412A46234600F03DF9CDE7FFE70498A6
:10B3E00001224000C117121A00238B4104983146F4
:10B3F000C417381AA141EEE730B40124E4076340D2
:10B4000030BC55E730B40124E407614030BC4FE75D
:10B410000000E0FFF0B50C465C4085B0E40FE407A7
:10B4200003944C00002664085900944649080246DB
:10B430000296224321D062460A431ED06200570D75
:10B440004A000E032303550D012402462C4924050E
:10B45000781B1B0B360B4018234326436146009094
:10B460001C46501AB44103D30098401C009002E0DF
:10B47000921800985B41002803DA0020014605B0CD
:10B48000F0BD0020012109050746864611E064460B
:10B490001D46141BB54106D36546521BB341744685
:10B4A00007430C43A646CD07400849082843921895
:10B4B0005B4105460D43EAD11046184313D0604660
:10B4C000194650407140084306D06046101AB341F7
:10B4D00006D20122002306E000220123DB0702E05E
:10B4E0000122D2435310009874460105381C614173
:10B4F000029C039D0019694100F0ACF8BFE7000011
:10B50000FD0300000EB5C217C10F5040CA07401816
:10B510000021054B0293019200910A460B4600F070
:10B52000A6F803B000BD0000330400004100400253
:10B530000122400AD205090E80187F2901DA002075
:10B540007047962903DC9622511AC84070479639F5
:10B5500088407047CB0FDB07490010B54908024609
:10B560000A4307D00A0D07240903E401090B121B43
:10B57000002A01DC002010BDC900440F0C43C100AB
:10B58000E018D205801800F024F810BD10B5202A6C
:10B5900004DB0146203A9140002010BD9140202359
:10B5A0009C1A0346E3401943904010BD10B5202A71
:10B5B00006DBCB170846203A1041C1170B4306E0C3
:10B5C0000B461341D0402024A21A9140084319464B
:10B5D00010BD002904DA401C490001D14008400098
:10B5E000704770B40024050C05D11024000402D16A
:10B5F000002921D01124050E01D100020834050FC5
:10B6000001D10001241D850F01D18000A41C002858
:10B6100001DB4000641C002908D020252E1B0D46AC
:10B62000F540A14000D001212943084301061B1B1E
:10B63000000ADB1D02D5002070BC7047DB0518181E
:10B6400080180029F8DA401C4900F5D170BC400888
:10B650004000704710B5002B08DA0024401C6141FF
:10B6600092185B411A4301D14008400010BDF0B56B
:10B670001FB482B005460C0003D0084600F0C3FE9C
:10B6800002E000F0C0FE203002460090214628462D
:10B69000FFF77CFF049B059A04460F4618431143AD
:10B6A000084314D0184610431BD0009840210A1AB2
:10B6B0001846059900F040F805460E46009A05998F
:10B6C0000498FFF763FF084305D0012004E02046FB
:10B6D000394607B0F0BD0020C11705430E432C4387
:10B6E000374300990E986305401A7905E40A002251
:10B6F0000C43FD0A0A3002D500200146E9E70105A6
:10B70000101969410C9C0D9D00196941FFF7A2FFBA
:10B71000DFE70000064C0125064E05E0E36807CC94
:10B720002B430C3C98471034B442F7D3FFF7CCFCC2
:10B73000E46302000464020010B5202A04DB08461A
:10B74000203AD040002110BD0B46D340D0402024E9
:10B75000A21A91400843194610BD0000F0B500251B
:10B76000FF248BB0013401262F460195204604F0BA
:10B770009FF8002808D047484068304204D0464827
:10B780000021201835430160241D76007F1CA4B2DF
:10B79000042FEBD3FF207D3004F08AF8002807D077
:10B7A0003E4800210160400705433D480069019083
:10B7B0003C4C280712D0012700262F420AD03A48D5
:10B7C000B200111808690969C004C00E8903A258A3
:10B7D000890F90477F00761C042EEED3002D57DA98
:10B7E00000200590401E4DE0A119403108788506E3
:10B7F000AD0E42B2521C39D00121A940089A0091E5
:10B80000114233D080090390284602F0D9F9800014
:10B8100020580490002802D10398032826D10398C9
:10B820000099032802D10598084305901F4AA800F3
:10B8300080180068019A8003800F114202D002280C
:10B8400002D013E0032811D10399032907D102285C
:10B850001CD00221284604F003F87F1CFFB2049894
:10B86000002803D0049A284603999047761C042E9A
:10B87000BAD3002F0CD00A4800690199884207D03A
:10B880000190059800273E460890ADE70321E1E7C7
:10B890000BB0F0BD00630040006000407C610040E0
:10B8A000000500502C2800200065004000070050D3
:10B8B000F0B587B00024161A01905D1A601E274665
:10B8C00004940091002E01DD012108E0002E05D036
:10B8D00076420390002D04DD01200BE0002103914E
:10B8E000F8E7002D05D06D420290AE4204DD3446EB
:10B8F00003E000200290F8E72C4600200590601C31
:10B90000069005981DE00C9A0099019800F0A4F9A2
:10B9100004987F1980190490A04206DD001B049052
:10B92000039901984018C0B20190A74205DD029921
:10B9300000983F1B4018C0B200900598401CC0B250
:10B94000059006998842DEDD07B0F0BDFFB581B0F5
:10B9500017462AE02038C5B2029802991730C3B2C0
:10B9600001980F30C2B2019800F028F93020454309
:10B970001048002428180090065D0025300601D5E7
:10B98000049800E00A9800F00FF96D1C7600EDB203
:10B99000082DF3D3641CE4B2302C01D20098EBE7FD
:10B9A00001981030C0B27F1C019038780028D1D1A6
:10B9B00005B0F0BD5411020010B5122003F070FF65
:10B9C000642003F0F1FD122003F05AFF322003F04F
:10B9D000EBFD122003F064FF782003F0E5FD112059
:10B9E00000F045FB782003F0DFFDB12000F03FFBC5
:10B9F000052000F066FB3A2000F063FB3A2000F0DF
:10BA000060FB362000F033FB082000F05AFBB22028
:10BA100000F02DFB052000F054FB3A2000F051FB14
:10BA20003A2000F04EFBB32000F021FB052000F08F
:10BA300048FB3A2000F045FB3A2000F042FB05208D
:10BA400000F03FFB3A2000F03CFB3A2000F039FBCD
:10BA5000B42000F00CFB002000F033FBC02000F00D
:10BA600006FBAA2000F02DFB0A2000F02AFB842010
:10BA700000F027FBC12000F0FAFAC02000F021FB03
:10BA8000C22000F0F4FA0D2000F01BFB002000F0B3
:10BA900018FBC32000F0EBFA8D2000F012FB2A20E7
:10BAA00000F00FFBC42000F0E2FA8D2000F009FB4B
:10BAB000EE2000F006FBC52000F0D9FA062000F0C9
:10BAC00000FBE02000F0D3FA062000F0FAFA1C2078
:10BAD00000F0F7FA102000F0F4FA142000F0F1FA68
:10BAE000302000F0EEFA2B2000F0EBFA242000F0DA
:10BAF000E8FA292000F0E5FA282000F0E2FA2620F2
:10BB000000F0DFFA2E2000F0DCFA392000F0D9FA3C
:10BB1000002000F0D6FA022000F0D3FA012000F055
:10BB2000D0FA102000F0CDFAE12000F0A0FA0620B3
:10BB300000F0C7FA1C2000F0C4FA102000F0C1FA8F
:10BB4000142000F0BEFA302000F0BBFA2B2000F0E9
:10BB5000B8FA242000F0B5FA292000F0B2FA282023
:10BB600000F0AFFA262000F0ACFA2E2000F0A9FA7F
:10BB7000392000F0A6FA002000F0A3FA022000F01D
:10BB8000A0FA012000F09DFA102000F09AFA3A2065
:10BB900000F06DFA052000F094FA292000F067FA11
:10BBA000782003F001FD10BD10B504460004000E1E
:10BBB00000F087FAE0B200F084FA10BDF8B507464D
:10BBC0001C4615460E462A2000F051FA002000F0CF
:10BBD00078FABF1CF8B200F074FA002000F071FA95
:10BBE000AD1CE8B200F06DFA2B2000F040FA002006
:10BBF00000F067FA761CF0B200F063FA002000F063
:10BC000060FA641CE0B200F05CFA2C2000F02FFA1D
:10BC1000F8BD00008307FF22DB0E9A408907090E5A
:10BC2000994000280BDA0007000F083883080848FD
:10BC30009B001818C36993430B43C3617047830883
:10BC400004489B001B18186890430843186070470D
:10BC500000ED00E000E400E070B515464A1CD3B2E8
:10BC6000421C491E401ED2B2C9B2C0B2FFF7A6FFA5
:10BC700000242846FFF798FF641CE4B2092CF8D38F
:10BC800070BD000010B5064900200860486088605B
:10BC9000C860034940390860486004F067FD10BD82
:10BCA00040110140FFB5114F0446387881B01D4660
:10BCB0001646002801D100F027FA7869A04211D970
:10BCC00018200A4960434118002C06D00298CE641F
:10BCD0000D6588640020886548650A98C86500205D
:10BCE00005B0F0BD0020C043FAE70000403200205C
:10BCF000FFB5114F0446387881B01D46164600281E
:10BD000001D100F001FA3869A04211D918200A497E
:10BD100060434118002C06D00298CE610D62886104
:10BD20000020886248620A98C862002005B0F0BD11
:10BD30000020C043FAE700004032002070B5074BF6
:10BD40000646187814460D46002801D100F0DCF9AB
:10BD500022462946304600F003F870BD40320020EC
:10BD600070B50E4618214843134914464518E86A31
:10BD70001835002804D001280FD0022805D113E07F
:10BD8000284600F0F7F9A04201D2002411E0224633
:10BD90003146284600F019FB0BE0284600F0EAF98E
:10BDA000A042F4D20446F2E73146284600F0DDFA1C
:10BDB0000446204670BD0000403200200FB408B594
:10BDC00004A900916A46039900F004F801B008BC88
:10BDD00004B01847F7B598B007A802904020002596
:10BDE0000495039018980C46059506902178641CDC
:10BDF000002977D0252907D002A800F097FA0598E6
:10BE00000028F3DA1BB0F0BD0122002102271346FF
:10BE10000826207823281BD02B2816D02D2802D0C6
:10BE2000302806D101E0194300E03943641C002AA0
:10BE3000EFD1002220780346303B0A2B0AD20A2396
:10BE40005A431218303A641CF4E704200143EDE72A
:10BE50003143EBE70023C7B22E2F0AD1641C2078B0
:10BE60000746303F0A2F04D20A277B431B18303B7A
:10BE7000F4E76C280DD068280BD0702852D00BDC6A
:10BE800025285AD058282ED063280CD0642858D1A1
:10BE900010E02078641CECE7732832D0752817D0A6
:10BEA00078284ED11FE01A981A9A0068011D116077
:10BEB000017843E01A981A9F0068061D3E600068EA
:10BEC0000191009201460A2202A800F05EF938E0D2
:10BED0001A981A9F0068061D3E6000680092019142
:10BEE0000A2209E02FE01A981A9F0068061D3E609A
:10BEF0000068009201911022014602A800F0AAF900
:10BF00001FE01A981A9A0068011D116006683178BE
:10BF1000761C002915D002A800F008FA0598002820
:10BF2000F5DA0EE01A981A9A00680823011D1160CC
:10BF30000168102200960195DFE7252102A800F094
:10BF4000F5F9641C5BE70598002800DC5AE70498C3
:10BF5000002804D0024607A91898FFF7EFFE0499BD
:10BF60000598401805904DE710B50249024802F0C7
:10BF7000FBFE10BD742900200040004010B504F005
:10BF80008BFB10BD10B506484068002805D08047DF
:10BF9000002801D000F036FC10BD02F0A9FE10BD53
:10BFA0005821002010B502F043FF002805D01F499A
:10BFB0001D484860C8131E4988611E48018CC9B2DB
:10BFC00001290BD1828C120708D1028D1206120FA3
:10BFD000042A03D1828D1206120F0AD0012921D121
:10BFE000818C09071ED1018D0906090F0A2904D089
:10BFF00007E0114A01219160F5E7828D1206120FC8
:10C0000005D00D290ED1808D0006000F0AD10B48F6
:10C010000168012904D00A49016001680129FCD1A5
:10C02000C021416110BD0000DFFF07C000050040D6
:10C03000006C0040C00F00F00006004000EC06401D
:10C040007593000010B5142003F002FC132003F0D8
:10C05000FFFB112003F0FCFB122003F0F9FB06208C
:10C0600003F0F6FB10BD10B504F08EFE10BD70B5E8
:10C070000446062003F004FC112003F001FC002517
:10C08000200603D5142003F00BFC02E0142003F07B
:10C09000F7FB132003F0F4FB132003F001FC600610
:10C0A0006D1C040EEDB2082DEAD3112003F0F8FB4D
:10C0B00070BD10B50C4600F004F8204600F001F801
:10C0C00010BD70B50446062003F0EAFB112003F012
:10C0D000D7FB0025200603D5142003F0E1FB02E086
:10C0E000142003F0CDFB132003F0CAFB132003F050
:10C0F000D7FB60066D1C040EEDB2082DEAD31120AB
:10C1000003F0CEFB70BD000010B5124C0220206180
:10C11000606111A0A0611348E061012080022062EB
:10C120000020A06260620CA1A1642146E062103987
:10C13000E16410212165A0656065E0650AA1E01D4C
:10C14000FFF76FF809A12046FFF76BF82020A071D8
:10C1500010BD0000403200205465726D696E616C44
:10C1600000000000302E0020525454005345474731
:10C17000455200000269C1688A4203D88068401AAB
:10C18000801800E0501A401E7047FFB583B00E467D
:10C1900070420D9F0C9C0090002900DB0846012591
:10C1A00002E0FEF7F9FF6D1C05998842F9DA06985E
:10C1B000A84200D90546002C04D0002E01DB7807E8
:10C1C00000D5641EB80702D50698002810D0F807DD
:10C1D0000ED1002C0CD0A5420AD22021641E039857
:10C1E00000F0A4F80398C0680028F2DA07B0F0BDA8
:10C1F0000398C0680028F9DB002E02DA2D21009E8A
:10C2000002E0780707D52B21039800F08FF80398F8
:10C21000C0680028EADBB807800F022810D1069812
:10C2200000280DD1002C0BD0A54209D23021641E6C
:10C23000039800F07BF80398C0680028F2DAD5E78D
:10C24000019700943146069B059A039800F002F886
:10C25000CCE70000FFB581B001261F4634460A9D99
:10C26000029802E0FEF782FF641C03998842F9D22B
:10C27000A74200D93C460B98C00718D1002D16D014
:10C280000B98800701D5002F02D0202000900CE0F1
:10C290003020FBE76D1E0099019800F047F80198E7
:10C2A000C06800283DDB002D01D0AC42F2D30198DC
:10C2B000C068002835DB012F01D97F1E06E031461A
:10C2C0000298FEF753FF0399884202D3039846432E
:10C2D000F1E7154F31460298FEF748FF0146029AF2
:10C2E0007143511A0291395C019800F01FF80198CE
:10C2F000C068002805DB30460399FEF737FF0600CB
:10C30000E8D10B98C0070CD0002D0AD0AC4208D25F
:10C3100020216D1E019800F009F80198C0680028DE
:10C32000F2DA05B0F0BD0000D463020010B5044697
:10C3300080686368421C934205D323681954A26045
:10C34000E068401CE060A2686068824209D1216810
:10C350002069FFF7F3FCA168884203D00020C043A6
:10C36000E06010BD0020A06010BDF7B5064682B0A9
:10C3700000200090F46817463069A04201D9051BDF
:10C3800002E0B168201A0D1AB0686D1E001BA842A9
:10C3900000D80546BD4200D33D4670682A460019C4
:10C3A0000399FEF70DFF00987F1B4019009003983A
:10C3B000641940190390B068A04200D10024F460D1
:10C3C000002FD9D1009805B0F0BDF7B5C668174663
:10C3D00004468068851B6068BD4206D980190199B2
:10C3E000FEF7EEFEF019E060FEBD2A4680190199C5
:10C3F000FEF7E6FE01987E1B411932466068FEF7A3
:10C40000DFFEE660FEBD2021020C01D010211046A7
:10C41000020A01D010460839020901D01046091F4E
:10C42000820801D01046891E420801D0881E70473C
:10C43000081A704730B47446641E2578641CAB42F9
:10C4400000D21D46635D5B00E31830BC184702E074
:10C4500008C8121F08C1002AFAD17047704700208F
:10C4600001E001C1121F002AFBD17047F7B584B06B
:10C470000025168807461580406B1446002813D007
:10C4800003780598032E51D30221017021881122CF
:10C49000491C89B2218042542188491C89B22180DB
:10C4A00043542088401C2080386B00281DD005464E
:10C4B0002088059902461232B24237D811220A5416
:10C4C00020881022401C80B220800A542088401C02
:10C4D00020800F202A5C2388401ECA54228840B244
:10C4E000521C22800028F5DA0025384620300290C0
:10C4F000807B002806D033462246059902F0E4FCF2
:10C50000050014D10298407B002806D0324621460F
:10C51000059800F06FFE050009D1B878002823D0F7
:10C52000059886462088001DB04202D90C2007B02D
:10C53000F0BD684679DF0028F9D1218803207246D2
:10C54000505420881921401C80B22080115420882A
:10C550007146401C80B2208041186846008804F073
:10C56000A7FC218840182080F878002817D021885F
:10C5700003230A46FB56C91C0598B142D6D80221AE
:10C58000815421880122491C89B22180425421888A
:10C59000491C89B2218043542088401C208078683F
:10C5A000002817D021880023C3560A46C91C0598C5
:10C5B000B142BBD80221815421880A22491C89B288
:10C5C000218042542188491C89B22180435420880B
:10C5D000401C2080388900280AD0009438460196F3
:10C5E000062202210830059B04F018FD05009ED1AB
:10C5F000388A00280AD00094384601960722032181
:10C600001030059B04F00AFD050090D1388B0028FE
:10C610000AD0009438460196152214211830059B43
:10C6200004F0FCFC050082D1386A002806D03346AD
:10C630002246059901F024FC0500D8D1786A00282B
:10C6400006D033462246059902F08AFE0500CED177
:10C650000298007B002807D03346224638460599C9
:10C6600003F08CFD0500C2D13878002807D033468E
:10C6700022463846059902F041FF0500B7D1284609
:10C6800055E710B501220221002001F0C5F800286D
:10C6900001D0072812D107220221012001F0BCF8A5
:10C6A000002801D0072809D100210A22084601F0FC
:10C6B000B3F8002801D0072800D1002010BD0000E9
:10C6C00010B598B0382101A8FEF793FD0221684605
:10C6D0000171012484710621C17184820E48069083
:10C6E00024210FA8FEF785FD10A80472FF202D302D
:10C6F00013900020149001460090084B0FAA01A847
:10C7000000F066FA002801D000F07CF804A10020B7
:10C71000FFF754FB18B010BD882000202DF9010050
:10C720006164766572746973696E675F696E697456
:10C730005F4F4B0D0A000000044842680121890543
:10C740000B46934383600A40C26070470005005067
:10C7500070B50024064D06E06968E000085C012120
:10C7600002F060FF641C28788442F5D3002070BD7D
:10C7700020210020F8B515460C460646052A01D2B0
:10C780000720F8BD03F024F8002803D102F0F6FFDB
:10C790000028F6D1104900204E600C70C8608D60F2
:10C7A00008610E4D0DE0E000696880190091817804
:10C7B0006A46517000780A4A694602F083FF0028F1
:10C7C000DFD12046641EE4B20028ECD1054A0021E6
:10C7D000024800F04FF8F8BD20210020CC63020091
:10C7E00029EC010049E00100BFF34F8F04490348E1
:10C7F000C860BFF34F8F00BFFDE700000400FA05DB
:10C8000000ED00E00EB50021029000916A46019112
:10C810000148FFF7E9FF0EBD01400000014B1B6816
:10C82000184700000828002038B50C46A2680C23E1
:10C830005A43064B09789D58054A126A00920246EF
:10C84000204608302369A84738BD00005C29002035
:10C85000FC20002010B5064914230A785A435118C9
:10C86000091DFFF7E1FF042003F01EFD10BD0000CD
:10C8700090280020094B9B68002B07D0002A07D086
:10C88000002805D00068037C002B03D008207047E7
:10C890000720704741744261002070473421002016
:10C8A000FFB59007002581B014460E46002832D10E
:10C8B0001B4F002C31D003F039FB04987861032022
:10C8C000387033461821224600204B43BC60183490
:10C8D000C10089180D704D708E704C601C19401C81
:10C8E0000328F5DBFD607D7001240E48BD70240532
:10C8F000046003211420FFF78DF90B4804600B4CF2
:10C900000198A06003211120FFF784F96068386165
:10C91000002005B0F0BD0720FBE7BD60FBE700008D
:10C920003421002080E200E000E100E00015014039
:10C93000FEB50D461B4917468968044600292AD0D2
:10C94000002C28D0052D01D20720FEBD60690028EB
:10C9500021D0607C012820D0002604F0EBFAC00032
:10C960001049019089684018694604F00DFB0028C1
:10C9700015D0012101700C49446049680830E2C0BB
:10C98000084901988968411868460078487003F0A2
:10C99000C5FE0020FEBD0820FEBD2E46DDE70420BA
:10C9A000FEBD00003421002000150140F8B5134DF4
:10C9B0000446A96800291CD0002C1AD06069002800
:10C9C00017D00026267404F0B5FAC700A868694697
:10C9D000381804F0D9FA00280DD002210170446003
:10C9E000A868391868460078487003F097FE30460A
:10C9F000F8BD0820F8BD0420F8BD00003421002057
:10CA0000F0B50546007D002493B00E4600280DD0F9
:10CA1000012001466846103103940173717B417314
:10CA2000817BF92001406846891C81731C2104A880
:10CA3000FEF7DFFB6946087C02210843694608745B
:10CA40002A7DEF21002A02D01022104300E0084086
:10CA50006A461074059407940894287D002800D035
:10CA600003A8099001270A9410469771304A8280E2
:10CA70000094B27B0270F27B42708078F922104001
:10CA8000F722801C1040EF21084041084900684609
:10CA90008170317B017214210BA8FEF7AAFB01A85B
:10CAA0000B9068460C908786C486078702A80F9073
:10CAB000A888AB1D0BAA04A9A2DF002835D1B06855
:10CAC000002830D0684687711A4981800094317CF3
:10CAD000017000200146684641708078F9210840C5
:10CAE000F721801C0840EF210840410849006846B2
:10CAF000817011A8B16800F09FFC064614210BA8B4
:10CB0000FEF777FB01A80B9068460C908686C486DA
:10CB1000068711A80F902A46E8880E320BA9A3DFDA
:10CB2000002802D100E0EC81002013B0F0BD00002D
:10CB3000192A00000829000010B502F045FC04463F
:10CB4000024606A10020FFF739F964212046FEF7CE
:10CB50000DFBC1B2034800F04DFA10BD25640D0A6B
:10CB60000000000018250020F0B50C4693B01F21EE
:10CB70006A461180072600279180002809D0C178D5
:10CB800049070DD502A9FFF771FC002809D102ADB4
:10CB900001E000251780002C0ED0E078002802D09C
:10CBA000304613B0F0BD01AA0AA92046FFF75EFC8B
:10CBB0000028F6D10AAA02E068460022878068466B
:10CBC0008088C3B268460088C1B2284672DFE8E7B1
:10CBD00070B50D4604991646040042D0002E40D090
:10CBE000424800224271C36001612422314640481C
:10CBF000FEF7E6FA00F0D4F83D4934310846103823
:10CC000001602031816038215C38FEF7F2FA384843
:10CC1000217838380170A1788170E178C17061782D
:10CC200041706269216942610161E268A168C26084
:10CC300081600146E369A269CB618A61616A00296A
:10CC400019D00146AC310246B83241628A60636A4B
:10CC50001B880B80616A436A898899800021436A36
:10CC600006E00E2070BD666AB668765C5654491CB4
:10CC70009E888E42F7D8A16A00291CD01C4AAC328B
:10CC800011460C398A608162A36A9B888B80A16AF5
:10CC9000836A098819800021836A04E0A66AB6685D
:10CCA000765C5654491C9E888E42F7D82C210A5D2A
:10CCB0000F4918390A73216A002909D00B49143128
:10CCC0000162226A52884A80216A026A09881180B8
:10CCD0006168002904D00549891D4160616841608F
:10CCE000034829463838FFF73FFF70BDB0200020C9
:10CCF000D425002010B502881C4C102A17D0002122
:10CD0000112A1AD01B2A11D1007A00280ED160797D
:10CD100001281ED0022822D0032822D0042805D1C1
:10CD20002171E2680846002A00D0904710BD817D3D
:10CD30000129FBD18088208110BD61708088218904
:10CD40008842F9D1012005E021690029F4D0884703
:10CD500010BD022000F058F80028F5D110BD0320C6
:10CD6000F8E7032020710420F4E70000B020002041
:10CD700010B5022801D003280ED1084C20780028D5
:10CD80000AD000202070607900F03EF8002803D01F
:10CD90002169002900D0884710BD0000B020002084
:10CDA00010B507210148FEF724FA10BDC820002065
:10CDB00010B51348007801281FD1124C6078002864
:10CDC0001BD16079002802D074DF002816D1012021
:10CDD0000B49607006203839C8700948002138387E
:10CDE000FFF7C2FE002809D1607900F00DF8002895
:10CDF00003D02169002900D08847002010BD000021
:10CE0000D4250020B0200020F0B5784C87B06071A8
:10CE1000002606A8069602F039FE0127082802D04F
:10CE2000002808D104E006A801F01AFE002804D169
:10CE30000698002801D02770D4E0FFF7B1FF6C4DB1
:10CE40006878002802D06079012807D0A8780028E7
:10CE50000CD06079012801D0022824D1E168002992
:10CE600003D0E7700820884700E0E6706079012869
:10CE700008D16878002809D05C48193002F0C2FD5A
:10CE8000002803D06079022802D00CE002206071F3
:10CE9000A878002805D05548193002F0B3FD0028C5
:10CEA00001D103206071287B002804D16079032818
:10CEB00001D104206071287E002804D16079042803
:10CEC00001D166712671E16800290AD060790328D2
:10CED00001D0042805D12878002802D060780028E5
:10CEE00017D0A67018216846FEF783F968460670C9
:10CEF000019606720396607901280ED0022815D09B
:10CF00003B4E243637465C3F03281BD004285DD1B6
:10CF10003AE0A77007208847E4E7344818300190CA
:10CF20006846077046820682277152E02F48183003
:10CF300001906846077029894182A98801820220F0
:10CF4000207146E0A88A69464882288A08822848D3
:10CF5000243004F0D2F8002805D02878002802D028
:10CF60006078002801D003202FE002206946087273
:10CF700004200396F8701E4800213838FFF7F4FDAE
:10CF8000002830D1052020E0A88B69460882288C33
:10CF900048821748243004F0B0F8002805D02878DB
:10CFA000002802D06078002801D004200DE0022083
:10CFB0006946087204200396F8700D48002138383D
:10CFC000FFF7D2FD00280ED10620207160790028DD
:10CFD00003D0684673DF002805D1E168002901D03D
:10CFE00020798847002007B0F0BD0000B020002065
:10CFF000D425002073B586B004002FD06A46217C6A
:10D00000127F0020914227D0002501266846009516
:10D010000680458007A80190E188608A6A46A4DFFF
:10D02000002819D16846007F2074608A0D49884223
:10D0300016D0207D002813D0029503950495059500
:10D04000E188684601818672418881810490019857
:10D050000590608A02A9A6DF08B070BD0E20FBE72C
:10D060000820F9E7FFFF000038B50D4604001AD08C
:10D07000002D18D0286820600020C04360822879E5
:10D080002075FF20207401216846817007490180C6
:10D09000221D69460120A0DF002803D12946204631
:10D0A000FFF7AEFC38BD0E2038BD00000F180000A1
:10D0B00038B5002824D0002922D00A88102A1AD096
:10D0C000112A1AD0502A1BD1027D002A18D0CA88F2
:10D0D0004389891D9A4213D14A89022A10D10268D4
:10D0E000002A0DD04B7B0C7B19022143C907C90FC5
:10D0F00007D0002106E0898801E00021C943418270
:10D1000038BD01216B4619706946904738BD000053
:10D1100070B5054601461C220E48FEF751F80E4C2C
:10D12000002626702968002906D00822201DFEF757
:10D1300047F8201D7ADF02E00748001D7BDF00284A
:10D1400007D1401E60806670044A00210448FFF742
:10D1500091FB70BDC0260020D0200020D10E02001F
:10D160005C630200F8B5214C028800271E4DE68959
:10D17000102A15D01E49112A21D0122A2DD0502A4A
:10D180001CD1C288801DB24218D14289022A15D111
:10D19000427B037B10021843C007C00F0CD112E082
:10D1A0008188698001461048082218310C30FEF74A
:10D1B00007F86F70002E01D100F0AAFEF8BD002024
:10D1C000C04368806F700868FFF7F0FB0028F5D057
:10D1D000A1690029F2D08847F8BD082281180248C9
:10D1E0000C30FDF7EDFFE7E7D0200020C02600203F
:10D1F0005C6302007CB5054608880C460930904205
:10D2000001D90C207CBD684671DF0028FAD1218845
:10D210000820685420881B21401C80B2208029549B
:10D22000208800A9401C80B22080401906220131CC
:10D23000FDF7C6FF20886946801D80B220800978EE
:10D24000002900D0012129542088401C2080002082
:10D250007CBD000070B5044601F020F82046FFF7C1
:10D2600081FF204600F08EF920880F4D102802D053
:10D2700011280CD108E0072000F0F2FA002801D0B4
:10D28000FFF7C0FAA08801E00020C043A880204634
:10D29000FFF730FD2146054800F03EF803482146DF
:10D2A0001C30FFF705FF70BD80200020FC2400200B
:10D2B00030B5184B0D4604000FCB85B003936B4679
:10D2C00007C324D0002D22D00020C043A0822868AC
:10D2D000A0610020A0752146684663DF002814D1B4
:10D2E00021786846817401210182A21C04A90120D1
:10D2F000A0DF002809D12946204602F055FE00286B
:10D3000003D12946204603F0E9FC05B030BD0E20CC
:10D31000FBE7000094630200F8B504000D4612D04C
:10D32000002D10D028880026154F10280CD0112869
:10D3300018D0502807D113A10020FEF73FFD294641
:10D34000204602F013FBF8BD8888A08213A10020BC
:10D35000FEF734FD3B4617A2172100200096FEF78A
:10D36000F5FAF8BD16A10020FEF728FD3D463B4624
:10D370001AA2172100200096FEF7E8FAA582F8BD50
:10D38000FFFF0000424C455F47415454535F4556F0
:10D39000545F57524954450D0A000000424C455F06
:10D3A0004741505F4556545F434F4E4E45435445A9
:10D3B000440D0A00434F4E4E4543542000000000E8
:10D3C000424C455F4741505F4556545F4449534383
:10D3D0004F4E4E45435445440D0A000044495343C3
:10D3E0004F4E540007B584B000280DD0828A114BEF
:10D3F0009A420BD0827D002A08D06A46128B142AEA
:10D4000006D9072007B000BD0E20FBE70820F9E78A
:10D410000022009201920292039282896B461A8046
:10D42000039106A9029101219970808A6946A6DFBD
:10D43000E8E70000FFFF00000A78027049784170B9
:10D440000220704700B51A4887B080680590002315
:10D450004822184905A802F0EDFF002801D0FFF787
:10D46000D1F96A460121002002F0CCFF002801D04A
:10D47000FFF7C8F9104802F0F5FD002801D0FFF7CA
:10D48000C1F9684602F03EFF002801D0FFF7BAF963
:10D490000A4802F02DFF002801D0FFF7B3F9084831
:10D4A00002F0EAFF002801D0FFF7ACF907B000BD99
:10D4B0000C110200A0240020E81F002055D201001A
:10D4C0006D0602001CB5044681786A460C4802F0DD
:10D4D000F1FA002812D160781C21484309491C2325
:10D4E00040181A46694602F0ABFB064806494C3024
:10D4F000807A80000A582146684690471CBD00008B
:10D50000F4200020BC270020746302007CB5154E77
:10D5100000250C463060002918D06946002000F034
:10D52000C7F800281DD101A9012000F0C1F800288A
:10D5300017D1684601790020002901D0022004E0BB
:10D5400069460978002900D00B20207070680028F7
:10D5500006D1FFF796F8054603A10020FEF72EFC42
:10D5600028467CBDA4200020656E74657220636F20
:10D570006E6E656374696F6E207374617475732168
:10D580000D0A000010B51C4C0188606810290DD0F0
:10D5900011290AD1401E606007D1FFF772F80028F8
:10D5A00003D02168002900D0884710BD00281ED173
:10D5B00000210122084600F02FF9002801D0072899
:10D5C00011D107220221012000F026F9002801D004
:10D5D000072808D104220221002000F01DF90028AC
:10D5E00005D0072803D02168002900D0884760684B
:10D5F000401C606010BD0000A420002010B5032076
:10D6000000F088FA002801D0062800D1002010BDC3
:10D61000F8B507460024234802E0641C042C1AD203
:10D62000A2008258BA42F8D1042C14D21D481E4ED2
:10D630000C38002929D001290ED002290BD1600015
:10D64000201880194578002D05D018480169002957
:10D6500001D028468847F8BD61006118755C8E19B5
:10D66000717800290CD011490A2249688068514319
:10D670000E4A521CFFF75CF9002801D10B48477095
:10D680000A48B17814300155DDE78068FFF78EF95C
:10D6900006486100611814308919005D8D78A84230
:10D6A000D1D0F8BD24110200702500208C2000206C
:10D6B00004280CD2074A1269074B80001B5C01202A
:10D6C0009840904300D0012008700020704700204F
:10D6D000FAE700000005005024110200F8B51F26EB
:10D6E0000024314DF6020E283DD00CDC042823D056
:10D6F00007282FD00A2805D12CA10020FEF75EFBB9
:10D7000002F0BEFDF8BD0F283DD01028FAD1264DFD
:10D7100014231F3500211A4608460095FEF7C8F865
:10D720002B4627A2002114200094FEF70FF926A112
:10D730000020FEF743FBF8BD25A10020FEF73EFBCD
:10D7400029481321808876DF0AE00028F3D0FFF70C
:10D7500059F8F8BD25A10020FEF730FBFFF728FBA4
:10D760000828F2D1F8BD142300211A460846009576
:10D77000FEF79EF8334612A2002114200094FEF713
:10D78000E5F821A1D4E7142300211A4608460096A3
:10D79000FEF78EF82B460AA2002114200094FEF713
:10D7A000D5F81BA1C4E70000E0FF00004253505F22
:10D7B0004556454E545F534C4545500D0A000000F8
:10D7C00046443230313800006B6579330D0A000071
:10D7D0004253505F4556454E545F444953434F4E64
:10D7E0004E4543540D0A0000802000204253505FF4
:10D7F0004556454E545F57484954454C4953545F2C
:10D800004F46460D0A0000006B6579310D0A000095
:10D810006B6579320D0A000070B50023042811D21F
:10D82000440004190D4D012A02D101290DD0002216
:10D8300046008019094E801900290CD0012906D014
:10D84000022906D00723184670BD0D30C2B22A55F2
:10D85000F9E74270F7E78270F5E7000070250020D5
:10D8600010B5054A0146127A0020D20702D00846B8
:10D8700000F054F810BD00008C20002070B50E465A
:10D88000204905464E608D6000200A61A9071ED51B
:10D890000024012211462046FFF7BEFF641C042C21
:10D8A00002D20028F5D012E0002810D1720804211D
:10D8B0001548FEF75FFF002809D1FEF749FF002851
:10D8C00005D11148114A00211438FEF7D3FFE907AA
:10D8D00006D00B220E4952058A600023CB608A6174
:10D8E00000280DD108480B4A00211C38FEF7C2FF62
:10D8F000002805D10448084A01211838FEF7BAFF6C
:10D9000070BD00008C2000203411020051DB0100AA
:10D91000000500501DEF010039C70100FEB57A4D2A
:10D920000522EB6892059A4302936B6800939C0072
:10D9300006461B1900200121019349050746734C37
:10D940003300FEF777FD180D1515374755677C88AE
:10D950007F8891DE9E9E9E9E9EC7CDD0D7DEDE1430
:10D960000B21029A49059143A160E7602F70FEBD2B
:10D97000A260E76060680B2252055040800209D522
:10D98000A160E760022E02D1E120C0000AE07D2004
:10D99000400107E0E160A760022E01D1C82001E04C
:10D9A000FF2091302E706421FDF7E0FB0099414388
:10D9B00000223FE0A260E76060680B225205504001
:10D9C000800204D5A160E76019204001EAE7E16028
:10D9D000A760E3E7A260E76060680B225205504051
:10D9E000800202D5A160E760D1E7E160A760D7E7D8
:10D9F000A260E76060680B2252055040800202D5A9
:10DA0000A160E76001E0E160A7602E70009841002E
:10DA100000220FE0A260E76060680B2252055040D0
:10DA2000800202D5A160E76001E0E160A7602E708E
:10DA30000099002236480068FEF77AFFFEBDA2601A
:10DA4000E7601BE061680120800502468A43A2600E
:10DA50000140E16010E06068012189050A468243C7
:10DA6000A2600840E060E3E76068012189050A469A
:10DA70008243A2600840E0600199C9E7E160A760C5
:10DA80002CE023484068FEF791FF11218A1B01D04A
:10DA9000002807D00B22E96852051140A160E76019
:10DAA000EF60FEBD01218905E960012A0BD9C8207C
:10DAB00050436421FDF75AFB696800224143144832
:10DAC0004068FEF735FF0B22E96852051140E1601E
:10DAD000A760FEBD0B214905A160E7602E70FEBD69
:10DAE00005229205ABE709214905A160E760012104
:10DAF0008905C3E701210906A160E7600321490503
:10DB0000BCE70B214905B9E78C2000200005005037
:10DB100018110200F0B500210B4C0C4D03273F04F7
:10DB20008A00A25892005619326801238B400340A4
:10DB300000D00323BA431B0413433360491C042958
:10DB4000EED30020F0BD00002411020000070050B9
:10DB500010B500780221FFF75BFD10BD0022D24313
:10DB6000830004490428CA5002D3081820300277E1
:10DB7000704700002C280020F0B50025ED43002A56
:10DB800002D00023042601E0042308260B4C04E005
:10DB90009F00E7597F1C04D05B1CB342F8D3284692
:10DBA000F0BD26185DB2203635709E00A151002AC6
:10DBB000F5D1E11820310877F1E700002C2800208A
:10DBC0000249091820200856704700002C28002020
:10DBD000F8B53E481422017851430C18E0680C2136
:10DBE00048433A492769CC31401805894189009159
:10DBF000241D466801F0F0FF01463846FDF7B6FAED
:10DC0000002932D000200099A2884D436188AE19C6
:10DC10008918CD1900222E4900280A6109D001F087
:10DC2000DBFF6188884222D0B54202D1A08800285B
:10DC30001DD0A06803281AD001F0CEFFA188CA1910
:10DC400001461046FDF792FA214C8808E06001F089
:10DC5000C3FF01462846FDF789FA002911D00020AC
:10DC6000B5422FD000280ED02CE00120CBE701F0E8
:10DC7000B3FF01463846FDF779FA1549486103209C
:10DC800021E00120ECE7ADB2B7B201F0A5FF0146FB
:10DC90003846FDF76BFA064601F09EFF014628461E
:10DCA000FDF764FA864201D1781B09E001F094FF88
:10DCB000064601F091FF01462846FDF757FA701A13
:10DCC00080082061022002F0EFFAF8BD90280020C1
:10DCD000FC20002010B50748142201785143081891
:10DCE0000079042802D000F059F810BD012002F09C
:10DCF000DBFA10BD9028002010B50B4814220178E3
:10DD000051430818094AC18811620079012806D0D8
:10DD1000032801D0042801D1FFF75AFF10BD0120CC
:10DD200002F0C2FA10BD000090280020FC20002064
:10DD300014225043054A002180180171C18002223B
:10DD40000161C2604161018170470000902800209C
:10DD5000F8B5104C069E65780A2D19D027787D19E4
:10DD60000A2D00D30A3D14277D432D1928716A61BD
:10DD700003C92961E860EB802E816078401C6070E7
:10DD800005480078002801D1FFF7B6FF0020F8BD54
:10DD90000420F8BD90280020FC20002010B50D4C78
:10DDA00014212078484301190020091DFEF73CFD8D
:10DDB0002078FFF7BDFF6078401E60702078401C1F
:10DDC000C0B220700A2801D100202070002002F08B
:10DDD0006BFA10BD90280020F8B52348C1680029CF
:10DDE0003ED00E6821494C680769C078E11B0D02DE
:10DDF0002D0AED1C002814D101201D4A000450609A
:10DE00001B4A403A50601B49400008601A490860AC
:10DE10001A49012008602F20FDF77CF912490120E2
:10DE2000C870B54200D23546E81900020F4B000A0F
:10DE3000403318600D4A5168001B091B0902090A8A
:10DE40000002000AC91C814209D9506818602F20BD
:10DE5000FDF760F901200749400480390860F8BDEA
:10DE600002F064F8F8BD00003421002000150140E4
:10DE70004013014080E200E000E100E000100140BA
:10DE8000F8B50646108814468446801D0D46984213
:10DE900001D90C20F8BD32880720062AFAD31927A9
:10DEA000FF01184BBA4201D99A42F3D17188062971
:10DEB000F0D3B94201D99942ECD19A4203D09942A8
:10DEC00001D08A42E6D805216046295420881221D3
:10DED000401C80B2208029542088401C80B22080C1
:10DEE0004119308802F0E4FF2188401880B2208078
:10DEF0004119708802F0DCFF218840182080002042
:10DF0000F8BD0000FFFF000010B5FEF77BFC10BD60
:10DF1000F8B5164800F07EFF144D00260C3D144C59
:10DF2000002807D0616900291CD001206A461070C2
:10DF3000684616E02878002805D06169002911D0CC
:10DF4000684606700DE0687800280DD0A168094881
:10DF500000220068FEF7ECFC002803D0A16900292C
:10DF600000D088472E70F8BD6168F0E7DC20002003
:10DF7000C02600205C63020070B5094B04469E7AFF
:10DF8000082000250E4207D00648844202D0188996
:10DF9000A04202D10020156070BD052070BD0000B8
:10DFA000FC270020FFFF00000C214843064910B564
:10DFB000012240188272911E0181FF21C172072146
:10DFC000FDF717F910BD0000FC27002010B5134C19
:10DFD000207900071FD46069401C6061E068002858
:10DFE00001D0042004E000F047FF002803D0022005
:10DFF00002F032FB10BD2069002809D06068C1071B
:10E0000001D00320F4E70121084360600020EFE71E
:10E01000FFF760FE10BD02F013FB10BDFC200020D6
:10E0200010B5084841680A0708D48A0702D50122BA
:10E0300011434160022002F00FFB10BD02F000FB13
:10E0400010BD0000FC200020F8B500260124154D6D
:10E0500023E06968F0004718387821462A69814032
:10E06000114218D08A432A6101F07EFB3A7821469A
:10E07000EB68914019400346934099420BD179785F
:10E08000012901D0012100E000217B684140002BE3
:10E0900001D010469847761CF6B228788642D8D32D
:10E0A000F8BD000020210020FEB50E460446817810
:10E0B0006A46234801F0FEFC002826D160780C2136
:10E0C000204F4843C019807A40061FD4022E1DD02D
:10E0D000012E1DD01C4DA0781C2148431B49002354
:10E0E00041181C226846A847002813D0022E0CD0E5
:10E0F00020780C21484313490C314018807A144988
:10E1000080000A58214668469047FEBD114DE2E75F
:10E11000114DE0E7022EF8D060780C214843C01979
:10E12000817ABF221140817260781C2148430549E1
:10E13000403941181C231A466846A847D8E7000012
:10E14000F4200020FC270020C5050200F82600204E
:10E150006463020089FE0100A9FD010070B5054657
:10E16000114A124800241C2363431B189B7EFF2B7B
:10E1700004D0641C072CF6D3104670BD0A78022A1E
:10E1800009D01C2262431018FD228276072210302B
:10E19000FDF716F804E01C2161430818FE21817682
:10E1A0002C700022E8E7000043800000F8260020E1
:10E1B000F7B505250F4F06460024002E0AD01C2077
:10E1C0006043C019072231461030FDF71DF80028C2
:10E1D00007D00AE01C206043C019018B02988142DD
:10E1E00003D101980025046002E0641C072CE4D3ED
:10E1F0002846FEBDF82600207CB5054681B26A4659
:10E20000074801F057FC040008D17421684601F06A
:10E210007DFC040002D1284601F000FC20467CBDB4
:10E22000F420002010B5100001D0FEF7EBFA00201A
:10E2300010BD00001FB56946087301F0D3FC00282B
:10E2400001D0FEF7DFFA03A800F01AFA002801D087
:10E25000FEF7D8FA01A805210130FCF7CAFF69468C
:10E260004979012001438122114030314A06520E82
:10E2700069464A7107228A711022CA7105490091C4
:10E2800069460871044800F021FB002801D0FEF720
:10E29000B9FA1FBD25E2010081200020F0B591B040
:10E2A0000546FF24002007940290E94800780028E2
:10E2B00049D0E84F3868002845D001A800F0D2F9CD
:10E2C000002801D0FEF79EFA281D05902C206946F3
:10E2D0000883FF20002688710E710396DD4C288884
:10E2E0000C3C10280ED0A88803AA0221FFF744FE98
:10E2F000002807D103980C2141430919CA7A6946BD
:10E300008A7148712A881320192A7DD00FDC102ABF
:10E310001BD0112A55D0132A77D0142A13D1039871
:10E320000C2148430019C07AFF286FD0A1E0CA49E8
:10E330001A2A6CD01E2A65D0522A04D1B87A8000DD
:10E34000095801A8884711B0F0BDC44F03AA0121A4
:10E350003846FFF711FE0028F5D103990C204843F9
:10E3600002220019827211236A4613745171A9881E
:10E3700001812946083107220091FCF721FFE87D41
:10E38000C10707D04108B2480830405CFF2808D0D8
:10E39000079006E03A4607A90098FFF709FF002812
:10E3A00037D103990C22514309190798C8728A7A08
:10E3B00008231A438A726946887101A8FFF782F818
:10E3C00027E003980C2148430119887AFD22104068
:10E3D0008872010706D5C0090DD0002101A8FFF7FA
:10E3E00063FE08E068468079FF2804D001F016FB40
:10E3F000FF206946887103980C22504310210019B0
:10E4000081721220694603E08BE043E014E0E4E00F
:10E410000874324604A901A8FEF700FA6846007C99
:10E42000122890D103980C2141430919897A0129B6
:10E4300089D0FFF7B9FD86E72A8A07A90020FFF7F0
:10E44000B7FE00280ED103990C22514309190798F1
:10E45000C8728A7A08231A438A726946887101A8A9
:10E46000FFF730F803980C2148430019C07AFF28C1
:10E4700006D003981C21484376494C394018029035
:10E4800003981C21484376494218A8880023029922
:10E4900086DF58E76946087403980C214843011940
:10E4A000887A042210438872CA7AFF2A0BD040224D
:10E4B000104388721620694608740023A8881A46FB
:10E4C00085217FDF21E007A8FFF748FE00281FD045
:10E4D000064600200D9003990C224A431219D27A65
:10E4E0001C235A435E4B0F90D2180E921C225143AC
:10E4F0001A46C4328918109009910A900B900C901A
:10E500003A1DA88809AB00217FDF002893D180E75E
:10E5100069460798887103990C2251430919C872FA
:10E52000D7E7787A0C2140084000787203986F464C
:10E5300002464843011984468B7AFB2003408B72C4
:10E5400014203874287A002806D05806DFD4C87AF8
:10E55000FFF752FE2E7A5CE7687A4007D7D5B87984
:10E56000FF28D4D008273B438B726B7B9B0708D5D1
:10E570001C2503466B433A4D5B199D7E6D086D006B
:10E580009D76CB7AFF2BC2D06346E35C022B10D082
:10E590001C225043324D072240191030FCF710FE68
:10E5A000684680791C2148434019817EFD22114034
:10E5B0000DE01C214A4327494C3951184A8A1C2135
:10E5C0004843274940180283817E490849008176E3
:10E5D000012101A8FFF768FD1BE7287A0209012A3B
:10E5E00023D10007000F01281FD103980C224243BA
:10E5F0001219927A120718D5242148431549303947
:10E6000040181A210830FCF7F4FD162069460874FA
:10E6100003980C2148430119887A602210438872BC
:10E62000787A0221084378720FE003980C22504355
:10E630000019827A80231A43827215206A46107468
:10E64000B87A8000095801A888470026E1E6000052
:10E65000E42000200828002084630200FFFF00005F
:10E66000F8260020002806D0FF210170417081703B
:10E67000C170002070470148704700000E80000004
:10E68000F0B585B0040036D02948002505604572F4
:10E6900085722846FFF788FC254824213038FCF78E
:10E6A000A8FD0026FF27304601F0B8F9214887551C
:10E6B000761C072EF7D37421684681800721C1801C
:10E6C0001D481C4900900831684601F00FFB0028E6
:10E6D0000FD1184E0120083E3070207800280CD051
:10E6E00069468888C988484381B23046103001F0B5
:10E6F0000DFA05B0F0BD1148FBE7114F00240D489D
:10E70000A1B202AA083001F0D5F9002809D11C20D5
:10E710006043C01900231C2202A901F091FA0028CD
:10E7200001D03570E5E7641C072CE8D3E1E7000071
:10E7300008280020EC20002045E701000E800000A2
:10E74000F8260020FFB55C4891B000681A9F1E466D
:10E75000002873D0742F71D86846FFF783FF002814
:10E7600001D0FEF74FF80024684604700471254676
:10E7700005970696A9B20FAA504801F09BF9002808
:10E7800006D108220FA91198FCF73EFD002817D0EA
:10E790006D1C072DEED368468578FF2D4ED012985C
:10E7A000032810D046481C21301AFCF7DFFC012753
:10E7B00007281ED204A80290139800280BD011E05D
:10E7C00068468570E7E7742F03D0402069460871DA
:10E7D0006BE02020FAE738463849A84010394968EC
:10E7E000084260D0284602F069FB20206946087183
:10E7F00049E031481C214C38301AFCF7B7FC00289E
:10E800001DD02D4824213038301AFCF7AFFC010010
:10E810002C482BD040216A4611712B498E4244D09E
:10E82000274AA9001C3A5158B1423CD104A902918F
:10E83000C07A854227D16846447024E033E004A8BA
:10E8400002902020694608714C701B490B940C31D2
:10E850000C9158390791694689781C225143184A0E
:10E8600005908918089107A906910CE030226946A5
:10E870000A714C70CF70807A800704D4114824212B
:10E880002438FCF7B6FC129869460228087910D0A3
:10E89000022108436946087104A8029001A968464C
:10E8A000139AFDF7BBFF15B0F0BD69460879032147
:10E8B000EFE73843EFE7000008280020F4200020AD
:10E8C000F8260020FC2700206063020070B5064691
:10E8D00018480D46007800280ED01749002E0ED09B
:10E8E000002D0CD02868002809D0144C216800297C
:10E8F00007D011480A3870BD0F48801F70BD084608
:10E9000070BD20600522691D201DFCF759FC287987
:10E91000A072207A0221400840000843FB221040E8
:10E920002072E0790123184308431040E071002071
:10E93000307070BDE42000200E8000000828002008
:10E94000F8B5064600213F237F220846FDF736F939
:10E950000025370A0024F1B2F8B2FDF7AAFB641CC7
:10E96000802CF8D36D1C402DF4D3F8BD10B50E49A2
:10E9700000234A788C78A24212D0521CD2B24A703C
:10E98000022A00D14B704A78074B920018339A58EC
:10E990000260086910180002000A0861012010BD19
:10E9A0000360002010BD00003421002010B50028B5
:10E9B00003D0112802D0FDF74DFF10BD02480822F8
:10E9C00041681143416010BDFC20002010B51C4C73
:10E9D000217820464068012906D0022929D0032940
:10E9E00012D1000717D513E0000711D415481422DF
:10E9F000017851430818C188A28B891A0904090CAF
:10EA0000C18002D001F0E0FD10BDFFF7C7F910BDD5
:10EA100000F09AFC10BD6069401C606100F02CFAA7
:10EA2000002803D0207801F03FFC10BDFFF752F919
:10EA300010BD6078044980000858804710BD000070
:10EA4000FC20002090280020B863020010B528DFC9
:10EA5000FFF7ACFF10BD10B529DFFFF7A7FF10BD12
:10EA6000002804D00349496D01600020704703204D
:10EA700070470000BC29002000207047002070472C
:10EA800000207047F8B506464078242104464C43E0
:10EA900024490C2250436118224A00254B68243235
:10EAA0008018AE462F469C46002B0CD0827A134627
:10EAB000D20908D05A0606D40D461A4A614689B2D0
:10EAC000175908358E46174C008924343B46724648
:10EAD0002946A9DF0B2819D0002800D01248012FA1
:10EAE00013D170780C214843001900890F4AA7DF21
:10EAF00000280AD00E49884212D0082810D0891C5C
:10EB000088420DD011280BD00020F8BD70780C2160
:10EB1000484301230019008972462946A9DFE0E72E
:10EB20000148F8BDD827002041800000FFFF000009
:10EB30000230000070B50C46014660782422084D72
:10EB400050434019382301F07BF8002807D1617841
:10EB50002422514349194A68521C00D14A6070BDB1
:10EB6000D8270020F3B589B00D461A20694688835E
:10EB700068780C2103274843224E3B4680190089C0
:10EB800007AA6946AADF002838D1687824214843BB
:10EB9000741A001969468A8B0830FCF735FB002887
:10EBA000687807D0242148430119496800290DD00D
:10EBB000154E0CE00C2141438919897A89071DD42F
:10EBC000242148430019FCF714FB17E00F4E27508F
:10EBD0006846828B6878242148430019426068782F
:10EBE0004843001969460830FCF7EAFA687824219E
:10EBF00048430119382324220998B04700200BB05C
:10EC0000F0BD0000FC27002089FE0100A9FD0100E5
:10EC100010B5FFF737FF10BD10B5FFF78BFF10BD24
:10EC200010B5FFF79FFF10BDF8B50746104E012540
:10EC3000BD403068FDF7BAFE00280DD10D4C2069AB
:10EC4000284207D1384600F08FFD0028E06804D044
:10EC5000284303E0A8432061F8BDA843E060206991
:10EC6000002228432061A1683068FDF761FEF8BDED
:10EC7000CC6302002021002070B51B4C20790007D6
:10EC80002ED41A481422017851430D182E6900F031
:10EC9000A3FF0146E8882A89761E80188019FCF7B0
:10ECA00065FA21690025002909D06169814206D1F0
:10ECB000E560606801210843606000200AE000F020
:10ECC000DBF8002802D00220E56003E0206900287C
:10ECD00003D0032001F0C0FC70BDFEF7FBFF70BD48
:10ECE00001F0AEFC70BD0000FC2000209028002048
:10ECF000F8B51C4C2078002833D02069002807D0B4
:10ED00000026E068002805D00025002E04D011E080
:10ED10000126F6E70125F8E7684652DF052804D00A
:10ED2000002804D0FDF76EFD04E0012602E0216911
:10ED300000988847002D10D1608869460880A06837
:10ED400061DF052804D0002804D0FDF75BFD04E056
:10ED5000012502E0E168A0688847002EDCD0002D84
:10ED6000D3D0F8BD582100207FB50C460D46203584
:10ED70000646697828780191009022462632D11EF5
:10ED80003046E36901F0CBFE002819D1E87800286D
:10ED90001DD1207B022801D0032818D12269E16906
:10EDA000914214D16269E261E37B2B70217E890676
:10EDB000C90F6970032804D03146204601F052FE85
:10EDC0007FBD00913146204601F02CFF7FBD2046DB
:10EDD0000C3007C801AB07C3E878002100280ED02B
:10EDE0000920C0013218506C5064820701D50120FF
:10EDF00002E0400705D502206A46107001E068462F
:10EE000001702971207E4007E0D42268684661685D
:10EE100090477FBD418805480288914204D34088CD
:10EE2000814201D80120704700207047D420002083
:10EE30001048018CC9B2012917D1818C090714D15E
:10EE4000018D09060A0F03D1828D1206120F0ED012
:10EE5000090F012903D1828D1206120F07D0032951
:10EE600003D1808D0006000F01D0002070470120E3
:10EE700070470000C00F00F070B50E4814220178F2
:10EE800051430C18256900F0A7FE0146E08822894D
:10EE90006D1E80184019FCF769F907494A698242DA
:10EEA00006D3824202D10869002801D0002070BD3B
:10EEB000012070BD90280020FC200020800701D098
:10EEC000002070470120704730B51588EC1C9C422B
:10EED00001D90C2030BD02244C5513881C255B1C25
:10EEE0009BB21380CD5413885B1C9BB21380012806
:10EEF00007D0022807D0032807D0042807D007200E
:10EF000030BD002004E0012002E0CC5401E00320E9
:10EF1000C8541088401C1080002030BD10B5044833
:10EF2000017AC90702D00078FEF7F8FC10BD000096
:10EF30008C200020F8B52C49C8680A690C780F7934
:10EF400089688646944600913EE00099E200551893
:10EF50002A7836E0182353436968521CC918AB78E5
:10EF6000D2B2934200D100220B78022B02D0032BA5
:10EF700027D123E04E680346014603E0B14204D0A6
:10EF80000B46C96900291CD0F8E7002919D08B422B
:10EF900008D1C069002805D1144F0126BE600026A3
:10EFA000B44601270E68C969D961002909D00B68E8
:10EFB0009B190B6005E00174C06900E00021002886
:10EFC000F9D169789142C5D12146641EE4B2002985
:10EFD000BBD1054962460A61C8600F71704501D016
:10EFE0000120F8BD0020F8BD3421002000100140B0
:10EFF000F8B5044631480026C168009107784EE014
:10F000002E48F90080680D1843E0002C02D02046FD
:10F01000E4691FE02878182141436A68401CC0B2A7
:10F0200051182870AA78904200D12E700A7848684A
:10F03000012A30D1027C002A2DD18A684260CA6838
:10F0400082600A69C260496981611C4909790029A5
:10F0500000D04660194943680A699C46991A09021A
:10F06000174B090A994202D28268891807E0614663
:10F07000511A09028268090A8A4202D9511A0160AA
:10F0800000E006604660012186600174C66101F0FF
:10F090004DFB002CB9D1287869788842BAD138461E
:10F0A0007F1EFFB20028ABD10448C168009881429E
:10F0B00001D00120F8BD0020F8BD0000342100205F
:10F0C000FFFF7F0038B50E4C2078002801D00020CB
:10F0D00038BD0125AB020B4A0BA100200095FCF7BF
:10F0E00007FE002807D11023094A0AA10090FCF767
:10F0F000D9FD002801D0082038BD2570E7E70000C1
:10F10000542100201F2A00204E6F726D616C000098
:10F110001F2E0020496E7075740000000FB408B5F2
:10F1200004A900916A460399FCF754FE01B008BC9B
:10F1300004B0184788B0042000F07FFB012119209B
:10F1400000F072FB00210A2000F06EFB1A2000F094
:10F1500074FB0023684A09211846FDF7A1FB00282B
:10F1600001D0FDF74FFB654A01216548FDF782FBA1
:10F17000002801D0FDF746FB6148624A0121001DCD
:10F18000FDF778FB002801D0FDF73CFB5E4A5F49A4
:10F190000320FEF773FB002801D0FDF733FB01A924
:10F1A0000020FEF7B3F9002801D0FDF72BFB6846DD
:10F1B000007902287ED0002168460170FCF742FFEA
:10F1C000FCF7FAFB01F052FBFEF73CF968460078C9
:10F1D000FFF730F801200146103168460172102215
:10F1E0004BA102A87CDF002801D0FDF70BFB002417
:10F1F00000945021684601940180A0214180FF21A4
:10F2000084809131C1807ADF002801D0FDF7FAFABD
:10F21000FDF756FA00F0FAFF1C216846FBF7E9FFFC
:10F220000520C00301900F200004029000940321E8
:10F2300068460173C48104743A4805903A480690C0
:10F240006846FDF765FF002801D0FDF7DBFA2C4D7D
:10F2500001210022C9032868FDF76AFB002801D0BC
:10F26000FDF7D0FA002221216868FDF761FB002834
:10F2700001D0FDF7C7FA0320FDF7C6FD002801D035
:10F28000FDF7C0FA294D0126192000F001FB0128E5
:10F2900020D00020FFF754FB254D26A22B4600214D
:10F2A00014200094FCF752FB682000F0B5F8002809
:10F2B00008D000E00CE02B4620A218211420009476
:10F2C000FCF744FB48DF0028FCD0FDF79BFAF9E788
:10F2D000012171E7192000F0DBFA012802D1A8789A
:10F2E000002806D0A8780228CED1164940068860AA
:10F2F000CFE7AE70C8E70000B821002039CB01008D
:10F300000C110200B10F0200DDD60100CD0C00008F
:10F310004E6F726469635F556172745F5465737494
:10F32000000000004DF9010009DF010080200020ED
:10F33000FFFF0000464432303138000074727565BA
:10F34000000000000005005010B504480822416884
:10F3500091434160007800F0A7FF10BDFC20002021
:10F3600070B5144682880E4605462088111D411846
:10F37000921C994201D8FE2A01D90C2070BD521C62
:10F3800032542088FF21401C80B2208031542088D4
:10F39000401C80B220808119288801F089FD2188D5
:10F3A000401880B22080AA88002A09D0A9680029C4
:10F3B00008D08019FBF704FF2088A9884018208016
:10F3C000002070BD072070BD08B5022269464120AB
:10F3D00000F05CF8002815D06846008840BA00B2FA
:10F3E000FCF790F80022084BFCF714F8074A084B8A
:10F3F000FBF75EFFFCF7AEF80649FBF71BFFFCF7D7
:10F4000095F880B208BD000000407540A4703D0A28
:10F41000D74342400000C84210B51B494000087065
:10F420000721682000F04CF8044680216B2000F092
:10F4300047F8642000F0B8F800216B2000F040F895
:10F4400018211B2000F03CF800211C2000F038F8A7
:10F450003221192000F034F804211A2000F030F88D
:10F460000021382000F02CF800216A2000F028F854
:10F470000021232000F024F88021372000F020F81C
:10F4800000F02CF8204010BDAC200020F7B50B4C4C
:10F4900015460E46002301226946207801F072FAD3
:10F4A00007462078012108430B462A46314601F0E1
:10F4B00069FA014639400846FEBD0000AC20002034
:10F4C00008B56A461070517003480123022269464C
:10F4D000007801F057FA08BDAC20002008B50122E1
:10F4E00069467520FFF7D2FF002804D068460078EF
:10F4F000682801D0002008BD012008BDF8B50F46DE
:10F50000017814460546012902D16878002806D002
:10F510002088821C9A422DD8012902D006E00720BB
:10F52000F8BD69784118891C994223D8181A801EA1
:10F5300086B2684606802188B81C081869467DDFB7
:10F540000028EDD12878022805D169460988B14202
:10F5500001D809210AE00821012805D16878B042C4
:10F5600002D86A46108001E0684606806846008836
:10F57000FE2801D90C20F8BD2288401CB8542088F0
:10F58000401C80B22080395420886946401C20806D
:10F590000988401820800020F8BD00207047002016
:10F5A000704700207047000031B5054C04E0401E54
:10F5B00000902046FBF79EFD00980028F7D138BD4B
:10F5C000E70300008207D30EFF229A408907090E45
:10F5D00010B5994000280BDA03071B0F083B9C0865
:10F5E0000C4BA400E318DC6994430C43DC6107E096
:10F5F0008408094BA400E418236893430B43236059
:10F60000C106C90E01208840044908600449086009
:10F6100010BD000000ED00E000E400E080E200E04A
:10F6200000E100E0F3B581B00F46019800F016FA52
:10F63000012400281E4E019817D0FEF7C1FA801948
:10F640002030007F8009032802D0012806D007E07F
:10F650001848006901998C40204201D1022100E044
:10F660000321019800F0FCF8FEBD00F003FA002829
:10F67000FAD00198FEF7A4FA05468100C81D0E4A8B
:10F68000F93089180A6980B222430A610B4940188F
:10F6900000210160002FE7D00198FEF791FA800069
:10F6A00030580028E0D00648AC404460FEBD000061
:10F6B0002C2800200005005000650040006000403C
:10F6C00000630040FEB5044623480E460019202181
:10F6D00041560027C8171346401C01D0082738E0C0
:10F6E000F27819462046FEF747FA0546401C2FD00F
:10F6F000B078002807D01948A1000918086802222C
:10F700009043086007E000217378204600910A4684
:10F71000019100F077F8F078002810D01048AA0086
:10F720001018317802690F4B1A400261E206D20CC0
:10F730008907890B0A4301690A43026109E0064807
:10F74000327840192030017F92011143017700E0A7
:10F7500004273846FEBD00002C280020000700507A
:10F7600000650040FFE0FCFF03490969C140C8078C
:10F77000C00F00D0012070470005005070B5124D39
:10F780002879002801D0082070BD0F490020403999
:10F79000421E0B182033401CC0B21A702028F8D328
:10F7A00000242046FEF7DAF9641CE4B2082CF8D3F2
:10F7B00003210620FFF706FF01200449C007486027
:10F7C00001202871002070BD6C28002000630040DB
:10F7D00002480079002800D0012070476C280020E2
:10F7E00030B552000A439900039C0A432102049D4C
:10F7F0000A4329040A43024980004018026030BDD0
:10F800000007005030B552000A439900039C0A4398
:10F810002102049D0A4329040A430249800040183A
:10F82000026030BD000700501CB500220B4600925C
:10F8300011460192FFF7D4FF1CBD1CB500210091B9
:10F840000B46012201911146FFF7CAFF1CBD0000C3
:10F85000024A0321800080180160704700070050B1
:10F86000820006481018026803231B049A430260B2
:10F87000026809040A430260704700000007005054
:10F88000012181400148C16070470000000500501F
:10F8900002490969C140C807C00F70470005005000
:10F8A000012181400148816070470000000500503F
:10F8B000034940180068012800D00020704700006C
:10F8C000006000404058002800D001207047405898
:10F8D000002800D0012070470322120280184068DF
:10F8E000084000D001207047F8B516460D460024A8
:10F8F0000AE02A5D0AA10020FCF760FA29193246C5
:10F900000848FDF76FFD641CB442F2D30020A855EF
:10F91000054B2A4601460090FCF718F8F8BD000098
:10F9200025780000FC240020FFFF000010B500280F
:10F9300009D0032806D10220FDF792FF002801D04C
:10F94000FCF760FF10BD00F09BFC10BD10B5007807
:10F95000002807D104483B21808876DF002801D0A9
:10F96000FCF750FF10BD00008020002070B5054658
:10F970008C1DC888298A884202D16189022910D049
:10F98000A98888420CD1A869002809D00CA10020C0
:10F99000FCF714FA2146AB6962890C312846984776
:10F9A00070BD10A10020FCF709FA607B217B0002EA
:10F9B0000843C007C00F00D00120A87570BD00002B
:10F9C000705F6E75732D3E74785F68616E646C65F0
:10F9D000732E76616C75655F68616E646C65200D71
:10F9E0000A000000705F6E75732D3E72785F68616B
:10F9F0006E646C65732E636363645F68616E646CD0
:10FA0000650D0A000021425C002A01D001207047E8
:10FA1000491C0629F7D300207047000070B5054641
:10FA20001C200D4968434418204611300621FBF77D
:10FA3000E0FB20461021FBF7DCFBFF2121740020B6
:10FA4000A176C0432083284601F038FA024A0020FC
:10FA5000A9001C3A505070BDF8260020044908182F
:10FA600020214156042901DB012070470020704706
:10FA70002C2800200449081820214156042901D2CD
:10FA800001207047002070472C2800200749097981
:10FA9000490701D408207047002804D00449497858
:10FAA0000160002070470E2070470000FC200020FD
:10FAB0009028002070B5134B1B795B0701D40820F8
:10FAC00070BD002817D0002A15D00368022B10D271
:10FAD0000C240D4D5C432E59002E0AD04668601947
:10FAE0000489458940686143654371182818884234
:10FAF00003D8072070BD0E2070BD13600020516038
:10FB000070BD0000FC2000205C290020FEB50446EA
:10FB100026480E460079400701D40820FEBD002C7F
:10FB200025D02068022836D20C21214D484329587F
:10FB3000002930D040194189028940685143091891
:10FB40006068814227D9FFF7B9F9002811D06068B1
:10FB5000019021680C2251434F1979680091401A95
:10FB600039890D46FBF702FB002914D103E00E2072
:10FB7000FEBD1020FEBD29463046FBF7F7FA0029EE
:10FB800009D1002E07D07889009945430198491979
:10FB90008019884201D90720FEBD0020024600904E
:10FBA000334621460320FEF7D3F8FEBDFC2000209B
:10FBB0005C29002010B507484469601C06D000F09D
:10FBC0000BF801462046FBF7D1FA10BD01200007D3
:10FBD000406910BD0010001001200007006980B2CC
:10FBE0007047000070B50024134825460470447027
:10FBF0002846FEF79DF86D1C0A2DF9D30F4D6C8039
:10FC0000FFF7D8FFC61EFFF7E7FF46430A4A00206A
:10FC1000AE60CC326C610C214143545089180C8188
:10FC2000401C4C810228F6D32C70AC610420EC619E
:10FC30006860002070BD000090280020FC2000209B
:10FC4000FFB5284881B000791F4616460C4640078C
:10FC500002D4082005B0F0BD002C1DD0019800286A
:10FC60001AD02068022815D20C211F4D484329586C
:10FC700000290FD041194A8908894968424351181F
:10FC80006268914206D9002E04D0B04202D3F11925
:10FC9000814203D90720DDE70E20DBE70198FFF75B
:10FCA0000DF900281BD03846FFF708F9002816D0B8
:10FCB0006068FFF703F9002811D060683246C11967
:10FCC0000198FBF77DFA009620680C2148432D58D7
:10FCD000002202212046019BA8470020BAE71020FD
:10FCE000B8E70000FC2000205C290020F8B52C4D6E
:10FCF000044628790E46400701D40820F8BD002CA0
:10FD000020D0002E1ED0206800281BD0FFF764FFF3
:10FD10000146A088814213D3102811D3E08800281F
:10FD20000ED0FFF747FF471EFFF756FF4743E28815
:10FD3000A188A8684A431218974201D3890703D0C3
:10FD40000720F8BD0E20F8BD6988022926D0316051
:10FD50000C22144B51437060CA18506020685850F0
:10FD6000A0881081E0885081FFF736FF0646FFF734
:10FD700033FFA188E288401E514340183146FBF70B
:10FD80000BFA0446FFF728FF0146A86861430818EC
:10FD9000A8606888401C68800020F8BD0420F8BD79
:10FDA000FC2000205C290020F8B5044621481E46AE
:10FDB000007915460F46400701D40820F8BD002FF2
:10FDC0001CD0002C1AD02168022915D20C204143E6
:10FDD00019484258002A0FD0081842890189406802
:10FDE0004A4310186268904206D9002D04D0A942F7
:10FDF00002D3A819884203D90720F8BD0E20F8BD08
:10FE00003846FFF75BF8002811D03046FFF756F868
:10FE100000280CD06068FFF751F8002807D02B4667
:10FE20003A46214601200096FDF792FFF8BD1020CA
:10FE3000F8BD0000FC2000205C29002010B511490D
:10FE400002460878002811D004280FD0022A16D0C4
:10FE5000032A0BD10A79120711D48A69521C8A61CC
:10FE6000032A08D0022802D000F01EFA10BD4878FC
:10FE700000F0F2FB10BD0D20FCF7ECFC10BDFEF70E
:10FE8000A5FD10BDFC200020F8B5044621481E4603
:10FE9000007915460F46400701D40820F8BD002F11
:10FEA0001CD0002C1AD02168022915D20C20414305
:10FEB00019484258002A0FD0081842890189406821
:10FEC0004A4310186268904206D9002D04D0A94216
:10FED00002D3A819884203D90720F8BD0E20F8BD27
:10FEE0003846FEF7EBFF002811D03046FEF7E6FF5C
:10FEF00000280CD06068FEF7E1FF002807D02B46F1
:10FF00003A46214604200096FDF722FFF8BD102056
:10FF1000F8BD0000FC2000205C29002001225207CF
:10FF20005110886B496B41438818704770B50124A4
:10FF30000B49600408600B4940108860094940394A
:10FF40008860094D6C602F20FBF7E4F8AC60074D2A
:10FF500000242F202C61FBF7DDF8EC7070BD000051
:10FF600080E100E0401301400010014034210020F6
:10FF700030B50A48FF21C57D0022094C0931094BE3
:10FF8000002D625007D09969437EC268D154417EEA
:10FF9000491C417630BD986930BD000074280020AE
:10FFA000002000400025004070B500240546601C7C
:10FFB00090B00007000F08A9103008940870601C6A
:10FFC0000007000F103048708878F9263040801CF8
:10FFD00088701C2101A8FBF70CF9694608791021EB
:10FFE000084369460871029408A80494059407948C
:10FFF0000690287808A98871032069468884112012
:020000040002F8
:100000000094087048708878F7213040801C0840C0
:10001000EF210840012630436946887014210AA860
:10002000FBF7E7F809A80A9068460B9069460E8628
:1000300014204C8688862B4668880C330AAA01A9AE
:10004000A2DF10B070BD00001FB501236A46137017
:1000500010720348019106C8684690471FBD000012
:100060007428002038B5044609480090A0420DD0FD
:10007000FFF754FF0546234606A10020009AFFF72C
:100080004DF82A1B10A10020FFF748F8002038BDCA
:100090008020002052414D2053544152542041446D
:1000A000445220307825782073686F756C64206224
:1000B000652061646A757374656420746F2030789C
:1000C00025780D0A0000000052414D2053495A4541
:1000D0002073686F756C642062652061646A757353
:1000E00074656420746F2030782578200D0A000034
:1000F00010B50121202805DA1A4A8140114201D1A8
:10010000194810BD8107C90E002808DA0207120F2E
:10011000083A9208154B9200D218D26904E082087E
:10012000134B9200D2181268CA401106890F042995
:1001300011D200290FD002290DD00E494C68C306F8
:10014000DB0E01229A40002C08D0400980000B5899
:1001500013430B5004E00448401C10BD06480260E5
:10016000002010BDFC06FFBC0120000000ED00E0F7
:1001700000E400E06C21002000E100E0FFB507464C
:10018000806A81B0144600283DD0002538462030D2
:10019000009033E00C20B96A68430E18B088801CC8
:1001A000FE2802D90C2005B0F0BD22880299401C1F
:1001B000885420881622401C80B2208002990A545C
:1001C0002088401C80B2208002994118308800F0BD
:1001D0006FFE2188401880B22080B288002A0AD0A1
:1001E000B16800290FD0029BC018FAF7E9FF2088F8
:1001F000B188401820806D1C0098EDB2007BA842A9
:10020000C8D80020CFE70720CDE7000000B587B0B1
:1002100014216846FAF7EDFF0120014668461031C7
:100220004173012001466846103181730020014668
:100230006846C173012001466846103101740021EF
:1002400001220091027102916421017369460A48FA
:10025000FCF70AFF002801D0FCF7D4FA0748059004
:10026000054805A91C38FDF723F8002801D0FCF744
:10027000C9FA07B000BD000018250020E9F8010008
:1002800010B50020FDF7ECFA002801D0FCF7BAFA0F
:10029000FDF7B4F9002801D0FCF7B4FA3CDF0028E0
:1002A00001D0FCF7AFFA10BD10B50F490028087057
:1002B00009D0012811D0022812D0032802D14869A0
:1002C000FEF7C4FB10BD00208861C8610748407874
:1002D0000028F7D0FDF710FD10BD00F075F910BD36
:1002E00000F0D4F810BD0000FC2000209028002071
:1002F000002803D00249C860002070470E207047D4
:10030000582100207CB50446144801900246009014
:1003100013A10020FEF702FF6946204660DF044675
:100320000199009888420ED0FFF7F8FD054615A107
:100330000020009AFEF7F2FE009821A12A1A002060
:10034000FEF7ECFE07E0002C05D0224626A1002097
:10035000FEF7E4FEFEE720467CBD00008020002082
:1003600073645F626C655F656E61626C653A2052B2
:10037000414D2053544152542061742030782578E7
:100380000D0A000073645F626C655F656E61626C8C
:10039000653A206170705F72616D5F6261736520A4
:1003A00073686F756C642062652061646A7573742C
:1003B000656420746F20307825780D0A00000000F5
:1003C00072616D2073697A652073686F756C642043
:1003D00062652061646A757374656420746F20308F
:1003E000782578200D0A000073645F626C655F6594
:1003F0006E61626C653A206572726F72203078258A
:10040000780D0A0070B50E460546144614211046B4
:10041000FAF7EFFE0120002120802161217326726E
:100420006572002D00D0A072002070BD10B5FCF7E1
:10043000DBF910BDFFB581B01D4616460C46FEF730
:1004400041FE002C01D0A00702D0072005B0F0BD6E
:100450002046074C0127A060668065600549019829
:1004600010DF0028F2D127701620FFF741FEEDE7DC
:10047000582100202D040200002803D00249086101
:10048000002070470E20704758210020F8B5164C08
:1004900014226068400840006060144801785143AD
:1004A0000E183769FFF798FB01463846FAF75EFEEB
:1004B00005466061FFF790FB0146F0887F1EC0197A
:1004C000FAF754FE02228542606801D1104300E031
:1004D00090436060E1681040084303D0002000F0C2
:1004E000BBF8F8BD0220FAE7FC200020902800208D
:1004F00010B502484069FEF7A9FA10BDFC200020A3
:1005000010B5FFF757FB441EFFF766FB4443FFF7A8
:1005100063FB04494A69521E5043CA682146FEF7EC
:100520009AFA10BDFC200020F8B51048142201787A
:1005300051430C182569FFF74FFB0146E0882289DB
:1005400080184019FAF712FE0F46FFF733FB461EDC
:10055000FFF742FB4643E0882289F1198018044ADC
:1005600040191269FEF777FAF8BD000090280020C4
:10057000FC20002070B5FFF72FFB0546FFF71AFBA4
:10058000441EFFF729FB60432946FAF7EFFDFEF70B
:100590005DFA70BD70B5FFF71FFB8608FFF71CFB07
:1005A0000749496948430446FFF704FB451EFFF726
:1005B00013FB684332462146FEF74DFA70BD00003A
:1005C000FC2000200020704770B5144814220178E8
:1005D00051430C18241DFFF7FFFA6188104E884222
:1005E00011D2FFF7F9FA61880D1AFFF7F5FA8208C0
:1005F000A188E0684018216940194919FEF72BFAD3
:10060000FFF7EAFA07E0A288E06880188A08216903
:10061000FEF721FA6088F06170BD0000902800208C
:10062000FC20002010B505480079000703D4012004
:1006300000F012F810BD00F003F810BDFC200020FF
:1006400010B504480822416891434160407800F0A9
:1006500003F810BDFC2000200249487002498000C8
:1006600008580047FC200020A463020010B504468F
:10067000FFF7E4FB2046FCF77BFB10BD10B50548F7
:100680000079000702D4FDF725FB10BDFFF7D8FF66
:1006900010BD0000FC200020FEB51F4C002527697E
:1006A000E06802906846FEF761F90190FEF742FCAF
:1006B00006460198002822D000230098E16817E040
:1006C0000E680A46864202D9301A086012E0801B82
:1006D000F31800261660D668D169B446002E07D0FC
:1006E000FE183602360A566066469660D561154693
:1006F0000029E5D12846E160FEF77AFC06E02846AD
:10070000FEF776FC002801D1002E02D00298FDF7FA
:1007100063FB00202071FEBD34210020012002492E
:10072000000508607047000000E200E010B50E4BC5
:10073000D968002906D002680C68A24204D8A21A1F
:100740000A60C161D86010BD0B4604E00B46C96960
:10075000121B002904D00C689442F7D3A41A0C6031
:100760000260C161D86110BD34210020F8B51D4D73
:10077000EC68002C34D01C48002740682969401AD6
:100780000602360A2068B04218D8361AC71922461F
:10079000107CE46900280FD0002010746B69002BD6
:1007A00007D0916950699847002805D0FCF72AF8CE
:1007B00002E0516990698847002CE3D16978A878F4
:1007C000814206D1401CC0B2A870022801D100208D
:1007D000A87004490006800D18310F50FFF79EFFE6
:1007E000F8BD00003421002000150140FEB51B4873
:1007F00001680291002101601948416A019119497B
:100800004162026A00920162FF20174C0130A06031
:100810004500A5600420FAF75DFC2069C00502D5FB
:10082000206980050CD400261127E5600420FAF722
:1008300051FCA5600420FAF74DFC2069C00501D5E4
:10084000012601E07F1EF0D205480199416200991E
:1008500001620249029808603046FEBD0045004032
:10086000000700500D0600000005005010B51049AB
:100870000E48486208620F4900208860C8610E482F
:10088000092181600821C1603321C9044162094AFC
:100890000A4938320A61074AE43A4A6101228A6009
:1008A00005210160FFF7A2FF10BD00000C0600004B
:1008B00000070050004100400045004000F50140A5
:1008C000F7B52B4F0E0013D02A4B2B48012E11D019
:1008D00028490831416101214160264C0025EC3452
:1008E000A560244A143A1160A068002804D008E0EA
:1008F0000020FEBD4361EEE7606A002801D17F1E43
:10090000F2D1A560002F02D0606A00280ED0656287
:100910001A4C25601A4EF5630520FAF7DBFB01201F
:10092000F06305202060FFF7A1FFE1E7134880692D
:100930000099761E08700098F6B2401C0090012EB7
:1009400009D0002E0BD01420FAF7C4FB094901206E
:1009500014390862C8E7084906484861F3E7606847
:100960000028FCD06560044901208860FEBD0000BD
:10097000204E00001440004000F5014000450040BA
:10098000C04F0040FFB5002481B01F461646054603
:10099000002A11D0FFF72AFF00280DD00849680867
:1009A0008860E80702983A46314602D0FFF788FF90
:1009B00001E000F007F80446204605B0F0BD000055
:1009C00080450040F8B5224E964600290DD0214AB8
:1009D0000378D361401C204F01258446BD601F4B26
:1009E0000024D869002802D004E00020F8BD586A2D
:1009F000002812D0002E02D0586A002810D05C6265
:100A0000144E3460164FFC630520FAF763FBFD6358
:100A100005203060FFF72AFFE7E7761EE1D1EEE719
:100A2000DC61491E0906090E07D0604602780948B4
:100A3000C2616046401C8446D3E77046002804D05B
:100A40005C607D6158680028FCD00120F8BD000082
:100A5000204E0000004500400040004000410040A2
:100A6000C04F0040FFB50027FF2285B00C4605327D
:100A70001E46A750FF222532A750FF221D32A75045
:100A8000FF220932A75005462035CA1DFF32AF713B
:100A9000FA32EF70012B0FD0012313600122226282
:100AA00022600268002A09D0104981608068032111
:100AB00009026118486015E00223EEE7014626317D
:100AC0002330039102900020019000962046079B5E
